{
  "_format": "hh-sol-artifact-1",
  "contractName": "PoolHelper",
  "sourceName": "contracts/PoolHelper.sol",
  "abi": [
    {
      "inputs": [
        {
          "internalType": "address",
          "name": "pool",
          "type": "address"
        }
      ],
      "name": "getBinsReserves",
      "outputs": [
        {
          "internalType": "uint24[]",
          "name": "ids",
          "type": "uint24[]"
        },
        {
          "internalType": "bytes32[]",
          "name": "reserves",
          "type": "bytes32[]"
        },
        {
          "internalType": "uint64",
          "name": "height",
          "type": "uint64"
        }
      ],
      "stateMutability": "view",
      "type": "function"
    },
    {
      "inputs": [
        {
          "internalType": "address",
          "name": "pool",
          "type": "address"
        }
      ],
      "name": "getLBPairParameters",
      "outputs": [
        {
          "components": [
            {
              "internalType": "uint16",
              "name": "baseFactor",
              "type": "uint16"
            },
            {
              "internalType": "uint16",
              "name": "filterPeriod",
              "type": "uint16"
            },
            {
              "internalType": "uint16",
              "name": "decayPeriod",
              "type": "uint16"
            },
            {
              "internalType": "uint16",
              "name": "reductionFactor",
              "type": "uint16"
            },
            {
              "internalType": "uint24",
              "name": "variableFeeControl",
              "type": "uint24"
            },
            {
              "internalType": "uint16",
              "name": "protocolShare",
              "type": "uint16"
            },
            {
              "internalType": "uint24",
              "name": "maxVolatilityAccumulator",
              "type": "uint24"
            },
            {
              "internalType": "uint24",
              "name": "volatilityAccumulator",
              "type": "uint24"
            },
            {
              "internalType": "uint24",
              "name": "volatilityReference",
              "type": "uint24"
            },
            {
              "internalType": "uint24",
              "name": "idReference",
              "type": "uint24"
            },
            {
              "internalType": "uint40",
              "name": "timeOfLastUpdate",
              "type": "uint40"
            },
            {
              "internalType": "uint24",
              "name": "activeId",
              "type": "uint24"
            }
          ],
          "internalType": "struct PoolHelper.LBPairParameters",
          "name": "p",
          "type": "tuple"
        },
        {
          "internalType": "uint64",
          "name": "height",
          "type": "uint64"
        }
      ],
      "stateMutability": "view",
      "type": "function"
    },
    {
      "inputs": [
        {
          "internalType": "address",
          "name": "pool",
          "type": "address"
        },
        {
          "internalType": "int16",
          "name": "tickBitmapIndex",
          "type": "int16"
        }
      ],
      "name": "getPopulatedTicksInWord",
      "outputs": [
        {
          "components": [
            {
              "internalType": "int24",
              "name": "tick",
              "type": "int24"
            },
            {
              "internalType": "int128",
              "name": "liquidityNet",
              "type": "int128"
            },
            {
              "internalType": "uint128",
              "name": "liquidityGross",
              "type": "uint128"
            }
          ],
          "internalType": "struct PoolHelper.PopulatedTick[]",
          "name": "populatedTicks",
          "type": "tuple[]"
        },
        {
          "internalType": "uint64",
          "name": "height",
          "type": "uint64"
        }
      ],
      "stateMutability": "view",
      "type": "function"
    },
    {
      "inputs": [
        {
          "internalType": "address",
          "name": "pool",
          "type": "address"
        }
      ],
      "name": "tickLiquidity",
      "outputs": [
        {
          "internalType": "uint160",
          "name": "",
          "type": "uint160"
        },
        {
          "internalType": "int24",
          "name": "",
          "type": "int24"
        },
        {
          "internalType": "uint128",
          "name": "",
          "type": "uint128"
        },
        {
          "internalType": "uint256",
          "name": "",
          "type": "uint256"
        }
      ],
      "stateMutability": "view",
      "type": "function"
    },
    {
      "inputs": [
        {
          "internalType": "address",
          "name": "pool",
          "type": "address"
        },
        {
          "internalType": "int24",
          "name": "tick",
          "type": "int24"
        }
      ],
      "name": "ticks",
      "outputs": [
        {
          "internalType": "uint128",
          "name": "",
          "type": "uint128"
        },
        {
          "internalType": "int128",
          "name": "",
          "type": "int128"
        },
        {
          "internalType": "uint256",
          "name": "",
          "type": "uint256"
        }
      ],
      "stateMutability": "view",
      "type": "function"
    }
  ],
  "bytecode": "0x608060405234801561001057600080fd5b5061128a806100206000396000f3fe608060405234801561001057600080fd5b50600436106100575760003560e01c806309dd705b1461005c5780630fc142f3146100af578063351fb478146100ea5780633f5f91781461010b578063592f8d331461012d575b600080fd5b61006f61006a366004610b82565b61014e565b604080516001600160a01b03909516855260029390930b60208501526001600160801b039091169183019190915260608201526080015b60405180910390f35b6100c26100bd366004610bb5565b610237565b604080516001600160801b039094168452600f9290920b6020840152908201526060016100a6565b6100fd6100f8366004610bee565b6102c6565b6040516100a6929190610c23565b61011e610119366004610b82565b61056f565b6040516100a693929190610c9e565b61014061013b366004610b82565b610953565b6040516100a6929190610d35565b600080600080600080866001600160a01b0316633850c7bd6040518163ffffffff1660e01b815260040160e060405180830381865afa158015610195573d6000803e3d6000fd5b505050506040513d601f19601f820116820180604052508101906101b99190610e5e565b5050505050915091506000876001600160a01b0316631a6865026040518163ffffffff1660e01b8152600401602060405180830381865afa158015610202573d6000803e3d6000fd5b505050506040513d601f19601f820116820180604052508101906102269190610f08565b929891975091955043945092505050565b60405163f30dba9360e01b8152600282900b600482015260009081908190819081906001600160a01b0388169063f30dba939060240161010060405180830381865afa15801561028b573d6000803e3d6000fd5b505050506040513d601f19601f820116820180604052508101906102af9190610f23565b50959d949c50439b50939950505050505050505050565b60405163299ce14b60e11b8152600182900b600482015260609060009081906001600160a01b03861690635339c29690602401602060405180830381865afa158015610316573d6000803e3d6000fd5b505050506040513d601f19601f8201168201806040525081019061033a9190610fcd565b90506000805b610100811015610375576001811b831615610363578161035f81610ffc565b9250505b8061036d81610ffc565b915050610340565b506000866001600160a01b031663d0c93a7c6040518163ffffffff1660e01b8152600401602060405180830381865afa1580156103b6573d6000803e3d6000fd5b505050506040513d601f19601f820116820180604052508101906103da9190611015565b90508167ffffffffffffffff8111156103f5576103f5611032565b60405190808252806020026020018201604052801561044057816020015b60408051606081018252600080825260208083018290529282015282526000199092019101816104135790505b50945060005b610100811015610561576001811b84161561054f5760008261046f8360088b901b60020b611048565b6104799190611073565b60405163f30dba9360e01b8152600282900b600482015290915060009081906001600160a01b038c169063f30dba939060240161010060405180830381865afa1580156104ca573d6000803e3d6000fd5b505050506040513d601f19601f820116820180604052508101906104ee9190610f23565b5050505050509150915060405180606001604052808460020b815260200182600f0b8152602001836001600160801b0316815250898761052d9061109a565b97508781518110610540576105406110b1565b60200260200101819052505050505b8061055981610ffc565b915050610446565b504393505050509250929050565b6060806000808490506000816001600160a01b031663dbe65edc6040518163ffffffff1660e01b8152600401602060405180830381865afa1580156105b8573d6000803e3d6000fd5b505050506040513d601f19601f820116820180604052508101906105dc91906110da565b604080516101008082526120208201909252919250602082016120008036833750506040805161010080825261202082019092529297509050602082016120008036833701905050935060006106338260016110f5565b905060005b60808160ff1610156107b05760405163a41a01fb60e01b81526001600482015262ffffff831660248201526001600160a01b0385169063a41a01fb90604401602060405180830381865afa158015610694573d6000803e3d6000fd5b505050506040513d601f19601f820116820180604052508101906106b891906110da565b915062fffffe1962ffffff831601156107b05781878260ff16815181106106e1576106e16110b1565b62ffffff9283166020918202929092010152604051630157d2d160e31b8152908316600482015260009081906001600160a01b03871690630abe9688906024016040805180830381865afa15801561073d573d6000803e3d6000fd5b505050506040513d601f19601f820116820180604052508101906107619190611111565b9150915060008160801b6001600160801b03841617905080898560ff168151811061078e5761078e6110b1565b60200260200101818152505050505080806107a890611144565b915050610638565b5081905060005b60808160ff1610156109455760405163a41a01fb60e01b81526000600482015262ffffff831660248201526001600160a01b0385169063a41a01fb90604401602060405180830381865afa158015610813573d6000803e3d6000fd5b505050506040513d601f19601f8201168201806040525081019061083791906110da565b915062fffffe1962ffffff83160115610945578187610857836080611163565b60ff168151811061086a5761086a6110b1565b62ffffff9283166020918202929092010152604051630157d2d160e31b8152908316600482015260009081906001600160a01b03871690630abe9688906024016040805180830381865afa1580156108c6573d6000803e3d6000fd5b505050506040513d601f19601f820116820180604052508101906108ea9190611111565b9150915060008160801b6001600160801b03841617905080898560806109109190611163565b60ff1681518110610923576109236110b1565b602002602001018181525050505050808061093d90611144565b9150506107b7565b504393505050509193909250565b6040805161018081018252600080825260208201819052918101829052606081018290526080810182905260a0810182905260c0810182905260e08101829052610100810182905261012081018290526101408101829052610160810191909152600080839050806001600160a01b0316637ca0de306040518163ffffffff1660e01b815260040160e060405180830381865afa1580156109f8573d6000803e3d6000fd5b505050506040513d601f19601f82011682018060405250810190610a1c919061117c565b62ffffff90811660c08b015261ffff91821660a08b0152919091166080808a019190915291811660608901529182166040808901919091529282166020880152921685528051638d7024e560e01b815290516001600160a01b03841692638d7024e592600480820193918290030181865afa158015610a9f573d6000803e3d6000fd5b505050506040513d601f19601f82011682018060405250810190610ac391906111f4565b64ffffffffff1661014087015262ffffff9081166101208701529081166101008601521660e0840152604080516336f997b760e21b815290516001600160a01b0383169163dbe65edc9160048083019260209291908290030181865afa158015610b31573d6000803e3d6000fd5b505050506040513d601f19601f82011682018060405250810190610b5591906110da565b62ffffff166101608401525090924392509050565b6001600160a01b0381168114610b7f57600080fd5b50565b600060208284031215610b9457600080fd5b8135610b9f81610b6a565b9392505050565b8060020b8114610b7f57600080fd5b60008060408385031215610bc857600080fd5b8235610bd381610b6a565b91506020830135610be381610ba6565b809150509250929050565b60008060408385031215610c0157600080fd5b8235610c0c81610b6a565b91506020830135600181900b8114610be357600080fd5b6040808252835182820181905260009190606090818501906020808901865b83811015610c7e578151805160020b865283810151600f0b848701528701516001600160801b0316878601529385019390820190600101610c42565b505082955067ffffffffffffffff88168188015250505050509392505050565b606080825284519082018190526000906020906080840190828801845b82811015610cdc57815162ffffff1684529284019290840190600101610cbb565b5050508381038285015285518082528683019183019060005b81811015610d1157835183529284019291840191600101610cf5565b505067ffffffffffffffff861660408601529250610d2d915050565b949350505050565b825161ffff1681526101a081016020840151610d57602084018261ffff169052565b506040840151610d6d604084018261ffff169052565b506060840151610d83606084018261ffff169052565b506080840151610d9a608084018262ffffff169052565b5060a0840151610db060a084018261ffff169052565b5060c0840151610dc760c084018262ffffff169052565b5060e0840151610dde60e084018262ffffff169052565b506101008481015162ffffff90811691840191909152610120808601518216908401526101408086015164ffffffffff1690840152610160808601519091169083015267ffffffffffffffff8316610180830152610b9f565b805161ffff81168114610e4957600080fd5b919050565b80518015158114610e4957600080fd5b600080600080600080600060e0888a031215610e7957600080fd5b8751610e8481610b6a565b6020890151909750610e9581610ba6565b9550610ea360408901610e37565b9450610eb160608901610e37565b9350610ebf60808901610e37565b925060a088015160ff81168114610ed557600080fd5b9150610ee360c08901610e4e565b905092959891949750929550565b80516001600160801b0381168114610e4957600080fd5b600060208284031215610f1a57600080fd5b610b9f82610ef1565b600080600080600080600080610100898b031215610f4057600080fd5b610f4989610ef1565b9750602089015180600f0b8114610f5f57600080fd5b80975050604089015195506060890151945060808901518060060b8114610f8557600080fd5b60a08a0151909450610f9681610b6a565b60c08a015190935063ffffffff81168114610fb057600080fd5b9150610fbe60e08a01610e4e565b90509295985092959890939650565b600060208284031215610fdf57600080fd5b5051919050565b634e487b7160e01b600052601160045260246000fd5b60006001820161100e5761100e610fe6565b5060010190565b60006020828403121561102757600080fd5b8151610b9f81610ba6565b634e487b7160e01b600052604160045260246000fd5b600281810b9083900b01627fffff8113627fffff198212171561106d5761106d610fe6565b92915050565b60008260020b8260020b028060020b915080821461109357611093610fe6565b5092915050565b6000816110a9576110a9610fe6565b506000190190565b634e487b7160e01b600052603260045260246000fd5b805162ffffff81168114610e4957600080fd5b6000602082840312156110ec57600080fd5b610b9f826110c7565b62ffffff81811683821601908082111561109357611093610fe6565b6000806040838503121561112457600080fd5b61112d83610ef1565b915061113b60208401610ef1565b90509250929050565b600060ff821660ff810361115a5761115a610fe6565b60010192915050565b60ff818116838216019081111561106d5761106d610fe6565b600080600080600080600060e0888a03121561119757600080fd5b6111a088610e37565b96506111ae60208901610e37565b95506111bc60408901610e37565b94506111ca60608901610e37565b93506111d8608089016110c7565b92506111e660a08901610e37565b9150610ee360c089016110c7565b6000806000806080858703121561120a57600080fd5b611213856110c7565b9350611221602086016110c7565b925061122f604086016110c7565b9150606085015164ffffffffff8116811461124957600080fd5b93969295509093505056fea2646970667358221220b082802f6fa895d018fd13ef78b0186e0f0d8f6e2a6bb6ba9632a68e261635e464736f6c63430008120033",
  "linkReferences": {},
  "deployedLinkReferences": {}
}