{
  "_format": "hh-sol-artifact-1",
  "contractName": "DexManagae",
  "sourceName": "contracts/dex.sol",
  "abi": [
    {
      "inputs": [
        {
          "internalType": "uint8",
          "name": "",
          "type": "uint8"
        }
      ],
      "name": "swapRouters",
      "outputs": [
        {
          "internalType": "address",
          "name": "",
          "type": "address"
        }
      ],
      "stateMutability": "view",
      "type": "function"
    }
  ],
  "bytecode": "0x608060405234801561001057600080fd5b5060cd8061001f6000396000f3fe6080604052348015600f57600080fd5b506004361060285760003560e01c80638c09fd3414602d575b600080fd5b60536038366004606f565b6000602081905290815260409020546001600160a01b031681565b6040516001600160a01b03909116815260200160405180910390f35b600060208284031215608057600080fd5b813560ff81168114609057600080fd5b939250505056fea2646970667358221220bc9c452805a0ae4efa47431044e3c95833ea55310676c993d3ba518037cf27b564736f6c63430008120033",
  "linkReferences": {},
  "deployedLinkReferences": {}
}