{
  "_format": "hh-sol-artifact-1",
  "contractName": "IbAggregatorRouter",
  "sourceName": "contracts/ibaggregator.sol",
  "abi": [
    {
      "inputs": [
        {
          "internalType": "address",
          "name": "receipt",
          "type": "address"
        }
      ],
      "stateMutability": "nonpayable",
      "type": "constructor"
    },
    {
      "inputs": [
        {
          "internalType": "uint256",
          "name": "platform",
          "type": "uint256"
        }
      ],
      "name": "ExecutionFailed",
      "type": "error"
    },
    {
      "inputs": [],
      "name": "LengthMismatch",
      "type": "error"
    },
    {
      "inputs": [],
      "name": "TransactionDeadlinePassed",
      "type": "error"
    },
    {
      "inputs": [],
      "name": "FEERATE",
      "outputs": [
        {
          "internalType": "uint16",
          "name": "",
          "type": "uint16"
        }
      ],
      "stateMutability": "view",
      "type": "function"
    },
    {
      "inputs": [],
      "name": "PERCENT",
      "outputs": [
        {
          "internalType": "uint16",
          "name": "",
          "type": "uint16"
        }
      ],
      "stateMutability": "view",
      "type": "function"
    },
    {
      "inputs": [],
      "name": "acceptSetter",
      "outputs": [],
      "stateMutability": "nonpayable",
      "type": "function"
    },
    {
      "inputs": [
        {
          "internalType": "uint8",
          "name": "platform",
          "type": "uint8"
        },
        {
          "internalType": "address",
          "name": "router",
          "type": "address"
        }
      ],
      "name": "addRouter",
      "outputs": [],
      "stateMutability": "nonpayable",
      "type": "function"
    },
    {
      "inputs": [
        {
          "internalType": "address[]",
          "name": "tokens",
          "type": "address[]"
        }
      ],
      "name": "approve",
      "outputs": [],
      "stateMutability": "nonpayable",
      "type": "function"
    },
    {
      "inputs": [
        {
          "internalType": "address[]",
          "name": "tokenIns",
          "type": "address[]"
        },
        {
          "internalType": "uint8[]",
          "name": "counts",
          "type": "uint8[]"
        },
        {
          "internalType": "bytes[]",
          "name": "inputs",
          "type": "bytes[]"
        },
        {
          "internalType": "address",
          "name": "tokenOut",
          "type": "address"
        },
        {
          "internalType": "uint256",
          "name": "amountIn",
          "type": "uint256"
        },
        {
          "internalType": "uint256",
          "name": "amountOutMin",
          "type": "uint256"
        },
        {
          "internalType": "uint256",
          "name": "deadline",
          "type": "uint256"
        }
      ],
      "name": "executeForToken",
      "outputs": [],
      "stateMutability": "payable",
      "type": "function"
    },
    {
      "inputs": [
        {
          "internalType": "address[]",
          "name": "tokenIns",
          "type": "address[]"
        },
        {
          "internalType": "uint8[]",
          "name": "counts",
          "type": "uint8[]"
        },
        {
          "internalType": "bytes[]",
          "name": "inputs",
          "type": "bytes[]"
        },
        {
          "internalType": "address",
          "name": "tokenOut",
          "type": "address"
        },
        {
          "internalType": "uint256",
          "name": "amountOutMin",
          "type": "uint256"
        },
        {
          "internalType": "uint256",
          "name": "deadline",
          "type": "uint256"
        }
      ],
      "name": "executeFromEth",
      "outputs": [],
      "stateMutability": "payable",
      "type": "function"
    },
    {
      "inputs": [],
      "name": "feeReceipt",
      "outputs": [
        {
          "internalType": "address",
          "name": "",
          "type": "address"
        }
      ],
      "stateMutability": "view",
      "type": "function"
    },
    {
      "inputs": [],
      "name": "owner",
      "outputs": [
        {
          "internalType": "address",
          "name": "",
          "type": "address"
        }
      ],
      "stateMutability": "view",
      "type": "function"
    },
    {
      "inputs": [
        {
          "internalType": "uint8",
          "name": "",
          "type": "uint8"
        }
      ],
      "name": "swapRouters",
      "outputs": [
        {
          "internalType": "address",
          "name": "router",
          "type": "address"
        },
        {
          "internalType": "address",
          "name": "weth",
          "type": "address"
        }
      ],
      "stateMutability": "view",
      "type": "function"
    },
    {
      "inputs": [
        {
          "internalType": "address",
          "name": "_owner",
          "type": "address"
        }
      ],
      "name": "transferOwner",
      "outputs": [],
      "stateMutability": "nonpayable",
      "type": "function"
    }
  ],
  "bytecode": "0x60a060405234801561001057600080fd5b50604051611ae6380380611ae683398101604081905261002f91610052565b600080546001600160a01b031916331790556001600160a01b0316608052610082565b60006020828403121561006457600080fd5b81516001600160a01b038116811461007b57600080fd5b9392505050565b608051611a3b6100ab6000396000818161011d0152818161035301526106130152611a3b6000f3fe60806040526004361061009c5760003560e01c80638c09fd34116100645780638c09fd341461015c5780638da5cb5b146101bd5780639bf11c15146101dd578063b85a8b20146101f0578063e275063514610219578063fcc07a8c1461023957600080fd5b80634fb2e45d146100a1578063520615ee146100c35780635f8e422f146100d657806377a1736b146100eb5780637ff593b61461010b575b600080fd5b3480156100ad57600080fd5b506100c16100bc3660046113f7565b61024e565b005b6100c16100d1366004611467565b6102bb565b3480156100e257600080fd5b506100c16103a4565b3480156100f757600080fd5b506100c1610106366004611527565b610411565b34801561011757600080fd5b5061013f7f000000000000000000000000000000000000000000000000000000000000000081565b6040516001600160a01b0390911681526020015b60405180910390f35b34801561016857600080fd5b5061019d61017736600461157f565b600260205260009081526040902080546001909101546001600160a01b03918216911682565b604080516001600160a01b03938416815292909116602083015201610153565b3480156101c957600080fd5b5060005461013f906001600160a01b031681565b6100c16101eb36600461159a565b61051f565b3480156101fc57600080fd5b5061020661271081565b60405161ffff9091168152602001610153565b34801561022557600080fd5b506100c1610234366004611664565b61064a565b34801561024557600080fd5b50610206600a81565b6000546001600160a01b031633146102995760405162461bcd60e51b81526020600482015260096024820152683337b93134b23232b760b91b60448201526064015b60405180910390fd5b600180546001600160a01b0319166001600160a01b0392909216919091179055565b80804211156102dd57604051632dfb7c8b60e11b815260040160405180910390fd5b868914610300576040516001621398b960e31b0319815260040160405180910390fd5b34600189896000816103145761031461169b565b9050602002016020810190610329919061157f565b60ff161115610386576000612710610342600a846116c7565b61034c91906116e4565b90506103787f000000000000000000000000000000000000000000000000000000000000000082610803565b6103828183611706565b9150505b6103968b8b8b8b8b8b8b8b6108ab565b505050505050505050505050565b6001546001600160a01b031633146103ea5760405162461bcd60e51b81526020600482015260096024820152683337b93134b23232b760b91b6044820152606401610290565b60018054600080546001600160a01b03199081166001600160a01b03841617909155169055565b600354819060005b828110156105185760005b828110156105055785858381811061043e5761043e61169b565b905060200201602081019061045391906113f7565b6001600160a01b031663095ea7b3600383815481106104745761047461169b565b60009182526020909120015460405160e083901b6001600160e01b03191681526001600160a01b03909116600482015260001960248201526044016020604051808303816000875af11580156104ce573d6000803e3d6000fd5b505050506040513d601f19601f820116820180604052508101906104f29190611719565b50806104fd8161173b565b915050610424565b50806105108161173b565b915050610419565b5050505050565b808042111561054157604051632dfb7c8b60e11b815260040160405180910390fd5b878a14610564576040516001621398b960e31b0319815260040160405180910390fd5b6105978b8b600081811061057a5761057a61169b565b905060200201602081019061058f91906113f7565b333087610ad5565b6001898960008181106105ac576105ac61169b565b90506020020160208101906105c1919061157f565b60ff16111561063a5760006127106105da600a876116c7565b6105e491906116e4565b90506106388c8c60008181106105fc576105fc61169b565b905060200201602081019061061191906113f7565b7f000000000000000000000000000000000000000000000000000000000000000083610bdf565b505b6103968b8b8b8b8b8b8b8a6108ab565b6000546001600160a01b0316331461068f5760405162461bcd60e51b81526020600482015260086024820152673337b93134b232b760c11b6044820152606401610290565b6000600f8360ff16111561070657816001600160a01b0316634aa4a4fc6040518163ffffffff1660e01b8152600401602060405180830381865afa1580156106db573d6000803e3d6000fd5b505050506040513d601f19601f820116820180604052508101906106ff9190611754565b905061076b565b816001600160a01b031663ad5c46486040518163ffffffff1660e01b8152600401602060405180830381865afa158015610744573d6000803e3d6000fd5b505050506040513d601f19601f820116820180604052508101906107689190611754565b90505b6040805180820182526001600160a01b03938416808252928416602080830191825260ff90961660009081526002909652918520905181549085166001600160a01b031991821617825591516001918201805491909516908316179093556003805493840181559093527fc2575a0e9e593c00f959f8c92f12db2869c3395a3b0502d05e2516446f71f85b9091018054909216179055565b604080516000808252602082019092526001600160a01b03841690839060405161082d9190611787565b60006040518083038185875af1925050503d806000811461086a576040519150601f19603f3d011682016040523d82523d6000602084013e61086f565b606091505b50509050806108a65760405162461bcd60e51b815260206004820152600360248201526253544560e81b6044820152606401610290565b505050565b600080805b89811015610a77576000808c8c848181106108cd576108cd61169b565b90506020020160208101906108e291906113f7565b6001600160a01b0316036108f757504761098b565b8b8b838181106109095761090961169b565b905060200201602081019061091e91906113f7565b6040516370a0823160e01b81523060048201526001600160a01b0391909116906370a0823190602401602060405180830381865afa158015610964573d6000803e3d6000fd5b505050506040513d601f19601f8201168201806040525081019061098891906117b6565b90505b60005b8a8a848181106109a0576109a061169b565b90506020020160208101906109b5919061157f565b60ff16811015610a6257600080610a168f8f878181106109d7576109d761169b565b90506020020160208101906109ec91906113f7565b858d8d8a8181106109ff576109ff61169b565b9050602002810190610a1191906117cf565b610cd8565b91509150806001600160a01b0316896001600160a01b031603610a4057610a3d8288611816565b96505b85610a4a8161173b565b96505050508080610a5a9061173b565b91505061098e565b50508080610a6f9061173b565b9150506108b0565b5082821015610ac85760405162461bcd60e51b815260206004820152601760248201527f616d6f756e74206f7574206d696e2072657175697265640000000000000000006044820152606401610290565b5098975050505050505050565b604080516001600160a01b0385811660248301528481166044830152606480830185905283518084039091018152608490920183526020820180516001600160e01b03166323b872dd60e01b1790529151600092839290881691610b399190611787565b6000604051808303816000865af19150503d8060008114610b76576040519150601f19603f3d011682016040523d82523d6000602084013e610b7b565b606091505b5091509150818015610ba5575080511580610ba5575080806020019051810190610ba59190611719565b610bd75760405162461bcd60e51b815260206004820152600360248201526229aa2360e91b6044820152606401610290565b505050505050565b604080516001600160a01b038481166024830152604480830185905283518084039091018152606490920183526020820180516001600160e01b031663a9059cbb60e01b1790529151600092839290871691610c3b9190611787565b6000604051808303816000865af19150503d8060008114610c78576040519150601f19603f3d011682016040523d82523d6000602084013e610c7d565b606091505b5091509150818015610ca7575080511580610ca7575080806020019051810190610ca79190611719565b6105185760405162461bcd60e51b815260206004820152600260248201526114d560f21b6044820152606401610290565b813560ff81166000908152600260209081526040808320815180830190925280546001600160a01b039081168084526001909201541692820192909252919283929091610d575760405162461bcd60e51b815260206004820152600d60248201526c191bdb89dd081cdd5c1c1bdc9d609a1b6044820152606401610290565b600f8260ff1611156110815760208601359250604086013560608701356080880135612710610d8a61ffff83168c6116c7565b610d9491906116e4565b99506001600160a01b038616610ecb57835160408051610100810182526001600160a01b038e8116825260208089015182169083015262ffffff871682840152600060608301819052600019608084015260a083018f905260c0830181905260e0830152915163414bf38960e01b8152919092169163414bf38991610e1c9190600401611829565b6020604051808303816000875af1158015610e3b573d6000803e3d6000fd5b505050506040513d601f19601f82011682018060405250810190610e5f91906117b6565b845160405163125012df60e21b8152600481018390526001600160a01b0385811660248301529299509116906349404b7c90604401600060405180830381600087803b158015610eae57600080fd5b505af1158015610ec2573d6000803e3d6000fd5b50505050611079565b6001600160a01b038b16610fbe5783600001516001600160a01b031663414bf3898b60405180610100016040528088602001516001600160a01b031681526020018a6001600160a01b031681526020018762ffffff168152602001866001600160a01b0316815260200160001981526020018e81526020016000815260200160006001600160a01b03168152506040518363ffffffff1660e01b8152600401610f749190611829565b60206040518083038185885af1158015610f92573d6000803e3d6000fd5b50505050506040513d601f19601f82011682018060405250810190610fb791906117b6565b9650611079565b835160408051610100810182526001600160a01b038e81168252898116602083015262ffffff8716828401528581166060830152600019608083015260a082018e9052600060c0830181905260e0830152915163414bf38960e01b8152919092169163414bf389916110339190600401611829565b6020604051808303816000875af1158015611052573d6000803e3d6000fd5b505050506040513d601f19601f8201168201806040525081019061107691906117b6565b96505b5050506113d4565b604086013592506020860135606087013560808801356127106110a760ff83168c6116c7565b6110b191906116e4565b604080516002808252606082018352929c5060009290916020830190803683370190505090506001600160a01b038c166111e8578460200151816000815181106110fd576110fd61169b565b60200260200101906001600160a01b031690816001600160a01b03168152505086816001815181106111315761113161169b565b6001600160a01b0392831660209182029290920101528551604051637ff36ab560e01b81526000929190911690637ff36ab5908e9061117c90899087908a90600019906004016118d6565b60006040518083038185885af115801561119a573d6000803e3d6000fd5b50505050506040513d6000823e601f3d908101601f191682016040526111c3919081019061190b565b9050806000815181106111d8576111d861169b565b60200260200101519850506113cf565b6001600160a01b0387166112d4578b8160008151811061120a5761120a61169b565b60200260200101906001600160a01b031690816001600160a01b0316815250508460200151816001815181106112425761124261169b565b6001600160a01b03928316602091820292909201015285516040516318cbafe560e01b815260009291909116906318cbafe59061128d908f90899087908a90600019906004016119c9565b6000604051808303816000875af11580156112ac573d6000803e3d6000fd5b505050506040513d6000823e601f3d908101601f191682016040526111c3919081019061190b565b8b816000815181106112e8576112e861169b565b60200260200101906001600160a01b031690816001600160a01b031681525050868160018151811061131c5761131c61169b565b6001600160a01b03928316602091820292909201015285516040516338ed173960e01b815260009291909116906338ed173990611367908f90899087908a90600019906004016119c9565b6000604051808303816000875af1158015611386573d6000803e3d6000fd5b505050506040513d6000823e601f3d908101601f191682016040526113ae919081019061190b565b9050806000815181106113c3576113c361169b565b60200260200101519850505b505050505b505094509492505050565b6001600160a01b03811681146113f457600080fd5b50565b60006020828403121561140957600080fd5b8135611414816113df565b9392505050565b60008083601f84011261142d57600080fd5b50813567ffffffffffffffff81111561144557600080fd5b6020830191508360208260051b850101111561146057600080fd5b9250929050565b600080600080600080600080600060c08a8c03121561148557600080fd5b893567ffffffffffffffff8082111561149d57600080fd5b6114a98d838e0161141b565b909b50995060208c01359150808211156114c257600080fd5b6114ce8d838e0161141b565b909950975060408c01359150808211156114e757600080fd5b506114f48c828d0161141b565b90965094505060608a0135611508816113df565b8093505060808a0135915060a08a013590509295985092959850929598565b6000806020838503121561153a57600080fd5b823567ffffffffffffffff81111561155157600080fd5b61155d8582860161141b565b90969095509350505050565b803560ff8116811461157a57600080fd5b919050565b60006020828403121561159157600080fd5b61141482611569565b60008060008060008060008060008060e08b8d0312156115b957600080fd5b8a3567ffffffffffffffff808211156115d157600080fd5b6115dd8e838f0161141b565b909c509a5060208d01359150808211156115f657600080fd5b6116028e838f0161141b565b909a50985060408d013591508082111561161b57600080fd5b506116288d828e0161141b565b90975095505060608b013561163c816113df565b8094505060808b0135925060a08b0135915060c08b013590509295989b9194979a5092959850565b6000806040838503121561167757600080fd5b61168083611569565b91506020830135611690816113df565b809150509250929050565b634e487b7160e01b600052603260045260246000fd5b634e487b7160e01b600052601160045260246000fd5b80820281158282048414176116de576116de6116b1565b92915050565b60008261170157634e487b7160e01b600052601260045260246000fd5b500490565b818103818111156116de576116de6116b1565b60006020828403121561172b57600080fd5b8151801515811461141457600080fd5b60006001820161174d5761174d6116b1565b5060010190565b60006020828403121561176657600080fd5b8151611414816113df565b634e487b7160e01b600052604160045260246000fd5b6000825160005b818110156117a8576020818601810151858301520161178e565b506000920191825250919050565b6000602082840312156117c857600080fd5b5051919050565b6000808335601e198436030181126117e657600080fd5b83018035915067ffffffffffffffff82111561180157600080fd5b60200191503681900382131561146057600080fd5b808201808211156116de576116de6116b1565b81516001600160a01b03908116825260208084015182169083015260408084015162ffffff16908301526060808401518216908301526080808401519083015260a0838101519083015260c0808401519083015260e09283015116918101919091526101000190565b600081518084526020808501945080840160005b838110156118cb5781516001600160a01b0316875295820195908201906001016118a6565b509495945050505050565b8481526080602082015260006118ef6080830186611892565b6001600160a01b03949094166040830152506060015292915050565b6000602080838503121561191e57600080fd5b825167ffffffffffffffff8082111561193657600080fd5b818501915085601f83011261194a57600080fd5b81518181111561195c5761195c611771565b8060051b604051601f19603f8301168101818110858211171561198157611981611771565b60405291825284820192508381018501918883111561199f57600080fd5b938501935b828510156119bd578451845293850193928501926119a4565b98975050505050505050565b85815284602082015260a0604082015260006119e860a0830186611892565b6001600160a01b039490941660608301525060800152939250505056fea2646970667358221220dc4bc0d6416917a09e5ea202ce96f7816e8ad93669dc4ba79f6dd474942741c064736f6c63430008120033",
  "linkReferences": {},
  "deployedLinkReferences": {}
}