{
  "_format": "hh-sol-artifact-1",
  "contractName": "IbAggregatorRouter",
  "sourceName": "contracts/ibaggregator.sol",
  "abi": [
    {
      "inputs": [
        {
          "internalType": "address",
          "name": "receipt",
          "type": "address"
        }
      ],
      "stateMutability": "nonpayable",
      "type": "constructor"
    },
    {
      "anonymous": false,
      "inputs": [
        {
          "indexed": true,
          "internalType": "address",
          "name": "sender",
          "type": "address"
        },
        {
          "indexed": false,
          "internalType": "address",
          "name": "tokenIn",
          "type": "address"
        },
        {
          "indexed": false,
          "internalType": "address",
          "name": "tokenOut",
          "type": "address"
        },
        {
          "indexed": false,
          "internalType": "uint256",
          "name": "amountIn",
          "type": "uint256"
        },
        {
          "indexed": false,
          "internalType": "uint256",
          "name": "amountOut",
          "type": "uint256"
        }
      ],
      "name": "AggregatorSwap",
      "type": "event"
    },
    {
      "inputs": [],
      "name": "FEERATE",
      "outputs": [
        {
          "internalType": "uint16",
          "name": "",
          "type": "uint16"
        }
      ],
      "stateMutability": "view",
      "type": "function"
    },
    {
      "inputs": [],
      "name": "PERCENT",
      "outputs": [
        {
          "internalType": "uint16",
          "name": "",
          "type": "uint16"
        }
      ],
      "stateMutability": "view",
      "type": "function"
    },
    {
      "inputs": [],
      "name": "acceptSetter",
      "outputs": [],
      "stateMutability": "nonpayable",
      "type": "function"
    },
    {
      "inputs": [
        {
          "internalType": "uint8",
          "name": "platform",
          "type": "uint8"
        },
        {
          "internalType": "address",
          "name": "router",
          "type": "address"
        }
      ],
      "name": "addRouter",
      "outputs": [],
      "stateMutability": "nonpayable",
      "type": "function"
    },
    {
      "inputs": [
        {
          "internalType": "address[]",
          "name": "tokens",
          "type": "address[]"
        }
      ],
      "name": "approve",
      "outputs": [],
      "stateMutability": "nonpayable",
      "type": "function"
    },
    {
      "inputs": [
        {
          "internalType": "address[]",
          "name": "tokenIns",
          "type": "address[]"
        },
        {
          "internalType": "uint8[]",
          "name": "counts",
          "type": "uint8[]"
        },
        {
          "internalType": "bytes[]",
          "name": "inputs",
          "type": "bytes[]"
        },
        {
          "internalType": "address",
          "name": "tokenOut",
          "type": "address"
        },
        {
          "internalType": "uint256",
          "name": "amountOutMin",
          "type": "uint256"
        },
        {
          "internalType": "uint256",
          "name": "deadline",
          "type": "uint256"
        }
      ],
      "name": "executeFromEth",
      "outputs": [],
      "stateMutability": "payable",
      "type": "function"
    },
    {
      "inputs": [
        {
          "internalType": "address[]",
          "name": "tokenIns",
          "type": "address[]"
        },
        {
          "internalType": "uint8[]",
          "name": "counts",
          "type": "uint8[]"
        },
        {
          "internalType": "bytes[]",
          "name": "inputs",
          "type": "bytes[]"
        },
        {
          "internalType": "address",
          "name": "tokenOut",
          "type": "address"
        },
        {
          "internalType": "uint256",
          "name": "amountIn",
          "type": "uint256"
        },
        {
          "internalType": "uint256",
          "name": "amountOutMin",
          "type": "uint256"
        },
        {
          "internalType": "uint256",
          "name": "deadline",
          "type": "uint256"
        }
      ],
      "name": "executeFromToken",
      "outputs": [],
      "stateMutability": "nonpayable",
      "type": "function"
    },
    {
      "inputs": [],
      "name": "feeReceipt",
      "outputs": [
        {
          "internalType": "address",
          "name": "",
          "type": "address"
        }
      ],
      "stateMutability": "view",
      "type": "function"
    },
    {
      "inputs": [],
      "name": "owner",
      "outputs": [
        {
          "internalType": "address",
          "name": "",
          "type": "address"
        }
      ],
      "stateMutability": "view",
      "type": "function"
    },
    {
      "inputs": [
        {
          "internalType": "address",
          "name": "",
          "type": "address"
        },
        {
          "internalType": "address",
          "name": "",
          "type": "address"
        },
        {
          "internalType": "uint256",
          "name": "",
          "type": "uint256"
        }
      ],
      "name": "pairBinSteps",
      "outputs": [
        {
          "internalType": "uint256",
          "name": "",
          "type": "uint256"
        }
      ],
      "stateMutability": "view",
      "type": "function"
    },
    {
      "inputs": [
        {
          "internalType": "address",
          "name": "token0",
          "type": "address"
        },
        {
          "internalType": "address",
          "name": "token1",
          "type": "address"
        },
        {
          "internalType": "uint256",
          "name": "binStep",
          "type": "uint256"
        },
        {
          "internalType": "uint8",
          "name": "version",
          "type": "uint8"
        }
      ],
      "name": "setShimmerSeaPath",
      "outputs": [],
      "stateMutability": "nonpayable",
      "type": "function"
    },
    {
      "inputs": [
        {
          "internalType": "uint8",
          "name": "",
          "type": "uint8"
        }
      ],
      "name": "swapRouters",
      "outputs": [
        {
          "internalType": "address",
          "name": "router",
          "type": "address"
        },
        {
          "internalType": "address",
          "name": "weth",
          "type": "address"
        }
      ],
      "stateMutability": "view",
      "type": "function"
    },
    {
      "inputs": [
        {
          "internalType": "address",
          "name": "_owner",
          "type": "address"
        }
      ],
      "name": "transferOwner",
      "outputs": [],
      "stateMutability": "nonpayable",
      "type": "function"
    },
    {
      "inputs": [
        {
          "internalType": "address",
          "name": "",
          "type": "address"
        },
        {
          "internalType": "address",
          "name": "",
          "type": "address"
        },
        {
          "internalType": "uint256",
          "name": "",
          "type": "uint256"
        }
      ],
      "name": "versions",
      "outputs": [
        {
          "internalType": "enum ILBRouter.Version",
          "name": "",
          "type": "uint8"
        }
      ],
      "stateMutability": "view",
      "type": "function"
    },
    {
      "stateMutability": "payable",
      "type": "receive"
    }
  ],
  "bytecode": "0x60a06040523480156200001157600080fd5b5060405162002945380380620029458339810160408190526200003491620002fc565b600080546001600160a01b031916331781556001600160a01b038216608052604080516312a9293f60e21b8152905173b783f05f28dfabd0d09ccb524e6c6289cb0e7c1f92918391634aa4a4fc916004808201926020929091908290030181865afa158015620000a8573d6000803e3d6000fd5b505050506040513d601f19601f82011682018060405250810190620000ce9190620002fc565b6040805180820182526001600160a01b03948516808252928516602080830191825260106000908152600280835293517f328b8e687a0a963892a735f0237cb763bbbbf8ba0c1dfe2c221debb32c4bbd8980546001600160a01b0319908116928b1692909217905592517f328b8e687a0a963892a735f0237cb763bbbbf8ba0c1dfe2c221debb32c4bbd8a80548516918a1691909117905560038054600181810183557fc2575a0e9e593c00f959f8c92f12db2869c3395a3b0502d05e2516446f71f85b9182018054871690991790985586518088018852731372c03b0c542017a256473706ba6121f826398080825273beb654a116aeef764988df0c6b4bf67cc869d01b8287018181526011875289885292517fa4e0f4432e44d027a7b3f953940f096bca7a9bd910297cad2ba7c703c2b799d380548a16918f1691909117905591517fa4e0f4432e44d027a7b3f953940f096bca7a9bd910297cad2ba7c703c2b799d480548916918e169190911790558354808b01855583018054881690911790558751808901909852731dbcc54d42503da1455a38ab74b0e6b780d65bc08089528886019182528985529690945295517fe90b7bceb6e7df5418fb78d8ee546e97c83a08bbccc01a0644d599ccd2a7c2e080548616918b1691909117905591517fe90b7bceb6e7df5418fb78d8ee546e97c83a08bbccc01a0644d599ccd2a7c2e1805485169190991617909755805494850181559095529101805490931617909155506200032e9050565b6000602082840312156200030f57600080fd5b81516001600160a01b03811681146200032757600080fd5b9392505050565b6080516125ed6200035860003960008181610159015281816103c7015261053701526125ed6000f3fe6080604052600436106100b15760003560e01c80630a13ac3a146100bd5780634fb2e45d146100df578063520615ee146100ff5780635f8e422f1461011257806377a1736b146101275780637ff593b6146101475780638c09fd34146101915780638da5cb5b146101f25780639d93e00f14610212578063b85a8b2014610232578063ccfed3ac1461025b578063deef2e8c14610289578063e2750635146102b6578063fcc07a8c146102d657600080fd5b366100b857005b600080fd5b3480156100c957600080fd5b506100dd6100d8366004611d0a565b6102eb565b005b3480156100eb57600080fd5b506100dd6100fa366004611dd3565b610473565b6100dd61010d366004611df7565b6104bf565b34801561011e57600080fd5b506100dd6105e2565b34801561013357600080fd5b506100dd610142366004611eb6565b610633565b34801561015357600080fd5b5061017b7f000000000000000000000000000000000000000000000000000000000000000081565b6040516101889190611ef7565b60405180910390f35b34801561019d57600080fd5b506101d26101ac366004611f21565b600260205260009081526040902080546001909101546001600160a01b03918216911682565b604080516001600160a01b03938416815292909116602083015201610188565b3480156101fe57600080fd5b5060005461017b906001600160a01b031681565b34801561021e57600080fd5b506100dd61022d366004611f3c565b610740565b34801561023e57600080fd5b5061024861271081565b60405161ffff9091168152602001610188565b34801561026757600080fd5b5061027b610276366004611f8d565b610906565b604051908152602001610188565b34801561029557600080fd5b506102a96102a4366004611f8d565b610944565b6040516101889190612006565b3480156102c257600080fd5b506100dd6102d136600461201a565b610994565b3480156102e257600080fd5b50610248600a81565b80804211156103155760405162461bcd60e51b815260040161030c90612051565b60405180910390fd5b878a146103345760405162461bcd60e51b815260040161030c90612073565b6103678b8b600081811061034a5761034a6120a3565b905060200201602081019061035f9190611dd3565b333087610b3e565b60018989600081811061037c5761037c6120a3565b90506020020160208101906103919190611f21565b60ff161115610403576104038b8b60008181106103b0576103b06120a3565b90506020020160208101906103c59190611dd3565b7f00000000000000000000000000000000000000000000000000000000000000006127106103f4600a896120cf565b6103fe91906120e6565b610c48565b6104138b8b8b8b8b8b8b8a610d4b565b9250336000805160206125788339815191528c8c600081610436576104366120a3565b905060200201602081019061044b9190611dd3565b87878760405161045e9493929190612108565b60405180910390a25050505050505050505050565b6000546001600160a01b0316331461049d5760405162461bcd60e51b815260040161030c90612131565b600180546001600160a01b0319166001600160a01b0392909216919091179055565b80804211156104e05760405162461bcd60e51b815260040161030c90612051565b8689146104ff5760405162461bcd60e51b815260040161030c90612073565b600188886000818110610514576105146120a3565b90506020020160208101906105299190611f21565b60ff161115610573576105737f0000000000000000000000000000000000000000000000000000000000000000612710610564600a346120cf565b61056e91906120e6565b610fad565b6105838a8a8a8a8a8a8a8a610d4b565b9250336000805160206125788339815191528b8b6000816105a6576105a66120a3565b90506020020160208101906105bb9190611dd3565b8634876040516105ce9493929190612108565b60405180910390a250505050505050505050565b6001546001600160a01b0316331461060c5760405162461bcd60e51b815260040161030c90612131565b60018054600080546001600160a01b03199081166001600160a01b03841617909155169055565b600354819060005b828110156107395760005b8281101561072657858583818110610660576106606120a3565b90506020020160208101906106759190611dd3565b6001600160a01b031663095ea7b360038381548110610696576106966120a3565b6000918252602090912001546040516001600160e01b031960e084901b1681526106d0916001600160a01b03169060001990600401612154565b6020604051808303816000875af11580156106ef573d6000803e3d6000fd5b505050506040513d601f19601f82011682018060405250810190610713919061216d565b508061071e8161218f565b915050610646565b50806107318161218f565b91505061063b565b5050505050565b6000546001600160a01b0316331461076a5760405162461bcd60e51b815260040161030c906121a8565b6040805160018082528183019092526000916020808301908036833701905050905082816000815181106107a0576107a06120a3565b60209081029190910101526040805160018082528183019092526000918160200160208202803683370190505090508260ff1660028111156107e4576107e4611fce565b816000815181106107f7576107f76120a3565b6020026020010190600281111561081057610810611fce565b9081600281111561082357610823611fce565b9052506001600160a01b0380871660009081526004602090815260408083209389168352928152919020835161085b92850190611b9c565b506001600160a01b038086166000908152600460209081526040808320938a168352928152919020835161089192850190611b9c565b506001600160a01b038087166000908152600560209081526040808320938916835292815291902082516108c792840190611be7565b506001600160a01b038086166000908152600560209081526040808320938a16835292815291902082516108fd92840190611be7565b50505050505050565b6004602052826000526040600020602052816000526040600020818154811061092e57600080fd5b9060005260206000200160009250925050505481565b6005602052826000526040600020602052816000526040600020818154811061096c57600080fd5b906000526020600020906020918282040191900692509250509054906101000a900460ff1681565b6000546001600160a01b031633146109be5760405162461bcd60e51b815260040161030c906121a8565b6000600f8360ff161115610a3557816001600160a01b0316634aa4a4fc6040518163ffffffff1660e01b8152600401602060405180830381865afa158015610a0a573d6000803e3d6000fd5b505050506040513d601f19601f82011682018060405250810190610a2e91906121e0565b9050610aa6565b60018360ff161115610aa657816001600160a01b031663ad5c46486040518163ffffffff1660e01b8152600401602060405180830381865afa158015610a7f573d6000803e3d6000fd5b505050506040513d601f19601f82011682018060405250810190610aa391906121e0565b90505b6040805180820182526001600160a01b03938416808252928416602080830191825260ff90961660009081526002909652918520905181549085166001600160a01b031991821617825591516001918201805491909516908316179093556003805493840181559093527fc2575a0e9e593c00f959f8c92f12db2869c3395a3b0502d05e2516446f71f85b9091018054909216179055565b604080516001600160a01b0385811660248301528481166044830152606480830185905283518084039091018152608490920183526020820180516001600160e01b03166323b872dd60e01b1790529151600092839290881691610ba291906121fd565b6000604051808303816000865af19150503d8060008114610bdf576040519150601f19603f3d011682016040523d82523d6000602084013e610be4565b606091505b5091509150818015610c0e575080511580610c0e575080806020019051810190610c0e919061216d565b610c405760405162461bcd60e51b815260206004820152600360248201526229aa2360e91b604482015260640161030c565b505050505050565b600080846001600160a01b031663a9059cbb60e01b8585604051602401610c70929190612154565b60408051601f198184030181529181526020820180516001600160e01b03166001600160e01b0319909416939093179092529051610cae91906121fd565b6000604051808303816000865af19150503d8060008114610ceb576040519150601f19603f3d011682016040523d82523d6000602084013e610cf0565b606091505b5091509150818015610d1a575080511580610d1a575080806020019051810190610d1a919061216d565b6107395760405162461bcd60e51b815260206004820152600260248201526114d560f21b604482015260640161030c565b600080805b89811015610f55576000808c8c84818110610d6d57610d6d6120a3565b9050602002016020810190610d829190611dd3565b6001600160a01b031603610d97575047610e2d565b8b8b83818110610da957610da96120a3565b9050602002016020810190610dbe9190611dd3565b6001600160a01b03166370a08231306040518263ffffffff1660e01b8152600401610de99190611ef7565b602060405180830381865afa158015610e06573d6000803e3d6000fd5b505050506040513d601f19601f82011682018060405250810190610e2a919061222c565b90505b60005b8a8a84818110610e4257610e426120a3565b9050602002016020810190610e579190611f21565b60ff16811015610f4057600080610eb88f8f87818110610e7957610e796120a3565b9050602002016020810190610e8e9190611dd3565b858d8d8a818110610ea157610ea16120a3565b9050602002810190610eb39190612245565b611055565b90925090506210740160881b6001600160a01b038216148015610ee257506001600160a01b038916155b15610ef857610ef1828861228b565b9650610f1e565b806001600160a01b0316896001600160a01b031603610f1e57610f1b828861228b565b96505b85610f288161218f565b96505050508080610f389061218f565b915050610e30565b50508080610f4d9061218f565b915050610d50565b5082821015610fa05760405162461bcd60e51b8152602060048201526017602482015276185b5bdd5b9d081bdd5d081b5a5b881c995c5d5a5c9959604a1b604482015260640161030c565b5098975050505050505050565b604080516000808252602082019092526001600160a01b038416908390604051610fd791906121fd565b60006040518083038185875af1925050503d8060008114611014576040519150601f19603f3d011682016040523d82523d6000602084013e611019565b606091505b50509050806110505760405162461bcd60e51b815260206004820152600360248201526253544560e81b604482015260640161030c565b505050565b813560ff81166000908152600260209081526040808320815180830190925280546001600160a01b0390811680845260019092015416928201929092529192839290916110d45760405162461bcd60e51b815260206004820152600d60248201526c191bdb89dd081cdd5c1c1bdc9d609a1b604482015260640161030c565b600f8260ff1611156113fe576020860135925060408601356060870135608088013561271061110761ffff83168c6120cf565b61111191906120e6565b99506001600160a01b03861661124857835160408051610100810182526001600160a01b038e8116825260208089015182169083015262ffffff871682840152600060608301819052600019608084015260a083018f905260c0830181905260e0830152915163414bf38960e01b8152919092169163414bf38991611199919060040161229e565b6020604051808303816000875af11580156111b8573d6000803e3d6000fd5b505050506040513d601f19601f820116820180604052508101906111dc919061222c565b845160405163125012df60e21b8152600060048201526001600160a01b0385811660248301529299509116906349404b7c90604401600060405180830381600087803b15801561122b57600080fd5b505af115801561123f573d6000803e3d6000fd5b505050506113f6565b6001600160a01b038b1661133b5783600001516001600160a01b031663414bf3898b60405180610100016040528088602001516001600160a01b031681526020018a6001600160a01b031681526020018762ffffff168152602001866001600160a01b0316815260200160001981526020018e81526020016000815260200160006001600160a01b03168152506040518363ffffffff1660e01b81526004016112f1919061229e565b60206040518083038185885af115801561130f573d6000803e3d6000fd5b50505050506040513d601f19601f82011682018060405250810190611334919061222c565b96506113f6565b835160408051610100810182526001600160a01b038e81168252898116602083015262ffffff8716828401528581166060830152600019608083015260a082018e9052600060c0830181905260e0830152915163414bf38960e01b8152919092169163414bf389916113b0919060040161229e565b6020604051808303816000875af11580156113cf573d6000803e3d6000fd5b505050506040513d601f19601f820116820180604052508101906113f3919061222c565b96505b505050611767565b604086013592506060860135608087013561271061141f60ff83168b6120cf565b61142991906120e6565b98508360ff1660010361144957611442828b878c611772565b9550611764565b6040805160028082526060820183526000926020830190803683370190505090506001600160a01b038b1661157b57836020015181600081518110611490576114906120a3565b60200260200101906001600160a01b031690816001600160a01b03168152505085816001815181106114c4576114c46120a3565b6001600160a01b0392831660209182029290920101528451604051637ff36ab560e01b81526000929190911690637ff36ab5908d9061150f90859087908a906000199060040161234b565b60006040518083038185885af115801561152d573d6000803e3d6000fd5b50505050506040513d6000823e601f3d908101601f191682016040526115569190810190612380565b90508060008151811061156b5761156b6120a3565b6020026020010151975050611762565b6001600160a01b038616611667578a8160008151811061159d5761159d6120a3565b60200260200101906001600160a01b031690816001600160a01b0316815250508360200151816001815181106115d5576115d56120a3565b6001600160a01b03928316602091820292909201015284516040516318cbafe560e01b815260009291909116906318cbafe590611620908e90859087908a906000199060040161243d565b6000604051808303816000875af115801561163f573d6000803e3d6000fd5b505050506040513d6000823e601f3d908101601f191682016040526115569190810190612380565b8a8160008151811061167b5761167b6120a3565b60200260200101906001600160a01b031690816001600160a01b03168152505085816001815181106116af576116af6120a3565b6001600160a01b03928316602091820292909201015284516040516338ed173960e01b815260009291909116906338ed1739906116fa908e90859087908a906000199060040161243d565b6000604051808303816000875af1158015611719573d6000803e3d6000fd5b505050506040513d6000823e601f3d908101601f191682016040526117419190810190612380565b905080600081518110611756576117566120a3565b60200260200101519750505b505b50505b505094509492505050565b60006001600160a01b03841661184f57600160009081526002602052600080516020612598833981519152546117b1906001600160a01b0316856119d1565b60016000908152600260205260008051602061255883398151915254604051632c19ba9f60e21b81529293506001600160a01b03169163b066ea7c918691611804919086908c906000199060040161251f565b60206040518083038185885af1158015611822573d6000803e3d6000fd5b50505050506040513d601f19601f82011682018060405250810190611847919061222c565b9150506119c9565b6001600160a01b038316611923576001600090815260026020526000805160206125988339815191525461188d9086906001600160a01b03166119d1565b60016000908152600260205260008051602061255883398151915254604051639ab6156b60e01b81529293506001600160a01b031691639ab6156b916118e09187919086908c9060001990600401612538565b6020604051808303816000875af11580156118ff573d6000803e3d6000fd5b505050506040513d601f19601f82011682018060405250810190611847919061222c565b600061192f85856119d1565b600160009081526002602052600080516020612558833981519152546040516315221fd760e11b81529293506001600160a01b031691632a443fae916119829187919086908c9060001990600401612538565b6020604051808303816000875af11580156119a1573d6000803e3d6000fd5b505050506040513d601f19601f820116820180604052508101906119c5919061222c565b9150505b949350505050565b6119f560405180606001604052806060815260200160608152602001606081525090565b6040805160028082526060820183526000926020830190803683370190505090508381600081518110611a2a57611a2a6120a3565b60200260200101906001600160a01b031690816001600160a01b0316815250508281600181518110611a5e57611a5e6120a3565b6001600160a01b03928316602091820292909201810191909152604080518784166000908152600484528281209488168152938352928190208054608093810285018401909252606084018281528493909290840182828015611ae057602002820191906000526020600020905b815481526020019060010190808311611acc575b50505091835250506001600160a01b0380871660009081526005602090815260408083209389168352928152908290208054835181840281018401909452808452938201939091830182828015611b8657602002820191906000526020600020906000905b82829054906101000a900460ff166002811115611b6457611b64611fce565b815260206001928301818104948501949093039092029101808411611b455790505b5050509183525050602001919091529392505050565b828054828255906000526020600020908101928215611bd7579160200282015b82811115611bd7578251825591602001919060010190611bbc565b50611be3929150611c92565b5090565b82805482825590600052602060002090601f01602090048101928215611bd75791602002820160005b83821115611c5c57835183826101000a81548160ff02191690836002811115611c3b57611c3b611fce565b02179055509260200192600101602081600001049283019260010302611c10565b8015611c895782816101000a81549060ff0219169055600101602081600001049283019260010302611c5c565b5050611be39291505b5b80821115611be35760008155600101611c93565b60008083601f840112611cb957600080fd5b5081356001600160401b03811115611cd057600080fd5b6020830191508360208260051b8501011115611ceb57600080fd5b9250929050565b6001600160a01b0381168114611d0757600080fd5b50565b60008060008060008060008060008060e08b8d031215611d2957600080fd5b8a356001600160401b0380821115611d4057600080fd5b611d4c8e838f01611ca7565b909c509a5060208d0135915080821115611d6557600080fd5b611d718e838f01611ca7565b909a50985060408d0135915080821115611d8a57600080fd5b50611d978d828e01611ca7565b90975095505060608b0135611dab81611cf2565b8094505060808b0135925060a08b0135915060c08b013590509295989b9194979a5092959850565b600060208284031215611de557600080fd5b8135611df081611cf2565b9392505050565b600080600080600080600080600060c08a8c031215611e1557600080fd5b89356001600160401b0380821115611e2c57600080fd5b611e388d838e01611ca7565b909b50995060208c0135915080821115611e5157600080fd5b611e5d8d838e01611ca7565b909950975060408c0135915080821115611e7657600080fd5b50611e838c828d01611ca7565b90965094505060608a0135611e9781611cf2565b8093505060808a0135915060a08a013590509295985092959850929598565b60008060208385031215611ec957600080fd5b82356001600160401b03811115611edf57600080fd5b611eeb85828601611ca7565b90969095509350505050565b6001600160a01b0391909116815260200190565b803560ff81168114611f1c57600080fd5b919050565b600060208284031215611f3357600080fd5b611df082611f0b565b60008060008060808587031215611f5257600080fd5b8435611f5d81611cf2565b93506020850135611f6d81611cf2565b925060408501359150611f8260608601611f0b565b905092959194509250565b600080600060608486031215611fa257600080fd5b8335611fad81611cf2565b92506020840135611fbd81611cf2565b929592945050506040919091013590565b634e487b7160e01b600052602160045260246000fd5b6003811061200257634e487b7160e01b600052602160045260246000fd5b9052565b602081016120148284611fe4565b92915050565b6000806040838503121561202d57600080fd5b61203683611f0b565b9150602083013561204681611cf2565b809150509250929050565b602080825260089082015267646561646c696e6560c01b604082015260600190565b6020808252601690820152753632b733ba341037b31031b7bab73a399032b93937b960511b604082015260600190565b634e487b7160e01b600052603260045260246000fd5b634e487b7160e01b600052601160045260246000fd5b8082028115828204841417612014576120146120b9565b60008261210357634e487b7160e01b600052601260045260246000fd5b500490565b6001600160a01b0394851681529290931660208301526040820152606081019190915260800190565b6020808252600990820152683337b93134b23232b760b91b604082015260600190565b6001600160a01b03929092168252602082015260400190565b60006020828403121561217f57600080fd5b81518015158114611df057600080fd5b6000600182016121a1576121a16120b9565b5060010190565b6020808252600890820152673337b93134b232b760c11b604082015260600190565b634e487b7160e01b600052604160045260246000fd5b6000602082840312156121f257600080fd5b8151611df081611cf2565b6000825160005b8181101561221e5760208186018101518583015201612204565b506000920191825250919050565b60006020828403121561223e57600080fd5b5051919050565b6000808335601e1984360301811261225c57600080fd5b8301803591506001600160401b0382111561227657600080fd5b602001915036819003821315611ceb57600080fd5b80820180821115612014576120146120b9565b81516001600160a01b03908116825260208084015182169083015260408084015162ffffff16908301526060808401518216908301526080808401519083015260a0838101519083015260c0808401519083015260e09283015116918101919091526101000190565b600081518084526020808501945080840160005b838110156123405781516001600160a01b03168752958201959082019060010161231b565b509495945050505050565b8481526080602082015260006123646080830186612307565b6001600160a01b03949094166040830152506060015292915050565b6000602080838503121561239357600080fd5b82516001600160401b03808211156123aa57600080fd5b818501915085601f8301126123be57600080fd5b8151818111156123d0576123d06121ca565b8060051b604051601f19603f830116810181811085821117156123f5576123f56121ca565b60405291825284820192508381018501918883111561241357600080fd5b938501935b8285101561243157845184529385019392850192612418565b98975050505050505050565b85815284602082015260a06040820152600061245c60a0830186612307565b6001600160a01b0394909416606083015250608001529392505050565b805160608084528151908401819052600091602091908201906080860190845b818110156124b557835183529284019291840191600101612499565b50508483015186820387850152805180835290840192506000918401905b808310156124fa576124e6828551611fe4565b9284019260019290920191908401906124d3565b506040860151935086810360408801526125148185612307565b979650505050505050565b8481526080602082015260006123646080830186612479565b85815284602082015260a06040820152600061245c60a083018661247956fee90b7bceb6e7df5418fb78d8ee546e97c83a08bbccc01a0644d599ccd2a7c2e09f70203000dc5ad49aeaa844d92d2a87451c6cf2d727afb7acce473707615624e90b7bceb6e7df5418fb78d8ee546e97c83a08bbccc01a0644d599ccd2a7c2e1a26469706673582212204d854e5fa94183ac10224f03515dfc3795cd317727e54ef8285e394a8ec68fdb64736f6c63430008120033",
  "linkReferences": {},
  "deployedLinkReferences": {}
}