{
  "_format": "hh-sol-artifact-1",
  "contractName": "IbAggregatorRouter",
  "sourceName": "contracts/ibaggregator.sol",
  "abi": [
    {
      "inputs": [
        {
          "internalType": "address",
          "name": "receipt",
          "type": "address"
        }
      ],
      "stateMutability": "nonpayable",
      "type": "constructor"
    },
    {
      "anonymous": false,
      "inputs": [
        {
          "indexed": true,
          "internalType": "address",
          "name": "sender",
          "type": "address"
        },
        {
          "indexed": false,
          "internalType": "address",
          "name": "tokenIn",
          "type": "address"
        },
        {
          "indexed": false,
          "internalType": "address",
          "name": "tokenOut",
          "type": "address"
        },
        {
          "indexed": false,
          "internalType": "uint256",
          "name": "amountIn",
          "type": "uint256"
        },
        {
          "indexed": false,
          "internalType": "uint256",
          "name": "amountOut",
          "type": "uint256"
        }
      ],
      "name": "AggregatorSwap",
      "type": "event"
    },
    {
      "inputs": [],
      "name": "FEERATE",
      "outputs": [
        {
          "internalType": "uint16",
          "name": "",
          "type": "uint16"
        }
      ],
      "stateMutability": "view",
      "type": "function"
    },
    {
      "inputs": [],
      "name": "PERCENT",
      "outputs": [
        {
          "internalType": "uint16",
          "name": "",
          "type": "uint16"
        }
      ],
      "stateMutability": "view",
      "type": "function"
    },
    {
      "inputs": [],
      "name": "acceptOwner",
      "outputs": [],
      "stateMutability": "nonpayable",
      "type": "function"
    },
    {
      "inputs": [
        {
          "internalType": "uint8",
          "name": "platform",
          "type": "uint8"
        },
        {
          "internalType": "address",
          "name": "router",
          "type": "address"
        }
      ],
      "name": "addRouter",
      "outputs": [],
      "stateMutability": "nonpayable",
      "type": "function"
    },
    {
      "inputs": [
        {
          "internalType": "address[]",
          "name": "tokens",
          "type": "address[]"
        }
      ],
      "name": "approve",
      "outputs": [],
      "stateMutability": "nonpayable",
      "type": "function"
    },
    {
      "inputs": [
        {
          "internalType": "address[]",
          "name": "tokenIns",
          "type": "address[]"
        },
        {
          "internalType": "uint8[]",
          "name": "counts",
          "type": "uint8[]"
        },
        {
          "internalType": "bytes[]",
          "name": "inputs",
          "type": "bytes[]"
        },
        {
          "internalType": "address",
          "name": "tokenOut",
          "type": "address"
        },
        {
          "internalType": "uint256",
          "name": "amountOutMin",
          "type": "uint256"
        },
        {
          "internalType": "uint256",
          "name": "deadline",
          "type": "uint256"
        }
      ],
      "name": "executeFromEth",
      "outputs": [],
      "stateMutability": "payable",
      "type": "function"
    },
    {
      "inputs": [
        {
          "internalType": "address[]",
          "name": "tokenIns",
          "type": "address[]"
        },
        {
          "internalType": "uint8[]",
          "name": "counts",
          "type": "uint8[]"
        },
        {
          "internalType": "bytes[]",
          "name": "inputs",
          "type": "bytes[]"
        },
        {
          "internalType": "address",
          "name": "tokenOut",
          "type": "address"
        },
        {
          "internalType": "uint256",
          "name": "amountIn",
          "type": "uint256"
        },
        {
          "internalType": "uint256",
          "name": "amountOutMin",
          "type": "uint256"
        },
        {
          "internalType": "uint256",
          "name": "deadline",
          "type": "uint256"
        }
      ],
      "name": "executeFromToken",
      "outputs": [],
      "stateMutability": "nonpayable",
      "type": "function"
    },
    {
      "inputs": [],
      "name": "feeReceipt",
      "outputs": [
        {
          "internalType": "address",
          "name": "",
          "type": "address"
        }
      ],
      "stateMutability": "view",
      "type": "function"
    },
    {
      "inputs": [],
      "name": "owner",
      "outputs": [
        {
          "internalType": "address",
          "name": "",
          "type": "address"
        }
      ],
      "stateMutability": "view",
      "type": "function"
    },
    {
      "inputs": [
        {
          "internalType": "uint8",
          "name": "",
          "type": "uint8"
        }
      ],
      "name": "swapRouters",
      "outputs": [
        {
          "internalType": "address",
          "name": "router",
          "type": "address"
        },
        {
          "internalType": "address",
          "name": "weth",
          "type": "address"
        }
      ],
      "stateMutability": "view",
      "type": "function"
    },
    {
      "inputs": [
        {
          "internalType": "address",
          "name": "_owner",
          "type": "address"
        }
      ],
      "name": "transferOwner",
      "outputs": [],
      "stateMutability": "nonpayable",
      "type": "function"
    },
    {
      "stateMutability": "payable",
      "type": "receive"
    }
  ],
  "bytecode": "0x60a06040523480156200001157600080fd5b50604051620025a1380380620025a18339810160408190526200003491620002fc565b600080546001600160a01b031916331781556001600160a01b038216608052604080516312a9293f60e21b8152905173b783f05f28dfabd0d09ccb524e6c6289cb0e7c1f92918391634aa4a4fc916004808201926020929091908290030181865afa158015620000a8573d6000803e3d6000fd5b505050506040513d601f19601f82011682018060405250810190620000ce9190620002fc565b6040805180820182526001600160a01b03948516808252928516602080830191825260106000908152600280835293517f328b8e687a0a963892a735f0237cb763bbbbf8ba0c1dfe2c221debb32c4bbd8980546001600160a01b0319908116928b1692909217905592517f328b8e687a0a963892a735f0237cb763bbbbf8ba0c1dfe2c221debb32c4bbd8a80548516918a1691909117905560038054600181810183557fc2575a0e9e593c00f959f8c92f12db2869c3395a3b0502d05e2516446f71f85b9182018054871690991790985586518088018852731372c03b0c542017a256473706ba6121f826398080825273beb654a116aeef764988df0c6b4bf67cc869d01b8287018181526011875289885292517fa4e0f4432e44d027a7b3f953940f096bca7a9bd910297cad2ba7c703c2b799d380548a16918f1691909117905591517fa4e0f4432e44d027a7b3f953940f096bca7a9bd910297cad2ba7c703c2b799d480548916918e169190911790558354808b01855583018054881690911790558751808901909852731dbcc54d42503da1455a38ab74b0e6b780d65bc08089528886019182528985529690945295517fe90b7bceb6e7df5418fb78d8ee546e97c83a08bbccc01a0644d599ccd2a7c2e080548616918b1691909117905591517fe90b7bceb6e7df5418fb78d8ee546e97c83a08bbccc01a0644d599ccd2a7c2e1805485169190991617909755805494850181559095529101805490931617909155506200032e9050565b6000602082840312156200030f57600080fd5b81516001600160a01b03811681146200032757600080fd5b9392505050565b608051612249620003586000396000818161013301528181610382015261057901526122496000f3fe6080604052600436106100a05760003560e01c80638c09fd34116100645780638c09fd34146101725780638da5cb5b146101d3578063b85a8b20146101f3578063e27506351461021c578063ebbc49651461023c578063fcc07a8c1461025157600080fd5b80630a13ac3a146100ac5780634fb2e45d146100ce578063520615ee146100ee57806377a1736b146101015780637ff593b61461012157600080fd5b366100a757005b600080fd5b3480156100b857600080fd5b506100cc6100c7366004611b65565b610266565b005b3480156100da57600080fd5b506100cc6100e9366004611c2f565b610455565b6100cc6100fc366004611c53565b6104bd565b34801561010d57600080fd5b506100cc61011c366004611d13565b61064b565b34801561012d57600080fd5b506101557f000000000000000000000000000000000000000000000000000000000000000081565b6040516001600160a01b0390911681526020015b60405180910390f35b34801561017e57600080fd5b506101b361018d366004611d6b565b600260205260009081526040902080546001909101546001600160a01b03918216911682565b604080516001600160a01b03938416815292909116602083015201610169565b3480156101df57600080fd5b50600054610155906001600160a01b031681565b3480156101ff57600080fd5b5061020961271081565b60405161ffff9091168152602001610169565b34801561022857600080fd5b506100cc610237366004611d86565b610759565b34801561024857600080fd5b506100cc61091e565b34801561025d57600080fd5b50610209600a81565b80804211156102a75760405162461bcd60e51b8152602060048201526008602482015267646561646c696e6560c01b60448201526064015b60405180910390fd5b878a146102ef5760405162461bcd60e51b81526020600482015260166024820152753632b733ba341037b31031b7bab73a399032b93937b960511b604482015260640161029e565b6103228b8b600081811061030557610305611dbd565b905060200201602081019061031a9190611c2f565b33308761098b565b60018989600081811061033757610337611dbd565b905060200201602081019061034c9190611d6b565b60ff1611156103be576103be8b8b600081811061036b5761036b611dbd565b90506020020160208101906103809190611c2f565b7f00000000000000000000000000000000000000000000000000000000000000006127106103af600a89611de9565b6103b99190611e06565b610a95565b6103ce8b8b8b8b8b8b8b8a610b8e565b9250337f9f70203000dc5ad49aeaa844d92d2a87451c6cf2d727afb7acce4737076156248c8c60008161040357610403611dbd565b90506020020160208101906104189190611c2f565b604080516001600160a01b039283168152918916602083015281018790526060810186905260800160405180910390a25050505050505050505050565b6000546001600160a01b0316331461049b5760405162461bcd60e51b81526020600482015260096024820152683337b93134b23232b760b91b604482015260640161029e565b600180546001600160a01b0319166001600160a01b0392909216919091179055565b80804211156104f95760405162461bcd60e51b8152602060048201526008602482015267646561646c696e6560c01b604482015260640161029e565b8689146105415760405162461bcd60e51b81526020600482015260166024820152753632b733ba341037b31031b7bab73a399032b93937b960511b604482015260640161029e565b60018888600081811061055657610556611dbd565b905060200201602081019061056b9190611d6b565b60ff1611156105b5576105b57f00000000000000000000000000000000000000000000000000000000000000006127106105a6600a34611de9565b6105b09190611e06565b610f39565b6105c58a8a8a8a8a8a8a8a610b8e565b9250337f9f70203000dc5ad49aeaa844d92d2a87451c6cf2d727afb7acce4737076156248b8b6000816105fa576105fa611dbd565b905060200201602081019061060f9190611c2f565b604080516001600160a01b039283168152918816602083015234908201526060810186905260800160405180910390a250505050505050505050565b600354819060005b828110156107525760005b8281101561073f5785858381811061067857610678611dbd565b905060200201602081019061068d9190611c2f565b6001600160a01b031663095ea7b3600383815481106106ae576106ae611dbd565b60009182526020909120015460405160e083901b6001600160e01b03191681526001600160a01b03909116600482015260001960248201526044016020604051808303816000875af1158015610708573d6000803e3d6000fd5b505050506040513d601f19601f8201168201806040525081019061072c9190611e28565b508061073781611e4a565b91505061065e565b508061074a81611e4a565b915050610653565b5050505050565b6000546001600160a01b0316331461079e5760405162461bcd60e51b81526020600482015260086024820152673337b93134b232b760c11b604482015260640161029e565b6000600f8360ff16111561081557816001600160a01b0316634aa4a4fc6040518163ffffffff1660e01b8152600401602060405180830381865afa1580156107ea573d6000803e3d6000fd5b505050506040513d601f19601f8201168201806040525081019061080e9190611e63565b9050610886565b60018360ff16111561088657816001600160a01b031663ad5c46486040518163ffffffff1660e01b8152600401602060405180830381865afa15801561085f573d6000803e3d6000fd5b505050506040513d601f19601f820116820180604052508101906108839190611e63565b90505b6040805180820182526001600160a01b03938416808252928416602080830191825260ff90961660009081526002909652918520905181549085166001600160a01b031991821617825591516001918201805491909516908316179093556003805493840181559093527fc2575a0e9e593c00f959f8c92f12db2869c3395a3b0502d05e2516446f71f85b9091018054909216179055565b6001546001600160a01b031633146109645760405162461bcd60e51b81526020600482015260096024820152683337b93134b23232b760b91b604482015260640161029e565b60018054600080546001600160a01b03199081166001600160a01b03841617909155169055565b604080516001600160a01b0385811660248301528481166044830152606480830185905283518084039091018152608490920183526020820180516001600160e01b03166323b872dd60e01b17905291516000928392908816916109ef9190611e80565b6000604051808303816000865af19150503d8060008114610a2c576040519150601f19603f3d011682016040523d82523d6000602084013e610a31565b606091505b5091509150818015610a5b575080511580610a5b575080806020019051810190610a5b9190611e28565b610a8d5760405162461bcd60e51b815260206004820152600360248201526229aa2360e91b604482015260640161029e565b505050505050565b604080516001600160a01b038481166024830152604480830185905283518084039091018152606490920183526020820180516001600160e01b031663a9059cbb60e01b1790529151600092839290871691610af19190611e80565b6000604051808303816000865af19150503d8060008114610b2e576040519150601f19603f3d011682016040523d82523d6000602084013e610b33565b606091505b5091509150818015610b5d575080511580610b5d575080806020019051810190610b5d9190611e28565b6107525760405162461bcd60e51b815260206004820152600260248201526114d560f21b604482015260640161029e565b600080805b89811015610da5576000808c8c84818110610bb057610bb0611dbd565b9050602002016020810190610bc59190611c2f565b6001600160a01b031603610bda575047610c6e565b8b8b83818110610bec57610bec611dbd565b9050602002016020810190610c019190611c2f565b6040516370a0823160e01b81523060048201526001600160a01b0391909116906370a0823190602401602060405180830381865afa158015610c47573d6000803e3d6000fd5b505050506040513d601f19601f82011682018060405250810190610c6b9190611eaf565b90505b60005b8a8a84818110610c8357610c83611dbd565b9050602002016020810190610c989190611d6b565b60ff16811015610d9057600080610cf98f8f87818110610cba57610cba611dbd565b9050602002016020810190610ccf9190611c2f565b858d8d8a818110610ce257610ce2611dbd565b9050602002810190610cf49190611ec8565b610fe1565b90925090506210740160881b6001600160a01b038216148015610d2357506001600160a01b038916155b15610d4857610d378264e8d4a51000611de9565b610d419088611f0f565b9650610d6e565b806001600160a01b0316896001600160a01b031603610d6e57610d6b8288611f0f565b96505b85610d7881611e4a565b96505050508080610d8890611e4a565b915050610c71565b50508080610d9d90611e4a565b915050610b93565b5082821015610df65760405162461bcd60e51b815260206004820152601760248201527f616d6f756e74206f7574206d696e207265717569726564000000000000000000604482015260640161029e565b60005b89811015610f2b576000808c8c84818110610e1657610e16611dbd565b9050602002016020810190610e2b9190611c2f565b6001600160a01b031603610e4e574715610e4957610e493347610f39565b610f18565b8b8b83818110610e6057610e60611dbd565b9050602002016020810190610e759190611c2f565b6040516370a0823160e01b81523060048201526001600160a01b0391909116906370a0823190602401602060405180830381865afa158015610ebb573d6000803e3d6000fd5b505050506040513d601f19601f82011682018060405250810190610edf9190611eaf565b90508015610f1857610f188c8c84818110610efc57610efc611dbd565b9050602002016020810190610f119190611c2f565b3383610a95565b5080610f2381611e4a565b915050610df9565b505098975050505050505050565b604080516000808252602082019092526001600160a01b038416908390604051610f639190611e80565b60006040518083038185875af1925050503d8060008114610fa0576040519150601f19603f3d011682016040523d82523d6000602084013e610fa5565b606091505b5050905080610fdc5760405162461bcd60e51b815260206004820152600360248201526253544560e81b604482015260640161029e565b505050565b813560ff81166000908152600260209081526040808320815180830190925280546001600160a01b0390811680845260019092015416928201929092529192839290916110605760405162461bcd60e51b815260206004820152600d60248201526c191bdb89dd081cdd5c1c1bdc9d609a1b604482015260640161029e565b8160ff16601014611083576001600160a01b038816611083576210740160881b97505b600f8260ff1611156110da57602086013592506040860135606087013560808801356127106110b661ffff83168c611de9565b6110c09190611e06565b99506110d084838d89878f61114c565b9650505050611141565b6020860135925060408601356060870135608088013561271061110161ffff83168c611de9565b61110b9190611e06565b99508460ff1660010361112d5761112684838d89878f61143b565b965061113d565b61113a84838d898e611616565b96505b5050505b505094509492505050565b60006001600160a01b03841661128357865160408051610100810182526001600160a01b0388811682526020808c015182169083015262ffffff871682840152600060608301819052600019608084015260a0830187905260c0830181905260e0830152915163414bf38960e01b8152919092169163414bf389916111d49190600401611f38565b6020604051808303816000875af11580156111f3573d6000803e3d6000fd5b505050506040513d601f19601f820116820180604052508101906112179190611eaf565b875160405163125012df60e21b8152600060048201526001600160a01b0389811660248301529293509116906349404b7c90604401600060405180830381600087803b15801561126657600080fd5b505af115801561127a573d6000803e3d6000fd5b50505050611431565b6001600160a01b0385166113765786600001516001600160a01b031663414bf389836040518061010001604052808b602001516001600160a01b03168152602001886001600160a01b031681526020018762ffffff1681526020018a6001600160a01b0316815260200160001981526020018681526020016000815260200160006001600160a01b03168152506040518363ffffffff1660e01b815260040161132c9190611f38565b60206040518083038185885af115801561134a573d6000803e3d6000fd5b50505050506040513d601f19601f8201168201806040525081019061136f9190611eaf565b9050611431565b865160408051610100810182526001600160a01b038881168252878116602083015262ffffff8716828401528981166060830152600019608083015260a08201869052600060c0830181905260e0830152915163414bf38960e01b8152919092169163414bf389916113eb9190600401611f38565b6020604051808303816000875af115801561140a573d6000803e3d6000fd5b505050506040513d601f19601f8201168201806040525081019061142e9190611eaf565b90505b9695505050505050565b60006001600160a01b0385166114e257600061145c8860200151868661193d565b8851604051632c19ba9f60e21b81529192506001600160a01b03169063b066ea7c9085906114979060009086908d90600019906004016120b8565b60206040518083038185885af11580156114b5573d6000803e3d6000fd5b50505050506040513d601f19601f820116820180604052508101906114da9190611eaf565b915050611431565b6001600160a01b03841661157f5760006115018689602001518661193d565b8851604051639ab6156b60e01b81529192506001600160a01b031690639ab6156b9061153c90869060009086908d90600019906004016120ed565b6020604051808303816000875af115801561155b573d6000803e3d6000fd5b505050506040513d601f19601f820116820180604052508101906114da9190611eaf565b600061158c86868661193d565b88516040516315221fd760e11b81529192506001600160a01b031690632a443fae906115c790869060009086908d90600019906004016120ed565b6020604051808303816000875af11580156115e6573d6000803e3d6000fd5b505050506040513d601f19601f8201168201806040525081019061160a9190611eaf565b98975050505050505050565b604080516002808252606082018352600092839291906020830190803683370190505090506001600160a01b03851661174c5786602001518160008151811061166157611661611dbd565b60200260200101906001600160a01b031690816001600160a01b031681525050838160018151811061169557611695611dbd565b6001600160a01b0392831660209182029290920101528751604051637ff36ab560e01b81526000929190911690637ff36ab59086906116e090859087908d9060001990600401612129565b60006040518083038185885af11580156116fe573d6000803e3d6000fd5b50505050506040513d6000823e601f3d908101601f191682016040526117279190810190612142565b90508060008151811061173c5761173c611dbd565b6020026020010151925050611933565b6001600160a01b03841661183857848160008151811061176e5761176e611dbd565b60200260200101906001600160a01b031690816001600160a01b0316815250508660200151816001815181106117a6576117a6611dbd565b6001600160a01b03928316602091820292909201015287516040516318cbafe560e01b815260009291909116906318cbafe5906117f1908790859087908d90600019906004016121f4565b6000604051808303816000875af1158015611810573d6000803e3d6000fd5b505050506040513d6000823e601f3d908101601f191682016040526117279190810190612142565b848160008151811061184c5761184c611dbd565b60200260200101906001600160a01b031690816001600160a01b031681525050838160018151811061188057611880611dbd565b6001600160a01b03928316602091820292909201015287516040516338ed173960e01b815260009291909116906338ed1739906118cb908790859087908d90600019906004016121f4565b6000604051808303816000875af11580156118ea573d6000803e3d6000fd5b505050506040513d6000823e601f3d908101601f191682016040526119129190810190612142565b90508060008151811061192757611927611dbd565b60200260200101519250505b5095945050505050565b61196160405180606001604052806060815260200160608152602001606081525090565b604080516002808252606082018352600092602083019080368337019050509050848160008151811061199657611996611dbd565b60200260200101906001600160a01b031690816001600160a01b03168152505083816001815181106119ca576119ca611dbd565b6001600160a01b0392909216602092830291909101909101526040805160018082528183019092526000918160200160208202803683370190505090508381600081518110611a1b57611a1b611dbd565b60209081029190910101526040805160018082528183019092526000918160200160208202803683370190505090508415611a9957600281600081518110611a6557611a65611dbd565b60200260200101906002811115611a7e57611a7e611fa1565b90816002811115611a9157611a91611fa1565b905250611ade565b600081600081518110611aae57611aae611dbd565b60200260200101906002811115611ac757611ac7611fa1565b90816002811115611ada57611ada611fa1565b9052505b604080516060810182529283526020830191909152810191909152949350505050565b60008083601f840112611b1357600080fd5b50813567ffffffffffffffff811115611b2b57600080fd5b6020830191508360208260051b8501011115611b4657600080fd5b9250929050565b6001600160a01b0381168114611b6257600080fd5b50565b60008060008060008060008060008060e08b8d031215611b8457600080fd5b8a3567ffffffffffffffff80821115611b9c57600080fd5b611ba88e838f01611b01565b909c509a5060208d0135915080821115611bc157600080fd5b611bcd8e838f01611b01565b909a50985060408d0135915080821115611be657600080fd5b50611bf38d828e01611b01565b90975095505060608b0135611c0781611b4d565b8094505060808b0135925060a08b0135915060c08b013590509295989b9194979a5092959850565b600060208284031215611c4157600080fd5b8135611c4c81611b4d565b9392505050565b600080600080600080600080600060c08a8c031215611c7157600080fd5b893567ffffffffffffffff80821115611c8957600080fd5b611c958d838e01611b01565b909b50995060208c0135915080821115611cae57600080fd5b611cba8d838e01611b01565b909950975060408c0135915080821115611cd357600080fd5b50611ce08c828d01611b01565b90965094505060608a0135611cf481611b4d565b8093505060808a0135915060a08a013590509295985092959850929598565b60008060208385031215611d2657600080fd5b823567ffffffffffffffff811115611d3d57600080fd5b611d4985828601611b01565b90969095509350505050565b803560ff81168114611d6657600080fd5b919050565b600060208284031215611d7d57600080fd5b611c4c82611d55565b60008060408385031215611d9957600080fd5b611da283611d55565b91506020830135611db281611b4d565b809150509250929050565b634e487b7160e01b600052603260045260246000fd5b634e487b7160e01b600052601160045260246000fd5b8082028115828204841417611e0057611e00611dd3565b92915050565b600082611e2357634e487b7160e01b600052601260045260246000fd5b500490565b600060208284031215611e3a57600080fd5b81518015158114611c4c57600080fd5b600060018201611e5c57611e5c611dd3565b5060010190565b600060208284031215611e7557600080fd5b8151611c4c81611b4d565b6000825160005b81811015611ea15760208186018101518583015201611e87565b506000920191825250919050565b600060208284031215611ec157600080fd5b5051919050565b6000808335601e19843603018112611edf57600080fd5b83018035915067ffffffffffffffff821115611efa57600080fd5b602001915036819003821315611b4657600080fd5b80820180821115611e0057611e00611dd3565b634e487b7160e01b600052604160045260246000fd5b81516001600160a01b03908116825260208084015182169083015260408084015162ffffff16908301526060808401518216908301526080808401519083015260a0838101519083015260c0808401519083015260e09283015116918101919091526101000190565b634e487b7160e01b600052602160045260246000fd5b600081518084526020808501945080840160005b83811015611ff05781516001600160a01b031687529582019590820190600101611fcb565b509495945050505050565b805160608084528151908401819052600091602091908201906080860190845b818110156120375783518352928401929184019160010161201b565b50508483015186820387850152805180835290840192506000918401905b808310156120935783516003811061207d57634e487b7160e01b600052602160045260246000fd5b8252928401926001929092019190840190612055565b506040860151935086810360408801526120ad8185611fb7565b979650505050505050565b8481526080602082015260006120d16080830186611ffb565b6001600160a01b03949094166040830152506060015292915050565b85815284602082015260a06040820152600061210c60a0830186611ffb565b6001600160a01b0394909416606083015250608001529392505050565b8481526080602082015260006120d16080830186611fb7565b6000602080838503121561215557600080fd5b825167ffffffffffffffff8082111561216d57600080fd5b818501915085601f83011261218157600080fd5b81518181111561219357612193611f22565b8060051b604051601f19603f830116810181811085821117156121b8576121b8611f22565b6040529182528482019250838101850191888311156121d657600080fd5b938501935b8285101561160a578451845293850193928501926121db565b85815284602082015260a06040820152600061210c60a0830186611fb756fea2646970667358221220aeeabed4c4ced10cdf47da9fa931014b650ef62c5378078233a66b73fbad74f864736f6c63430008120033",
  "linkReferences": {},
  "deployedLinkReferences": {}
}