{
  "_format": "hh-sol-artifact-1",
  "contractName": "IbAggregatorRouter",
  "sourceName": "contracts/ibaggregator.sol",
  "abi": [
    {
      "inputs": [
        {
          "internalType": "address",
          "name": "receipt",
          "type": "address"
        }
      ],
      "stateMutability": "nonpayable",
      "type": "constructor"
    },
    {
      "inputs": [
        {
          "internalType": "uint256",
          "name": "platform",
          "type": "uint256"
        }
      ],
      "name": "ExecutionFailed",
      "type": "error"
    },
    {
      "inputs": [],
      "name": "LengthMismatch",
      "type": "error"
    },
    {
      "inputs": [],
      "name": "TransactionDeadlinePassed",
      "type": "error"
    },
    {
      "inputs": [],
      "name": "FEERATE",
      "outputs": [
        {
          "internalType": "uint16",
          "name": "",
          "type": "uint16"
        }
      ],
      "stateMutability": "view",
      "type": "function"
    },
    {
      "inputs": [],
      "name": "PERCENT",
      "outputs": [
        {
          "internalType": "uint16",
          "name": "",
          "type": "uint16"
        }
      ],
      "stateMutability": "view",
      "type": "function"
    },
    {
      "inputs": [],
      "name": "acceptSetter",
      "outputs": [],
      "stateMutability": "nonpayable",
      "type": "function"
    },
    {
      "inputs": [
        {
          "internalType": "uint8",
          "name": "platform",
          "type": "uint8"
        },
        {
          "internalType": "address",
          "name": "router",
          "type": "address"
        }
      ],
      "name": "addRouter",
      "outputs": [],
      "stateMutability": "nonpayable",
      "type": "function"
    },
    {
      "inputs": [
        {
          "internalType": "address[]",
          "name": "tokens",
          "type": "address[]"
        }
      ],
      "name": "approve",
      "outputs": [],
      "stateMutability": "nonpayable",
      "type": "function"
    },
    {
      "inputs": [
        {
          "internalType": "address[]",
          "name": "tokenIns",
          "type": "address[]"
        },
        {
          "internalType": "uint8[]",
          "name": "counts",
          "type": "uint8[]"
        },
        {
          "internalType": "bytes[]",
          "name": "inputs",
          "type": "bytes[]"
        },
        {
          "internalType": "uint256",
          "name": "amountIn",
          "type": "uint256"
        },
        {
          "internalType": "uint256",
          "name": "deadline",
          "type": "uint256"
        }
      ],
      "name": "execute",
      "outputs": [],
      "stateMutability": "payable",
      "type": "function"
    },
    {
      "inputs": [
        {
          "internalType": "address[]",
          "name": "tokenIns",
          "type": "address[]"
        },
        {
          "internalType": "uint8[]",
          "name": "counts",
          "type": "uint8[]"
        },
        {
          "internalType": "bytes[]",
          "name": "inputs",
          "type": "bytes[]"
        },
        {
          "internalType": "uint256",
          "name": "deadline",
          "type": "uint256"
        }
      ],
      "name": "executeEth",
      "outputs": [],
      "stateMutability": "payable",
      "type": "function"
    },
    {
      "inputs": [],
      "name": "feeReceipt",
      "outputs": [
        {
          "internalType": "address",
          "name": "",
          "type": "address"
        }
      ],
      "stateMutability": "view",
      "type": "function"
    },
    {
      "inputs": [],
      "name": "owner",
      "outputs": [
        {
          "internalType": "address",
          "name": "",
          "type": "address"
        }
      ],
      "stateMutability": "view",
      "type": "function"
    },
    {
      "inputs": [
        {
          "internalType": "uint8",
          "name": "",
          "type": "uint8"
        }
      ],
      "name": "swapRouters",
      "outputs": [
        {
          "internalType": "address",
          "name": "router",
          "type": "address"
        },
        {
          "internalType": "address",
          "name": "weth",
          "type": "address"
        }
      ],
      "stateMutability": "view",
      "type": "function"
    },
    {
      "inputs": [
        {
          "internalType": "address",
          "name": "_owner",
          "type": "address"
        }
      ],
      "name": "transferOwner",
      "outputs": [],
      "stateMutability": "nonpayable",
      "type": "function"
    }
  ],
  "bytecode": "0x60a060405234801561001057600080fd5b50604051611bed380380611bed83398101604081905261002f91610052565b600080546001600160a01b031916331790556001600160a01b0316608052610082565b60006020828403121561006457600080fd5b81516001600160a01b038116811461007b57600080fd5b9392505050565b608051611b426100ab6000396000818161010a0152818161052b01526109570152611b426000f3fe60806040526004361061009c5760003560e01c80638da5cb5b116100645780638da5cb5b146101aa578063984c068a146101ca578063b85a8b20146101dd578063e275063514610206578063f3b4814214610226578063fcc07a8c1461023957600080fd5b80634fb2e45d146100a15780635f8e422f146100c357806377a1736b146100d85780637ff593b6146100f85780638c09fd3414610149575b600080fd5b3480156100ad57600080fd5b506100c16100bc36600461154f565b61024e565b005b3480156100cf57600080fd5b506100c16102bb565b3480156100e457600080fd5b506100c16100f33660046115bf565b610328565b34801561010457600080fd5b5061012c7f000000000000000000000000000000000000000000000000000000000000000081565b6040516001600160a01b0390911681526020015b60405180910390f35b34801561015557600080fd5b5061018a610164366004611617565b600260205260009081526040902080546001909101546001600160a01b03918216911682565b604080516001600160a01b03938416815292909116602083015201610140565b3480156101b657600080fd5b5060005461012c906001600160a01b031681565b6100c16101d8366004611632565b610436565b3480156101e957600080fd5b506101f361271081565b60405161ffff9091168152602001610140565b34801561021257600080fd5b506100c16102213660046116db565b610705565b6100c1610234366004611712565b6108be565b34801561024557600080fd5b506101f3600a81565b6000546001600160a01b031633146102995760405162461bcd60e51b81526020600482015260096024820152683337b93134b23232b760b91b60448201526064015b60405180910390fd5b600180546001600160a01b0319166001600160a01b0392909216919091179055565b6001546001600160a01b031633146103015760405162461bcd60e51b81526020600482015260096024820152683337b93134b23232b760b91b6044820152606401610290565b60018054600080546001600160a01b03199081166001600160a01b03841617909155169055565b600354819060005b8281101561042f5760005b8281101561041c57858583818110610355576103556117b5565b905060200201602081019061036a919061154f565b6001600160a01b031663095ea7b36003838154811061038b5761038b6117b5565b60009182526020909120015460405160e083901b6001600160e01b03191681526001600160a01b03909116600482015260001960248201526044016020604051808303816000875af11580156103e5573d6000803e3d6000fd5b505050506040513d601f19601f8201168201806040525081019061040991906117cb565b508061041481611803565b91505061033b565b508061042781611803565b915050610330565b5050505050565b808042111561045857604051632dfb7c8b60e11b815260040160405180910390fd5b8786811461047c576040516001621398b960e31b0319815260040160405180910390fd5b6104af8a8a6000818110610492576104926117b5565b90506020020160208101906104a7919061154f565b333087610be0565b6001888860008181106104c4576104c46117b5565b90506020020160208101906104d99190611617565b60ff1611156105525760006127106104f2600a8761181c565b6104fc9190611839565b90506105508b8b6000818110610514576105146117b5565b9050602002016020810190610529919061154f565b7f000000000000000000000000000000000000000000000000000000000000000083610cea565b505b6000805b828110156106f75760008c8c83818110610572576105726117b5565b9050602002016020810190610587919061154f565b6001600160a01b03160361059d57479550610631565b8b8b828181106105af576105af6117b5565b90506020020160208101906105c4919061154f565b6040516370a0823160e01b81523060048201526001600160a01b0391909116906370a0823190602401602060405180830381865afa15801561060a573d6000803e3d6000fd5b505050506040513d601f19601f8201168201806040525081019061062e919061185b565b95505b60005b8a8a83818110610646576106466117b5565b905060200201602081019061065b9190611617565b60ff168110156106e4573660008a8a8681811061067a5761067a6117b5565b905060200281019061068c9190611874565b915091506106c28f8f868181106106a5576106a56117b5565b90506020020160208101906106ba919061154f565b8a8484610de3565b846106cc81611803565b955050505080806106dc90611803565b915050610634565b50806106ef81611803565b915050610556565b505050505050505050505050565b6000546001600160a01b0316331461074a5760405162461bcd60e51b81526020600482015260086024820152673337b93134b232b760c11b6044820152606401610290565b6000600f8360ff1611156107c157816001600160a01b0316634aa4a4fc6040518163ffffffff1660e01b8152600401602060405180830381865afa158015610796573d6000803e3d6000fd5b505050506040513d601f19601f820116820180604052508101906107ba91906118bb565b9050610826565b816001600160a01b031663ad5c46486040518163ffffffff1660e01b8152600401602060405180830381865afa1580156107ff573d6000803e3d6000fd5b505050506040513d601f19601f8201168201806040525081019061082391906118bb565b90505b6040805180820182526001600160a01b03938416808252928416602080830191825260ff90961660009081526002909652918520905181549085166001600160a01b031991821617825591516001918201805491909516908316179093556003805493840181559093527fc2575a0e9e593c00f959f8c92f12db2869c3395a3b0502d05e2516446f71f85b9091018054909216179055565b80804211156108e057604051632dfb7c8b60e11b815260040160405180910390fd5b86858114610904576040516001621398b960e31b0319815260040160405180910390fd5b3460018888600081610918576109186117b5565b905060200201602081019061092d9190611617565b60ff16111561098a576000612710610946600a8461181c565b6109509190611839565b905061097c7f00000000000000000000000000000000000000000000000000000000000000008261148f565b61098681836118d8565b9150505b60005b888860008181106109a0576109a06117b5565b90506020020160208101906109b59190611617565b60ff16811015610a0c573660008888848181106109d4576109d46117b5565b90506020028101906109e69190611874565b915091506109f76000858484610de3565b50508080610a0490611803565b91505061098d565b50600088886000818110610a2257610a226117b5565b9050602002016020810190610a379190611617565b60ff16905060015b838110156106f75760008c8c83818110610a5b57610a5b6117b5565b9050602002016020810190610a70919061154f565b6001600160a01b031603610a8657479250610b1a565b8b8b82818110610a9857610a986117b5565b9050602002016020810190610aad919061154f565b6040516370a0823160e01b81523060048201526001600160a01b0391909116906370a0823190602401602060405180830381865afa158015610af3573d6000803e3d6000fd5b505050506040513d601f19601f82011682018060405250810190610b17919061185b565b92505b60005b8a8a83818110610b2f57610b2f6117b5565b9050602002016020810190610b449190611617565b60ff16811015610bcd573660008a8a86818110610b6357610b636117b5565b9050602002810190610b759190611874565b91509150610bab8f8f86818110610b8e57610b8e6117b5565b9050602002016020810190610ba3919061154f565b878484610de3565b84610bb581611803565b95505050508080610bc590611803565b915050610b1d565b5080610bd881611803565b915050610a3f565b604080516001600160a01b0385811660248301528481166044830152606480830185905283518084039091018152608490920183526020820180516001600160e01b03166323b872dd60e01b1790529151600092839290881691610c4491906118eb565b6000604051808303816000865af19150503d8060008114610c81576040519150601f19603f3d011682016040523d82523d6000602084013e610c86565b606091505b5091509150818015610cb0575080511580610cb0575080806020019051810190610cb091906117cb565b610ce25760405162461bcd60e51b815260206004820152600360248201526229aa2360e91b6044820152606401610290565b505050505050565b604080516001600160a01b038481166024830152604480830185905283518084039091018152606490920183526020820180516001600160e01b031663a9059cbb60e01b1790529151600092839290871691610d4691906118eb565b6000604051808303816000865af19150503d8060008114610d83576040519150601f19603f3d011682016040523d82523d6000602084013e610d88565b606091505b5091509150818015610db2575080511580610db2575080806020019051810190610db291906117cb565b61042f5760405162461bcd60e51b815260206004820152600260248201526114d560f21b6044820152606401610290565b813560ff8116600090815260026020908152604091829020825180840190935280546001600160a01b039081168085526001909201541691830191909152610e5d5760405162461bcd60e51b815260206004820152600d60248201526c191bdb89dd081cdd5c1c1bdc9d609a1b6044820152606401610290565b600f8260ff161115611185576020840135604085013560608601356080870135612710610e8e61ffff83168b61181c565b610e989190611839565b98506001600160a01b038416610fd057845160408051610100810182526001600160a01b038d811682526020808a015182169083015262ffffff871682840152600060608301819052600019608084015260a083018e905260c0830181905260e08301819052925163414bf38960e01b81529293169163414bf38991610f209160040161191a565b6020604051808303816000875af1158015610f3f573d6000803e3d6000fd5b505050506040513d601f19601f82011682018060405250810190610f63919061185b565b865160405163125012df60e21b8152600481018390526001600160a01b0386811660248301529293509116906349404b7c90604401600060405180830381600087803b158015610fb257600080fd5b505af1158015610fc6573d6000803e3d6000fd5b505050505061117c565b6001600160a01b038a166110c25784600001516001600160a01b031663414bf3898a60405180610100016040528089602001516001600160a01b03168152602001886001600160a01b031681526020018762ffffff168152602001866001600160a01b0316815260200160001981526020018d81526020016000815260200160006001600160a01b03168152506040518363ffffffff1660e01b8152600401611079919061191a565b60206040518083038185885af1158015611097573d6000803e3d6000fd5b50505050506040513d601f19601f820116820180604052508101906110bc919061185b565b5061117c565b845160408051610100810182526001600160a01b038d81168252878116602083015262ffffff8716828401528581166060830152600019608083015260a082018d9052600060c0830181905260e0830152915163414bf38960e01b8152919092169163414bf38991611137919060040161191a565b6020604051808303816000875af1158015611156573d6000803e3d6000fd5b505050506040513d601f19601f8201168201806040525081019061117a919061185b565b505b50505050610ce2565b60408401356020850135606086013560808701356127106111a960ff83168b61181c565b6111b39190611839565b604080516002808252606082018352929b5060009290916020830190803683370190505090506001600160a01b038b166112c6578560200151816000815181106111ff576111ff6117b5565b60200260200101906001600160a01b031690816001600160a01b0316815250508481600181518110611233576112336117b5565b6001600160a01b0392831660209182029290920101528651604051637ff36ab560e01b8152911690637ff36ab5908c9061127990889086908990600019906004016119dd565b60006040518083038185885af1158015611297573d6000803e3d6000fd5b50505050506040513d6000823e601f3d908101601f191682016040526112c09190810190611a12565b50611482565b6001600160a01b0385166113ad578a816000815181106112e8576112e86117b5565b60200260200101906001600160a01b031690816001600160a01b031681525050856020015181600181518110611320576113206117b5565b6001600160a01b03928316602091820292909201015286516040516318cbafe560e01b81529116906318cbafe590611366908d9088908690899060001990600401611ad0565b6000604051808303816000875af1158015611385573d6000803e3d6000fd5b505050506040513d6000823e601f3d908101601f191682016040526112c09190810190611a12565b8a816000815181106113c1576113c16117b5565b60200260200101906001600160a01b031690816001600160a01b03168152505084816001815181106113f5576113f56117b5565b6001600160a01b03928316602091820292909201015286516040516338ed173960e01b81529116906338ed17399061143b908d9088908690899060001990600401611ad0565b6000604051808303816000875af115801561145a573d6000803e3d6000fd5b505050506040513d6000823e601f3d908101601f191682016040526106f79190810190611a12565b5050505050505050505050565b604080516000808252602082019092526001600160a01b0384169083906040516114b991906118eb565b60006040518083038185875af1925050503d80600081146114f6576040519150601f19603f3d011682016040523d82523d6000602084013e6114fb565b606091505b50509050806115325760405162461bcd60e51b815260206004820152600360248201526253544560e81b6044820152606401610290565b505050565b6001600160a01b038116811461154c57600080fd5b50565b60006020828403121561156157600080fd5b813561156c81611537565b9392505050565b60008083601f84011261158557600080fd5b50813567ffffffffffffffff81111561159d57600080fd5b6020830191508360208260051b85010111156115b857600080fd5b9250929050565b600080602083850312156115d257600080fd5b823567ffffffffffffffff8111156115e957600080fd5b6115f585828601611573565b90969095509350505050565b803560ff8116811461161257600080fd5b919050565b60006020828403121561162957600080fd5b61156c82611601565b60008060008060008060008060a0898b03121561164e57600080fd5b883567ffffffffffffffff8082111561166657600080fd5b6116728c838d01611573565b909a50985060208b013591508082111561168b57600080fd5b6116978c838d01611573565b909850965060408b01359150808211156116b057600080fd5b506116bd8b828c01611573565b999c989b509699959896976060870135966080013595509350505050565b600080604083850312156116ee57600080fd5b6116f783611601565b9150602083013561170781611537565b809150509250929050565b60008060008060008060006080888a03121561172d57600080fd5b873567ffffffffffffffff8082111561174557600080fd5b6117518b838c01611573565b909950975060208a013591508082111561176a57600080fd5b6117768b838c01611573565b909750955060408a013591508082111561178f57600080fd5b5061179c8a828b01611573565b989b979a50959894979596606090950135949350505050565b634e487b7160e01b600052603260045260246000fd5b6000602082840312156117dd57600080fd5b8151801515811461156c57600080fd5b634e487b7160e01b600052601160045260246000fd5b600060018201611815576118156117ed565b5060010190565b8082028115828204841417611833576118336117ed565b92915050565b60008261185657634e487b7160e01b600052601260045260246000fd5b500490565b60006020828403121561186d57600080fd5b5051919050565b6000808335601e1984360301811261188b57600080fd5b83018035915067ffffffffffffffff8211156118a657600080fd5b6020019150368190038213156115b857600080fd5b6000602082840312156118cd57600080fd5b815161156c81611537565b81810381811115611833576118336117ed565b6000825160005b8181101561190c57602081860181015185830152016118f2565b506000920191825250919050565b81516001600160a01b03908116825260208084015182169083015260408084015162ffffff16908301526060808401518216908301526080808401519083015260a0838101519083015260c0808401519083015260e09283015116918101919091526101000190565b634e487b7160e01b600052604160045260246000fd5b600081518084526020808501945080840160005b838110156119d25781516001600160a01b0316875295820195908201906001016119ad565b509495945050505050565b8481526080602082015260006119f66080830186611999565b6001600160a01b03949094166040830152506060015292915050565b60006020808385031215611a2557600080fd5b825167ffffffffffffffff80821115611a3d57600080fd5b818501915085601f830112611a5157600080fd5b815181811115611a6357611a63611983565b8060051b604051601f19603f83011681018181108582111715611a8857611a88611983565b604052918252848201925083810185019188831115611aa657600080fd5b938501935b82851015611ac457845184529385019392850192611aab565b98975050505050505050565b85815284602082015260a060408201526000611aef60a0830186611999565b6001600160a01b039490941660608301525060800152939250505056fea26469706673582212201a4939312a94bf0952c7ed77772e4176645b956bae2ca1db41f56f9f9b02f90364736f6c63430008120033",
  "linkReferences": {},
  "deployedLinkReferences": {}
}