{
  "_format": "hh-sol-artifact-1",
  "contractName": "IbAggregatorRouter",
  "sourceName": "contracts/ibaggregator.sol",
  "abi": [
    {
      "inputs": [],
      "stateMutability": "nonpayable",
      "type": "constructor"
    },
    {
      "inputs": [
        {
          "internalType": "uint256",
          "name": "platform",
          "type": "uint256"
        }
      ],
      "name": "ExecutionFailed",
      "type": "error"
    },
    {
      "inputs": [],
      "name": "LengthMismatch",
      "type": "error"
    },
    {
      "inputs": [],
      "name": "TransactionDeadlinePassed",
      "type": "error"
    },
    {
      "inputs": [],
      "name": "acceptSetter",
      "outputs": [],
      "stateMutability": "nonpayable",
      "type": "function"
    },
    {
      "inputs": [
        {
          "internalType": "uint8",
          "name": "platform",
          "type": "uint8"
        },
        {
          "internalType": "address",
          "name": "router",
          "type": "address"
        }
      ],
      "name": "addRouter",
      "outputs": [],
      "stateMutability": "nonpayable",
      "type": "function"
    },
    {
      "inputs": [
        {
          "internalType": "address[]",
          "name": "tokens",
          "type": "address[]"
        }
      ],
      "name": "approve",
      "outputs": [],
      "stateMutability": "nonpayable",
      "type": "function"
    },
    {
      "inputs": [
        {
          "internalType": "address[]",
          "name": "tokenIns",
          "type": "address[]"
        },
        {
          "internalType": "uint8[]",
          "name": "counts",
          "type": "uint8[]"
        },
        {
          "internalType": "bytes[]",
          "name": "inputs",
          "type": "bytes[]"
        },
        {
          "internalType": "uint256",
          "name": "amountIn",
          "type": "uint256"
        },
        {
          "internalType": "uint256",
          "name": "deadline",
          "type": "uint256"
        }
      ],
      "name": "execute",
      "outputs": [],
      "stateMutability": "nonpayable",
      "type": "function"
    },
    {
      "inputs": [
        {
          "internalType": "address[]",
          "name": "tokenIns",
          "type": "address[]"
        },
        {
          "internalType": "uint8[]",
          "name": "counts",
          "type": "uint8[]"
        },
        {
          "internalType": "bytes[]",
          "name": "inputs",
          "type": "bytes[]"
        },
        {
          "internalType": "uint256",
          "name": "deadline",
          "type": "uint256"
        }
      ],
      "name": "executeEth",
      "outputs": [],
      "stateMutability": "payable",
      "type": "function"
    },
    {
      "inputs": [],
      "name": "owner",
      "outputs": [
        {
          "internalType": "address",
          "name": "",
          "type": "address"
        }
      ],
      "stateMutability": "view",
      "type": "function"
    },
    {
      "inputs": [
        {
          "internalType": "uint8",
          "name": "",
          "type": "uint8"
        }
      ],
      "name": "swapRouters",
      "outputs": [
        {
          "internalType": "address",
          "name": "router",
          "type": "address"
        },
        {
          "internalType": "address",
          "name": "weth",
          "type": "address"
        }
      ],
      "stateMutability": "view",
      "type": "function"
    },
    {
      "inputs": [
        {
          "internalType": "address",
          "name": "_owner",
          "type": "address"
        }
      ],
      "name": "transferOwner",
      "outputs": [],
      "stateMutability": "nonpayable",
      "type": "function"
    },
    {
      "inputs": [
        {
          "internalType": "address",
          "name": "token",
          "type": "address"
        },
        {
          "internalType": "address",
          "name": "to",
          "type": "address"
        },
        {
          "internalType": "uint256",
          "name": "amount",
          "type": "uint256"
        }
      ],
      "name": "withdrawERC20",
      "outputs": [],
      "stateMutability": "nonpayable",
      "type": "function"
    },
    {
      "inputs": [
        {
          "internalType": "address",
          "name": "to",
          "type": "address"
        },
        {
          "internalType": "uint256",
          "name": "amount",
          "type": "uint256"
        }
      ],
      "name": "withdrawETH",
      "outputs": [],
      "stateMutability": "nonpayable",
      "type": "function"
    }
  ],
  "bytecode": "0x608060405234801561001057600080fd5b50600080546001600160a01b03191633179055611982806100326000396000f3fe6080604052600436106100915760003560e01c80638c09fd34116100595780638c09fd341461012d5780638da5cb5b14610193578063984c068a146101cb578063e2750635146101eb578063f3b481421461020b57600080fd5b806344004cc1146100965780634782f779146100b85780634fb2e45d146100d85780635f8e422f146100f857806377a1736b1461010d575b600080fd5b3480156100a257600080fd5b506100b66100b1366004611313565b61021e565b005b3480156100c457600080fd5b506100b66100d3366004611354565b610261565b3480156100e457600080fd5b506100b66100f3366004611380565b61031a565b34801561010457600080fd5b506100b6610382565b34801561011957600080fd5b506100b66101283660046113f0565b6103ef565b34801561013957600080fd5b5061016e610148366004611448565b600260205260009081526040902080546001909101546001600160a01b03918216911682565b604080516001600160a01b039384168152929091166020830152015b60405180910390f35b34801561019f57600080fd5b506000546101b3906001600160a01b031681565b6040516001600160a01b03909116815260200161018a565b3480156101d757600080fd5b506100b66101e6366004611463565b6104fd565b3480156101f757600080fd5b506100b661020636600461150c565b6106e9565b6100b6610219366004611543565b61084e565b6000546001600160a01b031633146102515760405162461bcd60e51b8152600401610248906115e6565b60405180910390fd5b61025c838383610aab565b505050565b6000546001600160a01b0316331461028b5760405162461bcd60e51b8152600401610248906115e6565b6000826001600160a01b03168260405160006040518083038185875af1925050503d80600081146102d8576040519150601f19603f3d011682016040523d82523d6000602084013e6102dd565b606091505b505090508061025c5760405162461bcd60e51b815260206004820152600960248201526821776974686472617760b81b6044820152606401610248565b6000546001600160a01b031633146103605760405162461bcd60e51b81526020600482015260096024820152683337b93134b23232b760b91b6044820152606401610248565b600180546001600160a01b0319166001600160a01b0392909216919091179055565b6001546001600160a01b031633146103c85760405162461bcd60e51b81526020600482015260096024820152683337b93134b23232b760b91b6044820152606401610248565b60018054600080546001600160a01b03199081166001600160a01b03841617909155169055565b600354819060005b828110156104f65760005b828110156104e35785858381811061041c5761041c611608565b90506020020160208101906104319190611380565b6001600160a01b031663095ea7b36003838154811061045257610452611608565b60009182526020909120015460405160e083901b6001600160e01b03191681526001600160a01b03909116600482015260001960248201526044016020604051808303816000875af11580156104ac573d6000803e3d6000fd5b505050506040513d601f19601f820116820180604052508101906104d0919061161e565b50806104db81611656565b915050610402565b50806104ee81611656565b9150506103f7565b5050505050565b808042111561051f57604051632dfb7c8b60e11b815260040160405180910390fd5b87868114610543576040516001621398b960e31b0319815260040160405180910390fd5b6105768a8a600081811061055957610559611608565b905060200201602081019061056e9190611380565b333087610ba4565b6000805b828110156106db578b8b8281811061059457610594611608565b90506020020160208101906105a99190611380565b6040516370a0823160e01b81523060048201526001600160a01b0391909116906370a0823190602401602060405180830381865afa1580156105ef573d6000803e3d6000fd5b505050506040513d601f19601f82011682018060405250810190610613919061166f565b955060005b8a8a8381811061062a5761062a611608565b905060200201602081019061063f9190611448565b60ff168110156106c8573660008a8a8681811061065e5761065e611608565b90506020028101906106709190611688565b915091506106a68f8f8681811061068957610689611608565b905060200201602081019061069e9190611380565b8a8484610cae565b846106b081611656565b955050505080806106c090611656565b915050610618565b50806106d381611656565b91505061057a565b505050505050505050505050565b6000546001600160a01b031633146107135760405162461bcd60e51b8152600401610248906115e6565b6000600f8360ff16111561078a57816001600160a01b0316634aa4a4fc6040518163ffffffff1660e01b8152600401602060405180830381865afa15801561075f573d6000803e3d6000fd5b505050506040513d601f19601f8201168201806040525081019061078391906116cf565b90506107ef565b816001600160a01b031663ad5c46486040518163ffffffff1660e01b8152600401602060405180830381865afa1580156107c8573d6000803e3d6000fd5b505050506040513d601f19601f820116820180604052508101906107ec91906116cf565b90505b6040805180820182526001600160a01b039384168152918316602080840191825260ff909516600090815260029095529320905181549083166001600160a01b0319918216178255925160019091018054919092169216919091179055565b808042111561087057604051632dfb7c8b60e11b815260040160405180910390fd5b86858114610894576040516001621398b960e31b0319815260040160405180910390fd5b3460005b888860008181106108ab576108ab611608565b90506020020160208101906108c09190611448565b60ff16811015610917573660008888848181106108df576108df611608565b90506020028101906108f19190611688565b915091506109026000858484610cae565b5050808061090f90611656565b915050610898565b5060008888600081811061092d5761092d611608565b90506020020160208101906109429190611448565b60ff16905060015b838110156106db578b8b8281811061096457610964611608565b90506020020160208101906109799190611380565b6040516370a0823160e01b81523060048201526001600160a01b0391909116906370a0823190602401602060405180830381865afa1580156109bf573d6000803e3d6000fd5b505050506040513d601f19601f820116820180604052508101906109e3919061166f565b925060005b8a8a838181106109fa576109fa611608565b9050602002016020810190610a0f9190611448565b60ff16811015610a98573660008a8a86818110610a2e57610a2e611608565b9050602002810190610a409190611688565b91509150610a768f8f86818110610a5957610a59611608565b9050602002016020810190610a6e9190611380565b878484610cae565b84610a8081611656565b95505050508080610a9090611656565b9150506109e8565b5080610aa381611656565b91505061094a565b604080516001600160a01b038481166024830152604480830185905283518084039091018152606490920183526020820180516001600160e01b031663a9059cbb60e01b1790529151600092839290871691610b0791906116ec565b6000604051808303816000865af19150503d8060008114610b44576040519150601f19603f3d011682016040523d82523d6000602084013e610b49565b606091505b5091509150818015610b73575080511580610b73575080806020019051810190610b73919061161e565b6104f65760405162461bcd60e51b815260206004820152600260248201526114d560f21b6044820152606401610248565b604080516001600160a01b0385811660248301528481166044830152606480830185905283518084039091018152608490920183526020820180516001600160e01b03166323b872dd60e01b1790529151600092839290881691610c0891906116ec565b6000604051808303816000865af19150503d8060008114610c45576040519150601f19603f3d011682016040523d82523d6000602084013e610c4a565b606091505b5091509150818015610c74575080511580610c74575080806020019051810190610c74919061161e565b610ca65760405162461bcd60e51b815260206004820152600360248201526229aa2360e91b6044820152606401610248565b505050505050565b813560ff8116600090815260026020908152604091829020825180840190935280546001600160a01b039081168085526001909201541691830191909152610d285760405162461bcd60e51b815260206004820152600d60248201526c191bdb89dd081cdd5c1c1bdc9d609a1b6044820152606401610248565b600f8260ff161115610fc65760208401356040850135606086013560808701356001600160a01b038a16610d5e57846020015199505b6001600160a01b038416610ecd57600085600001516001600160a01b031663414bf3896040518061010001604052808e6001600160a01b0316815260200189602001516001600160a01b031681526020018762ffffff16815260200160006001600160a01b03168152602001600019815260200160648660ff168f610de3919061171b565b610ded9190611738565b8152600060208201819052604091820152516001600160e01b031960e084901b168152610e1d919060040161175a565b6020604051808303816000875af1158015610e3c573d6000803e3d6000fd5b505050506040513d601f19601f82011682018060405250810190610e60919061166f565b865160405163125012df60e21b8152600481018390526001600160a01b0386811660248301529293509116906349404b7c90604401600060405180830381600087803b158015610eaf57600080fd5b505af1158015610ec3573d6000803e3d6000fd5b5050505050610fbd565b84600001516001600160a01b031663414bf3896040518061010001604052808d6001600160a01b03168152602001876001600160a01b031681526020018662ffffff16815260200160006001600160a01b03168152602001600019815260200160648560ff168e610f3e919061171b565b610f489190611738565b8152600060208201819052604091820152516001600160e01b031960e084901b168152610f78919060040161175a565b6020604051808303816000875af1158015610f97573d6000803e3d6000fd5b505050506040513d601f19601f82011682018060405250810190610fbb919061166f565b505b50505050610ca6565b60408051600280825260608281018452928701359260208801359290880135916080890135916000918160200160208202803683370190505090506001600160a01b038b166111045785602001518160008151811061102757611027611608565b60200260200101906001600160a01b031690816001600160a01b031681525050848160018151811061105b5761105b611608565b6001600160a01b039283166020918202929092010152865116637ff36ab5606461108860ff86168e61171b565b6110929190611738565b8684876000196040518663ffffffff1660e01b81526004016110b7949392919061181d565b60006040518083038185885af11580156110d5573d6000803e3d6000fd5b50505050506040513d6000823e601f3d908101601f191682016040526110fe9190810190611852565b506112ee565b6001600160a01b038516611202578a8160008151811061112657611126611608565b60200260200101906001600160a01b031690816001600160a01b03168152505085602001518160018151811061115e5761115e611608565b6001600160a01b0392831660209182029290920101528651166318cbafe5606461118b60ff86168e61171b565b6111959190611738565b8684876000196040518663ffffffff1660e01b81526004016111bb959493929190611910565b6000604051808303816000875af11580156111da573d6000803e3d6000fd5b505050506040513d6000823e601f3d908101601f191682016040526110fe9190810190611852565b8a8160008151811061121657611216611608565b60200260200101906001600160a01b031690816001600160a01b031681525050848160018151811061124a5761124a611608565b6001600160a01b0392831660209182029290920101528651166338ed1739606461127760ff86168e61171b565b6112819190611738565b8684876000196040518663ffffffff1660e01b81526004016112a7959493929190611910565b6000604051808303816000875af11580156112c6573d6000803e3d6000fd5b505050506040513d6000823e601f3d908101601f191682016040526106db9190810190611852565b5050505050505050505050565b6001600160a01b038116811461131057600080fd5b50565b60008060006060848603121561132857600080fd5b8335611333816112fb565b92506020840135611343816112fb565b929592945050506040919091013590565b6000806040838503121561136757600080fd5b8235611372816112fb565b946020939093013593505050565b60006020828403121561139257600080fd5b813561139d816112fb565b9392505050565b60008083601f8401126113b657600080fd5b50813567ffffffffffffffff8111156113ce57600080fd5b6020830191508360208260051b85010111156113e957600080fd5b9250929050565b6000806020838503121561140357600080fd5b823567ffffffffffffffff81111561141a57600080fd5b611426858286016113a4565b90969095509350505050565b803560ff8116811461144357600080fd5b919050565b60006020828403121561145a57600080fd5b61139d82611432565b60008060008060008060008060a0898b03121561147f57600080fd5b883567ffffffffffffffff8082111561149757600080fd5b6114a38c838d016113a4565b909a50985060208b01359150808211156114bc57600080fd5b6114c88c838d016113a4565b909850965060408b01359150808211156114e157600080fd5b506114ee8b828c016113a4565b999c989b509699959896976060870135966080013595509350505050565b6000806040838503121561151f57600080fd5b61152883611432565b91506020830135611538816112fb565b809150509250929050565b60008060008060008060006080888a03121561155e57600080fd5b873567ffffffffffffffff8082111561157657600080fd5b6115828b838c016113a4565b909950975060208a013591508082111561159b57600080fd5b6115a78b838c016113a4565b909750955060408a01359150808211156115c057600080fd5b506115cd8a828b016113a4565b989b979a50959894979596606090950135949350505050565b6020808252600890820152673337b93134b232b760c11b604082015260600190565b634e487b7160e01b600052603260045260246000fd5b60006020828403121561163057600080fd5b8151801515811461139d57600080fd5b634e487b7160e01b600052601160045260246000fd5b60006001820161166857611668611640565b5060010190565b60006020828403121561168157600080fd5b5051919050565b6000808335601e1984360301811261169f57600080fd5b83018035915067ffffffffffffffff8211156116ba57600080fd5b6020019150368190038213156113e957600080fd5b6000602082840312156116e157600080fd5b815161139d816112fb565b6000825160005b8181101561170d57602081860181015185830152016116f3565b506000920191825250919050565b808202811582820484141761173257611732611640565b92915050565b60008261175557634e487b7160e01b600052601260045260246000fd5b500490565b81516001600160a01b03908116825260208084015182169083015260408084015162ffffff16908301526060808401518216908301526080808401519083015260a0838101519083015260c0808401519083015260e09283015116918101919091526101000190565b634e487b7160e01b600052604160045260246000fd5b600081518084526020808501945080840160005b838110156118125781516001600160a01b0316875295820195908201906001016117ed565b509495945050505050565b84815260806020820152600061183660808301866117d9565b6001600160a01b03949094166040830152506060015292915050565b6000602080838503121561186557600080fd5b825167ffffffffffffffff8082111561187d57600080fd5b818501915085601f83011261189157600080fd5b8151818111156118a3576118a36117c3565b8060051b604051601f19603f830116810181811085821117156118c8576118c86117c3565b6040529182528482019250838101850191888311156118e657600080fd5b938501935b82851015611904578451845293850193928501926118eb565b98975050505050505050565b85815284602082015260a06040820152600061192f60a08301866117d9565b6001600160a01b039490941660608301525060800152939250505056fea2646970667358221220a57fed4bfded75b6434c49dbfb92ac10ecfcdac6bdcf7d37946c086dbc2a8aff64736f6c63430008120033",
  "linkReferences": {},
  "deployedLinkReferences": {}
}