{
  "_format": "hh-sol-artifact-1",
  "contractName": "IbAggregatorRouter",
  "sourceName": "contracts/ibaggregator.sol",
  "abi": [
    {
      "inputs": [],
      "stateMutability": "nonpayable",
      "type": "constructor"
    },
    {
      "inputs": [
        {
          "internalType": "uint256",
          "name": "platform",
          "type": "uint256"
        }
      ],
      "name": "ExecutionFailed",
      "type": "error"
    },
    {
      "inputs": [],
      "name": "LengthMismatch",
      "type": "error"
    },
    {
      "inputs": [],
      "name": "TransactionDeadlinePassed",
      "type": "error"
    },
    {
      "inputs": [],
      "name": "acceptSetter",
      "outputs": [],
      "stateMutability": "nonpayable",
      "type": "function"
    },
    {
      "inputs": [
        {
          "internalType": "bytes1",
          "name": "platform",
          "type": "bytes1"
        },
        {
          "internalType": "address",
          "name": "router",
          "type": "address"
        }
      ],
      "name": "addRouter",
      "outputs": [],
      "stateMutability": "nonpayable",
      "type": "function"
    },
    {
      "inputs": [
        {
          "internalType": "address[]",
          "name": "tokens",
          "type": "address[]"
        }
      ],
      "name": "approve",
      "outputs": [],
      "stateMutability": "nonpayable",
      "type": "function"
    },
    {
      "inputs": [
        {
          "internalType": "address[]",
          "name": "tokenIns",
          "type": "address[]"
        },
        {
          "internalType": "uint8[]",
          "name": "counts",
          "type": "uint8[]"
        },
        {
          "internalType": "bytes[]",
          "name": "inputs",
          "type": "bytes[]"
        },
        {
          "internalType": "uint256",
          "name": "amountIn",
          "type": "uint256"
        },
        {
          "internalType": "uint256",
          "name": "deadline",
          "type": "uint256"
        }
      ],
      "name": "execute",
      "outputs": [],
      "stateMutability": "nonpayable",
      "type": "function"
    },
    {
      "inputs": [
        {
          "internalType": "address[]",
          "name": "tokenIns",
          "type": "address[]"
        },
        {
          "internalType": "uint8[]",
          "name": "counts",
          "type": "uint8[]"
        },
        {
          "internalType": "bytes[]",
          "name": "inputs",
          "type": "bytes[]"
        },
        {
          "internalType": "uint256",
          "name": "deadline",
          "type": "uint256"
        }
      ],
      "name": "executeEth",
      "outputs": [],
      "stateMutability": "payable",
      "type": "function"
    },
    {
      "inputs": [],
      "name": "owner",
      "outputs": [
        {
          "internalType": "address",
          "name": "",
          "type": "address"
        }
      ],
      "stateMutability": "view",
      "type": "function"
    },
    {
      "inputs": [
        {
          "internalType": "bytes1",
          "name": "",
          "type": "bytes1"
        }
      ],
      "name": "swapRouters",
      "outputs": [
        {
          "internalType": "address",
          "name": "router",
          "type": "address"
        },
        {
          "internalType": "address",
          "name": "weth",
          "type": "address"
        }
      ],
      "stateMutability": "view",
      "type": "function"
    },
    {
      "inputs": [
        {
          "internalType": "address",
          "name": "_owner",
          "type": "address"
        }
      ],
      "name": "transferOwner",
      "outputs": [],
      "stateMutability": "nonpayable",
      "type": "function"
    },
    {
      "inputs": [
        {
          "internalType": "address",
          "name": "token",
          "type": "address"
        },
        {
          "internalType": "address",
          "name": "to",
          "type": "address"
        },
        {
          "internalType": "uint256",
          "name": "amount",
          "type": "uint256"
        }
      ],
      "name": "withdrawERC20",
      "outputs": [],
      "stateMutability": "nonpayable",
      "type": "function"
    },
    {
      "inputs": [
        {
          "internalType": "address",
          "name": "to",
          "type": "address"
        },
        {
          "internalType": "uint256",
          "name": "amount",
          "type": "uint256"
        }
      ],
      "name": "withdrawETH",
      "outputs": [],
      "stateMutability": "nonpayable",
      "type": "function"
    }
  ],
  "bytecode": "0x608060405234801561001057600080fd5b50600080546001600160a01b031916331790556119ce806100326000396000f3fe6080604052600436106100915760003560e01c806377a1736b1161005957806377a1736b1461012d5780638da5cb5b1461014d578063984c068a1461018a578063f3b48142146101aa578063fdbdb5bb146101bd57600080fd5b806344004cc1146100965780634782f779146100b85780634fb2e45d146100d85780635f8e422f146100f85780636308ed191461010d575b600080fd5b3480156100a257600080fd5b506100b66100b1366004611335565b61021e565b005b3480156100c457600080fd5b506100b66100d3366004611376565b610261565b3480156100e457600080fd5b506100b66100f33660046113a2565b61031a565b34801561010457600080fd5b506100b6610382565b34801561011957600080fd5b506100b66101283660046113e3565b6103ef565b34801561013957600080fd5b506100b6610148366004611466565b610565565b34801561015957600080fd5b5060005461016d906001600160a01b031681565b6040516001600160a01b0390911681526020015b60405180910390f35b34801561019657600080fd5b506100b66101a53660046114a8565b610673565b6100b66101b8366004611551565b61085f565b3480156101c957600080fd5b506101fe6101d83660046115f4565b600260205260009081526040902080546001909101546001600160a01b03918216911682565b604080516001600160a01b03938416815292909116602083015201610181565b6000546001600160a01b031633146102515760405162461bcd60e51b81526004016102489061160f565b60405180910390fd5b61025c838383610abc565b505050565b6000546001600160a01b0316331461028b5760405162461bcd60e51b81526004016102489061160f565b6000826001600160a01b03168260405160006040518083038185875af1925050503d80600081146102d8576040519150601f19603f3d011682016040523d82523d6000602084013e6102dd565b606091505b505090508061025c5760405162461bcd60e51b815260206004820152600960248201526821776974686472617760b81b6044820152606401610248565b6000546001600160a01b031633146103605760405162461bcd60e51b81526020600482015260096024820152683337b93134b23232b760b91b6044820152606401610248565b600180546001600160a01b0319166001600160a01b0392909216919091179055565b6001546001600160a01b031633146103c85760405162461bcd60e51b81526020600482015260096024820152683337b93134b23232b760b91b6044820152606401610248565b60018054600080546001600160a01b03199081166001600160a01b03841617909155169055565b6000546001600160a01b031633146104195760405162461bcd60e51b81526004016102489061160f565b6000600f60f81b6001600160f81b03198416111561049a57816001600160a01b0316634aa4a4fc6040518163ffffffff1660e01b8152600401602060405180830381865afa15801561046f573d6000803e3d6000fd5b505050506040513d601f19601f820116820180604052508101906104939190611631565b90506104ff565b816001600160a01b031663ad5c46486040518163ffffffff1660e01b8152600401602060405180830381865afa1580156104d8573d6000803e3d6000fd5b505050506040513d601f19601f820116820180604052508101906104fc9190611631565b90505b6040805180820182526001600160a01b03938416815291831660208084019182526001600160f81b0319909516600090815260029095529320905181549083166001600160a01b0319918216178255925160019091018054919092169216919091179055565b600354819060005b8281101561066c5760005b82811015610659578585838181106105925761059261164e565b90506020020160208101906105a791906113a2565b6001600160a01b031663095ea7b3600383815481106105c8576105c861164e565b60009182526020909120015460405160e083901b6001600160e01b03191681526001600160a01b03909116600482015260001960248201526044016020604051808303816000875af1158015610622573d6000803e3d6000fd5b505050506040513d601f19601f820116820180604052508101906106469190611664565b50806106518161169c565b915050610578565b50806106648161169c565b91505061056d565b5050505050565b808042111561069557604051632dfb7c8b60e11b815260040160405180910390fd5b878681146106b9576040516001621398b960e31b0319815260040160405180910390fd5b6106ec8a8a60008181106106cf576106cf61164e565b90506020020160208101906106e491906113a2565b333087610bb5565b6000805b82811015610851578b8b8281811061070a5761070a61164e565b905060200201602081019061071f91906113a2565b6040516370a0823160e01b81523060048201526001600160a01b0391909116906370a0823190602401602060405180830381865afa158015610765573d6000803e3d6000fd5b505050506040513d601f19601f8201168201806040525081019061078991906116b5565b955060005b8a8a838181106107a0576107a061164e565b90506020020160208101906107b591906116ce565b60ff1681101561083e573660008a8a868181106107d4576107d461164e565b90506020028101906107e691906116f1565b9150915061081c8f8f868181106107ff576107ff61164e565b905060200201602081019061081491906113a2565b8a8484610cbf565b846108268161169c565b955050505080806108369061169c565b91505061078e565b50806108498161169c565b9150506106f0565b505050505050505050505050565b808042111561088157604051632dfb7c8b60e11b815260040160405180910390fd5b868581146108a5576040516001621398b960e31b0319815260040160405180910390fd5b3460005b888860008181106108bc576108bc61164e565b90506020020160208101906108d191906116ce565b60ff16811015610928573660008888848181106108f0576108f061164e565b905060200281019061090291906116f1565b915091506109136000858484610cbf565b505080806109209061169c565b9150506108a9565b5060008888600081811061093e5761093e61164e565b905060200201602081019061095391906116ce565b60ff16905060015b83811015610851578b8b828181106109755761097561164e565b905060200201602081019061098a91906113a2565b6040516370a0823160e01b81523060048201526001600160a01b0391909116906370a0823190602401602060405180830381865afa1580156109d0573d6000803e3d6000fd5b505050506040513d601f19601f820116820180604052508101906109f491906116b5565b925060005b8a8a83818110610a0b57610a0b61164e565b9050602002016020810190610a2091906116ce565b60ff16811015610aa9573660008a8a86818110610a3f57610a3f61164e565b9050602002810190610a5191906116f1565b91509150610a878f8f86818110610a6a57610a6a61164e565b9050602002016020810190610a7f91906113a2565b878484610cbf565b84610a918161169c565b95505050508080610aa19061169c565b9150506109f9565b5080610ab48161169c565b91505061095b565b604080516001600160a01b038481166024830152604480830185905283518084039091018152606490920183526020820180516001600160e01b031663a9059cbb60e01b1790529151600092839290871691610b189190611738565b6000604051808303816000865af19150503d8060008114610b55576040519150601f19603f3d011682016040523d82523d6000602084013e610b5a565b606091505b5091509150818015610b84575080511580610b84575080806020019051810190610b849190611664565b61066c5760405162461bcd60e51b815260206004820152600260248201526114d560f21b6044820152606401610248565b604080516001600160a01b0385811660248301528481166044830152606480830185905283518084039091018152608490920183526020820180516001600160e01b03166323b872dd60e01b1790529151600092839290881691610c199190611738565b6000604051808303816000865af19150503d8060008114610c56576040519150601f19603f3d011682016040523d82523d6000602084013e610c5b565b606091505b5091509150818015610c85575080511580610c85575080806020019051810190610c859190611664565b610cb75760405162461bcd60e51b815260206004820152600360248201526229aa2360e91b6044820152606401610248565b505050505050565b81356001600160f81b03198116600090815260026020908152604091829020825180840190935280546001600160a01b039081168085526001909201541691830191909152610d405760405162461bcd60e51b815260206004820152600d60248201526c191bdb89dd081cdd5c1c1bdc9d609a1b6044820152606401610248565b600f60f81b6001600160f81b031983161115610fe85760208401356040850135606086013560808701356001600160a01b038a16610d8057846020015199505b6001600160a01b038416610eef57600085600001516001600160a01b031663414bf3896040518061010001604052808e6001600160a01b0316815260200189602001516001600160a01b031681526020018762ffffff16815260200160006001600160a01b03168152602001600019815260200160648660ff168f610e059190611767565b610e0f9190611784565b8152600060208201819052604091820152516001600160e01b031960e084901b168152610e3f91906004016117a6565b6020604051808303816000875af1158015610e5e573d6000803e3d6000fd5b505050506040513d601f19601f82011682018060405250810190610e8291906116b5565b865160405163125012df60e21b8152600481018390526001600160a01b0386811660248301529293509116906349404b7c90604401600060405180830381600087803b158015610ed157600080fd5b505af1158015610ee5573d6000803e3d6000fd5b5050505050610fdf565b84600001516001600160a01b031663414bf3896040518061010001604052808d6001600160a01b03168152602001876001600160a01b031681526020018662ffffff16815260200160006001600160a01b03168152602001600019815260200160648560ff168e610f609190611767565b610f6a9190611784565b8152600060208201819052604091820152516001600160e01b031960e084901b168152610f9a91906004016117a6565b6020604051808303816000875af1158015610fb9573d6000803e3d6000fd5b505050506040513d601f19601f82011682018060405250810190610fdd91906116b5565b505b50505050610cb7565b60408051600280825260608281018452928701359260208801359290880135916080890135916000918160200160208202803683370190505090506001600160a01b038b16611126578560200151816000815181106110495761104961164e565b60200260200101906001600160a01b031690816001600160a01b031681525050848160018151811061107d5761107d61164e565b6001600160a01b039283166020918202929092010152865116637ff36ab560646110aa60ff86168e611767565b6110b49190611784565b8684876000196040518663ffffffff1660e01b81526004016110d99493929190611869565b60006040518083038185885af11580156110f7573d6000803e3d6000fd5b50505050506040513d6000823e601f3d908101601f19168201604052611120919081019061189e565b50611310565b6001600160a01b038516611224578a816000815181106111485761114861164e565b60200260200101906001600160a01b031690816001600160a01b0316815250508560200151816001815181106111805761118061164e565b6001600160a01b0392831660209182029290920101528651166318cbafe560646111ad60ff86168e611767565b6111b79190611784565b8684876000196040518663ffffffff1660e01b81526004016111dd95949392919061195c565b6000604051808303816000875af11580156111fc573d6000803e3d6000fd5b505050506040513d6000823e601f3d908101601f19168201604052611120919081019061189e565b8a816000815181106112385761123861164e565b60200260200101906001600160a01b031690816001600160a01b031681525050848160018151811061126c5761126c61164e565b6001600160a01b0392831660209182029290920101528651166338ed1739606461129960ff86168e611767565b6112a39190611784565b8684876000196040518663ffffffff1660e01b81526004016112c995949392919061195c565b6000604051808303816000875af11580156112e8573d6000803e3d6000fd5b505050506040513d6000823e601f3d908101601f19168201604052610851919081019061189e565b5050505050505050505050565b6001600160a01b038116811461133257600080fd5b50565b60008060006060848603121561134a57600080fd5b83356113558161131d565b925060208401356113658161131d565b929592945050506040919091013590565b6000806040838503121561138957600080fd5b82356113948161131d565b946020939093013593505050565b6000602082840312156113b457600080fd5b81356113bf8161131d565b9392505050565b80356001600160f81b0319811681146113de57600080fd5b919050565b600080604083850312156113f657600080fd5b6113ff836113c6565b9150602083013561140f8161131d565b809150509250929050565b60008083601f84011261142c57600080fd5b50813567ffffffffffffffff81111561144457600080fd5b6020830191508360208260051b850101111561145f57600080fd5b9250929050565b6000806020838503121561147957600080fd5b823567ffffffffffffffff81111561149057600080fd5b61149c8582860161141a565b90969095509350505050565b60008060008060008060008060a0898b0312156114c457600080fd5b883567ffffffffffffffff808211156114dc57600080fd5b6114e88c838d0161141a565b909a50985060208b013591508082111561150157600080fd5b61150d8c838d0161141a565b909850965060408b013591508082111561152657600080fd5b506115338b828c0161141a565b999c989b509699959896976060870135966080013595509350505050565b60008060008060008060006080888a03121561156c57600080fd5b873567ffffffffffffffff8082111561158457600080fd5b6115908b838c0161141a565b909950975060208a01359150808211156115a957600080fd5b6115b58b838c0161141a565b909750955060408a01359150808211156115ce57600080fd5b506115db8a828b0161141a565b989b979a50959894979596606090950135949350505050565b60006020828403121561160657600080fd5b6113bf826113c6565b6020808252600890820152673337b93134b232b760c11b604082015260600190565b60006020828403121561164357600080fd5b81516113bf8161131d565b634e487b7160e01b600052603260045260246000fd5b60006020828403121561167657600080fd5b815180151581146113bf57600080fd5b634e487b7160e01b600052601160045260246000fd5b6000600182016116ae576116ae611686565b5060010190565b6000602082840312156116c757600080fd5b5051919050565b6000602082840312156116e057600080fd5b813560ff811681146113bf57600080fd5b6000808335601e1984360301811261170857600080fd5b83018035915067ffffffffffffffff82111561172357600080fd5b60200191503681900382131561145f57600080fd5b6000825160005b81811015611759576020818601810151858301520161173f565b506000920191825250919050565b808202811582820484141761177e5761177e611686565b92915050565b6000826117a157634e487b7160e01b600052601260045260246000fd5b500490565b81516001600160a01b03908116825260208084015182169083015260408084015162ffffff16908301526060808401518216908301526080808401519083015260a0838101519083015260c0808401519083015260e09283015116918101919091526101000190565b634e487b7160e01b600052604160045260246000fd5b600081518084526020808501945080840160005b8381101561185e5781516001600160a01b031687529582019590820190600101611839565b509495945050505050565b8481526080602082015260006118826080830186611825565b6001600160a01b03949094166040830152506060015292915050565b600060208083850312156118b157600080fd5b825167ffffffffffffffff808211156118c957600080fd5b818501915085601f8301126118dd57600080fd5b8151818111156118ef576118ef61180f565b8060051b604051601f19603f830116810181811085821117156119145761191461180f565b60405291825284820192508381018501918883111561193257600080fd5b938501935b8285101561195057845184529385019392850192611937565b98975050505050505050565b85815284602082015260a06040820152600061197b60a0830186611825565b6001600160a01b039490941660608301525060800152939250505056fea2646970667358221220ae9fc83d8fa92e17413a67cb6e9edb0172a0e036e01c4cfc1b89ed47ac3e10f964736f6c63430008120033",
  "linkReferences": {},
  "deployedLinkReferences": {}
}