{
  "_format": "hh-sol-artifact-1",
  "contractName": "IbAggregatorRouter",
  "sourceName": "contracts/ibaggregator.sol",
  "abi": [
    {
      "inputs": [
        {
          "internalType": "address",
          "name": "receipt",
          "type": "address"
        }
      ],
      "stateMutability": "nonpayable",
      "type": "constructor"
    },
    {
      "inputs": [],
      "name": "FEERATE",
      "outputs": [
        {
          "internalType": "uint16",
          "name": "",
          "type": "uint16"
        }
      ],
      "stateMutability": "view",
      "type": "function"
    },
    {
      "inputs": [],
      "name": "PERCENT",
      "outputs": [
        {
          "internalType": "uint16",
          "name": "",
          "type": "uint16"
        }
      ],
      "stateMutability": "view",
      "type": "function"
    },
    {
      "inputs": [],
      "name": "acceptSetter",
      "outputs": [],
      "stateMutability": "nonpayable",
      "type": "function"
    },
    {
      "inputs": [
        {
          "internalType": "uint8",
          "name": "platform",
          "type": "uint8"
        },
        {
          "internalType": "address",
          "name": "router",
          "type": "address"
        }
      ],
      "name": "addRouter",
      "outputs": [],
      "stateMutability": "nonpayable",
      "type": "function"
    },
    {
      "inputs": [
        {
          "internalType": "address[]",
          "name": "tokens",
          "type": "address[]"
        }
      ],
      "name": "approve",
      "outputs": [],
      "stateMutability": "nonpayable",
      "type": "function"
    },
    {
      "inputs": [
        {
          "internalType": "address[]",
          "name": "tokenIns",
          "type": "address[]"
        },
        {
          "internalType": "uint8[]",
          "name": "counts",
          "type": "uint8[]"
        },
        {
          "internalType": "bytes[]",
          "name": "inputs",
          "type": "bytes[]"
        },
        {
          "internalType": "address",
          "name": "tokenOut",
          "type": "address"
        },
        {
          "internalType": "uint256",
          "name": "amountIn",
          "type": "uint256"
        },
        {
          "internalType": "uint256",
          "name": "amountOutMin",
          "type": "uint256"
        },
        {
          "internalType": "uint256",
          "name": "deadline",
          "type": "uint256"
        }
      ],
      "name": "executeForToken",
      "outputs": [],
      "stateMutability": "payable",
      "type": "function"
    },
    {
      "inputs": [
        {
          "internalType": "address[]",
          "name": "tokenIns",
          "type": "address[]"
        },
        {
          "internalType": "uint8[]",
          "name": "counts",
          "type": "uint8[]"
        },
        {
          "internalType": "bytes[]",
          "name": "inputs",
          "type": "bytes[]"
        },
        {
          "internalType": "address",
          "name": "tokenOut",
          "type": "address"
        },
        {
          "internalType": "uint256",
          "name": "amountOutMin",
          "type": "uint256"
        },
        {
          "internalType": "uint256",
          "name": "deadline",
          "type": "uint256"
        }
      ],
      "name": "executeFromEth",
      "outputs": [],
      "stateMutability": "payable",
      "type": "function"
    },
    {
      "inputs": [],
      "name": "feeReceipt",
      "outputs": [
        {
          "internalType": "address",
          "name": "",
          "type": "address"
        }
      ],
      "stateMutability": "view",
      "type": "function"
    },
    {
      "inputs": [],
      "name": "owner",
      "outputs": [
        {
          "internalType": "address",
          "name": "",
          "type": "address"
        }
      ],
      "stateMutability": "view",
      "type": "function"
    },
    {
      "inputs": [
        {
          "internalType": "uint8",
          "name": "",
          "type": "uint8"
        }
      ],
      "name": "swapRouters",
      "outputs": [
        {
          "internalType": "address",
          "name": "router",
          "type": "address"
        },
        {
          "internalType": "address",
          "name": "weth",
          "type": "address"
        }
      ],
      "stateMutability": "view",
      "type": "function"
    },
    {
      "inputs": [
        {
          "internalType": "address",
          "name": "_owner",
          "type": "address"
        }
      ],
      "name": "transferOwner",
      "outputs": [],
      "stateMutability": "nonpayable",
      "type": "function"
    }
  ],
  "bytecode": "0x60a06040523480156200001157600080fd5b5060405162001c9a38038062001c9a8339810160408190526200003491620001a4565b600080546001600160a01b031916331781556001600160a01b038216608052604080516312a9293f60e21b8152905173b783f05f28dfabd0d09ccb524e6c6289cb0e7c1f92918391634aa4a4fc916004808201926020929091908290030181865afa158015620000a8573d6000803e3d6000fd5b505050506040513d601f19601f82011682018060405250810190620000ce9190620001a4565b604080518082019091526001600160a01b03938416808252918416602080830191825260106000908152600290915291517f328b8e687a0a963892a735f0237cb763bbbbf8ba0c1dfe2c221debb32c4bbd8980549187166001600160a01b031992831617905590517f328b8e687a0a963892a735f0237cb763bbbbf8ba0c1dfe2c221debb32c4bbd8a805491909616908216179094556003805460018101825591527fc2575a0e9e593c00f959f8c92f12db2869c3395a3b0502d05e2516446f71f85b0180549093161790915550620001d69050565b600060208284031215620001b757600080fd5b81516001600160a01b0381168114620001cf57600080fd5b9392505050565b608051611a9a620002006000396000818161011d0152818161037701526106620152611a9a6000f3fe60806040526004361061009c5760003560e01c80638c09fd34116100645780638c09fd341461015c5780638da5cb5b146101bd5780639bf11c15146101dd578063b85a8b20146101f0578063e275063514610219578063fcc07a8c1461023957600080fd5b80634fb2e45d146100a1578063520615ee146100c35780635f8e422f146100d657806377a1736b146100eb5780637ff593b61461010b575b600080fd5b3480156100ad57600080fd5b506100c16100bc366004611469565b61024e565b005b6100c16100d13660046114d9565b6102bb565b3480156100e257600080fd5b506100c16103d0565b3480156100f757600080fd5b506100c1610106366004611599565b61043d565b34801561011757600080fd5b5061013f7f000000000000000000000000000000000000000000000000000000000000000081565b6040516001600160a01b0390911681526020015b60405180910390f35b34801561016857600080fd5b5061019d6101773660046115f1565b600260205260009081526040902080546001909101546001600160a01b03918216911682565b604080516001600160a01b03938416815292909116602083015201610153565b3480156101c957600080fd5b5060005461013f906001600160a01b031681565b6100c16101eb36600461160c565b61054b565b3480156101fc57600080fd5b5061020661271081565b60405161ffff9091168152602001610153565b34801561022557600080fd5b506100c16102343660046116d6565b6106bc565b34801561024557600080fd5b50610206600a81565b6000546001600160a01b031633146102995760405162461bcd60e51b81526020600482015260096024820152683337b93134b23232b760b91b60448201526064015b60405180910390fd5b600180546001600160a01b0319166001600160a01b0392909216919091179055565b80804211156102f75760405162461bcd60e51b8152602060048201526008602482015267646561646c696e6560c01b6044820152606401610290565b86891461033f5760405162461bcd60e51b81526020600482015260166024820152753632b733ba341037b31031b7bab73a399032b93937b960511b6044820152606401610290565b6001888860008181106103545761035461170d565b905060200201602081019061036991906115f1565b60ff1611156103b3576103b37f00000000000000000000000000000000000000000000000000000000000000006127106103a4600a34611739565b6103ae9190611756565b610875565b6103c38a8a8a8a8a8a8a8a61091d565b5050505050505050505050565b6001546001600160a01b031633146104165760405162461bcd60e51b81526020600482015260096024820152683337b93134b23232b760b91b6044820152606401610290565b60018054600080546001600160a01b03199081166001600160a01b03841617909155169055565b600354819060005b828110156105445760005b828110156105315785858381811061046a5761046a61170d565b905060200201602081019061047f9190611469565b6001600160a01b031663095ea7b3600383815481106104a0576104a061170d565b60009182526020909120015460405160e083901b6001600160e01b03191681526001600160a01b03909116600482015260001960248201526044016020604051808303816000875af11580156104fa573d6000803e3d6000fd5b505050506040513d601f19601f8201168201806040525081019061051e9190611778565b50806105298161179a565b915050610450565b508061053c8161179a565b915050610445565b5050505050565b80804211156105875760405162461bcd60e51b8152602060048201526008602482015267646561646c696e6560c01b6044820152606401610290565b878a146105cf5760405162461bcd60e51b81526020600482015260166024820152753632b733ba341037b31031b7bab73a399032b93937b960511b6044820152606401610290565b6106028b8b60008181106105e5576105e561170d565b90506020020160208101906105fa9190611469565b333087610b47565b6001898960008181106106175761061761170d565b905060200201602081019061062c91906115f1565b60ff16111561069e5761069e8b8b600081811061064b5761064b61170d565b90506020020160208101906106609190611469565b7f000000000000000000000000000000000000000000000000000000000000000061271061068f600a89611739565b6106999190611756565b610c51565b6106ae8b8b8b8b8b8b8b8a61091d565b505050505050505050505050565b6000546001600160a01b031633146107015760405162461bcd60e51b81526020600482015260086024820152673337b93134b232b760c11b6044820152606401610290565b6000600f8360ff16111561077857816001600160a01b0316634aa4a4fc6040518163ffffffff1660e01b8152600401602060405180830381865afa15801561074d573d6000803e3d6000fd5b505050506040513d601f19601f8201168201806040525081019061077191906117b3565b90506107dd565b816001600160a01b031663ad5c46486040518163ffffffff1660e01b8152600401602060405180830381865afa1580156107b6573d6000803e3d6000fd5b505050506040513d601f19601f820116820180604052508101906107da91906117b3565b90505b6040805180820182526001600160a01b03938416808252928416602080830191825260ff90961660009081526002909652918520905181549085166001600160a01b031991821617825591516001918201805491909516908316179093556003805493840181559093527fc2575a0e9e593c00f959f8c92f12db2869c3395a3b0502d05e2516446f71f85b9091018054909216179055565b604080516000808252602082019092526001600160a01b03841690839060405161089f91906117e6565b60006040518083038185875af1925050503d80600081146108dc576040519150601f19603f3d011682016040523d82523d6000602084013e6108e1565b606091505b50509050806109185760405162461bcd60e51b815260206004820152600360248201526253544560e81b6044820152606401610290565b505050565b600080805b89811015610ae9576000808c8c8481811061093f5761093f61170d565b90506020020160208101906109549190611469565b6001600160a01b0316036109695750476109fd565b8b8b8381811061097b5761097b61170d565b90506020020160208101906109909190611469565b6040516370a0823160e01b81523060048201526001600160a01b0391909116906370a0823190602401602060405180830381865afa1580156109d6573d6000803e3d6000fd5b505050506040513d601f19601f820116820180604052508101906109fa9190611815565b90505b60005b8a8a84818110610a1257610a1261170d565b9050602002016020810190610a2791906115f1565b60ff16811015610ad457600080610a888f8f87818110610a4957610a4961170d565b9050602002016020810190610a5e9190611469565b858d8d8a818110610a7157610a7161170d565b9050602002810190610a83919061182e565b610d4a565b91509150806001600160a01b0316896001600160a01b031603610ab257610aaf8288611875565b96505b85610abc8161179a565b96505050508080610acc9061179a565b915050610a00565b50508080610ae19061179a565b915050610922565b5082821015610b3a5760405162461bcd60e51b815260206004820152601760248201527f616d6f756e74206f7574206d696e2072657175697265640000000000000000006044820152606401610290565b5098975050505050505050565b604080516001600160a01b0385811660248301528481166044830152606480830185905283518084039091018152608490920183526020820180516001600160e01b03166323b872dd60e01b1790529151600092839290881691610bab91906117e6565b6000604051808303816000865af19150503d8060008114610be8576040519150601f19603f3d011682016040523d82523d6000602084013e610bed565b606091505b5091509150818015610c17575080511580610c17575080806020019051810190610c179190611778565b610c495760405162461bcd60e51b815260206004820152600360248201526229aa2360e91b6044820152606401610290565b505050505050565b604080516001600160a01b038481166024830152604480830185905283518084039091018152606490920183526020820180516001600160e01b031663a9059cbb60e01b1790529151600092839290871691610cad91906117e6565b6000604051808303816000865af19150503d8060008114610cea576040519150601f19603f3d011682016040523d82523d6000602084013e610cef565b606091505b5091509150818015610d19575080511580610d19575080806020019051810190610d199190611778565b6105445760405162461bcd60e51b815260206004820152600260248201526114d560f21b6044820152606401610290565b813560ff81166000908152600260209081526040808320815180830190925280546001600160a01b039081168084526001909201541692820192909252919283929091610dc95760405162461bcd60e51b815260206004820152600d60248201526c191bdb89dd081cdd5c1c1bdc9d609a1b6044820152606401610290565b600f8260ff1611156110f35760208601359250604086013560608701356080880135612710610dfc61ffff83168c611739565b610e069190611756565b99506001600160a01b038616610f3d57835160408051610100810182526001600160a01b038e8116825260208089015182169083015262ffffff871682840152600060608301819052600019608084015260a083018f905260c0830181905260e0830152915163414bf38960e01b8152919092169163414bf38991610e8e9190600401611888565b6020604051808303816000875af1158015610ead573d6000803e3d6000fd5b505050506040513d601f19601f82011682018060405250810190610ed19190611815565b845160405163125012df60e21b8152600481018390526001600160a01b0385811660248301529299509116906349404b7c90604401600060405180830381600087803b158015610f2057600080fd5b505af1158015610f34573d6000803e3d6000fd5b505050506110eb565b6001600160a01b038b166110305783600001516001600160a01b031663414bf3898b60405180610100016040528088602001516001600160a01b031681526020018a6001600160a01b031681526020018762ffffff168152602001866001600160a01b0316815260200160001981526020018e81526020016000815260200160006001600160a01b03168152506040518363ffffffff1660e01b8152600401610fe69190611888565b60206040518083038185885af1158015611004573d6000803e3d6000fd5b50505050506040513d601f19601f820116820180604052508101906110299190611815565b96506110eb565b835160408051610100810182526001600160a01b038e81168252898116602083015262ffffff8716828401528581166060830152600019608083015260a082018e9052600060c0830181905260e0830152915163414bf38960e01b8152919092169163414bf389916110a59190600401611888565b6020604051808303816000875af11580156110c4573d6000803e3d6000fd5b505050506040513d601f19601f820116820180604052508101906110e89190611815565b96505b505050611446565b6040860135925060208601356060870135608088013561271061111960ff83168c611739565b6111239190611756565b604080516002808252606082018352929c5060009290916020830190803683370190505090506001600160a01b038c1661125a5784602001518160008151811061116f5761116f61170d565b60200260200101906001600160a01b031690816001600160a01b03168152505086816001815181106111a3576111a361170d565b6001600160a01b0392831660209182029290920101528551604051637ff36ab560e01b81526000929190911690637ff36ab5908e906111ee90899087908a9060001990600401611935565b60006040518083038185885af115801561120c573d6000803e3d6000fd5b50505050506040513d6000823e601f3d908101601f19168201604052611235919081019061196a565b90508060008151811061124a5761124a61170d565b6020026020010151985050611441565b6001600160a01b038716611346578b8160008151811061127c5761127c61170d565b60200260200101906001600160a01b031690816001600160a01b0316815250508460200151816001815181106112b4576112b461170d565b6001600160a01b03928316602091820292909201015285516040516318cbafe560e01b815260009291909116906318cbafe5906112ff908f90899087908a9060001990600401611a28565b6000604051808303816000875af115801561131e573d6000803e3d6000fd5b505050506040513d6000823e601f3d908101601f19168201604052611235919081019061196a565b8b8160008151811061135a5761135a61170d565b60200260200101906001600160a01b031690816001600160a01b031681525050868160018151811061138e5761138e61170d565b6001600160a01b03928316602091820292909201015285516040516338ed173960e01b815260009291909116906338ed1739906113d9908f90899087908a9060001990600401611a28565b6000604051808303816000875af11580156113f8573d6000803e3d6000fd5b505050506040513d6000823e601f3d908101601f19168201604052611420919081019061196a565b9050806000815181106114355761143561170d565b60200260200101519850505b505050505b505094509492505050565b6001600160a01b038116811461146657600080fd5b50565b60006020828403121561147b57600080fd5b813561148681611451565b9392505050565b60008083601f84011261149f57600080fd5b50813567ffffffffffffffff8111156114b757600080fd5b6020830191508360208260051b85010111156114d257600080fd5b9250929050565b600080600080600080600080600060c08a8c0312156114f757600080fd5b893567ffffffffffffffff8082111561150f57600080fd5b61151b8d838e0161148d565b909b50995060208c013591508082111561153457600080fd5b6115408d838e0161148d565b909950975060408c013591508082111561155957600080fd5b506115668c828d0161148d565b90965094505060608a013561157a81611451565b8093505060808a0135915060a08a013590509295985092959850929598565b600080602083850312156115ac57600080fd5b823567ffffffffffffffff8111156115c357600080fd5b6115cf8582860161148d565b90969095509350505050565b803560ff811681146115ec57600080fd5b919050565b60006020828403121561160357600080fd5b611486826115db565b60008060008060008060008060008060e08b8d03121561162b57600080fd5b8a3567ffffffffffffffff8082111561164357600080fd5b61164f8e838f0161148d565b909c509a5060208d013591508082111561166857600080fd5b6116748e838f0161148d565b909a50985060408d013591508082111561168d57600080fd5b5061169a8d828e0161148d565b90975095505060608b01356116ae81611451565b8094505060808b0135925060a08b0135915060c08b013590509295989b9194979a5092959850565b600080604083850312156116e957600080fd5b6116f2836115db565b9150602083013561170281611451565b809150509250929050565b634e487b7160e01b600052603260045260246000fd5b634e487b7160e01b600052601160045260246000fd5b808202811582820484141761175057611750611723565b92915050565b60008261177357634e487b7160e01b600052601260045260246000fd5b500490565b60006020828403121561178a57600080fd5b8151801515811461148657600080fd5b6000600182016117ac576117ac611723565b5060010190565b6000602082840312156117c557600080fd5b815161148681611451565b634e487b7160e01b600052604160045260246000fd5b6000825160005b8181101561180757602081860181015185830152016117ed565b506000920191825250919050565b60006020828403121561182757600080fd5b5051919050565b6000808335601e1984360301811261184557600080fd5b83018035915067ffffffffffffffff82111561186057600080fd5b6020019150368190038213156114d257600080fd5b8082018082111561175057611750611723565b81516001600160a01b03908116825260208084015182169083015260408084015162ffffff16908301526060808401518216908301526080808401519083015260a0838101519083015260c0808401519083015260e09283015116918101919091526101000190565b600081518084526020808501945080840160005b8381101561192a5781516001600160a01b031687529582019590820190600101611905565b509495945050505050565b84815260806020820152600061194e60808301866118f1565b6001600160a01b03949094166040830152506060015292915050565b6000602080838503121561197d57600080fd5b825167ffffffffffffffff8082111561199557600080fd5b818501915085601f8301126119a957600080fd5b8151818111156119bb576119bb6117d0565b8060051b604051601f19603f830116810181811085821117156119e0576119e06117d0565b6040529182528482019250838101850191888311156119fe57600080fd5b938501935b82851015611a1c57845184529385019392850192611a03565b98975050505050505050565b85815284602082015260a060408201526000611a4760a08301866118f1565b6001600160a01b039490941660608301525060800152939250505056fea26469706673582212205d5e778da200371c63e11d171d4d3fe262be1903116b7c337a1430a10144bc5564736f6c63430008120033",
  "linkReferences": {},
  "deployedLinkReferences": {}
}