{
  "_format": "hh-sol-artifact-1",
  "contractName": "IbAggregatorRouter",
  "sourceName": "contracts/ibaggregator.sol",
  "abi": [
    {
      "inputs": [],
      "stateMutability": "nonpayable",
      "type": "constructor"
    },
    {
      "inputs": [
        {
          "internalType": "uint256",
          "name": "platform",
          "type": "uint256"
        }
      ],
      "name": "ExecutionFailed",
      "type": "error"
    },
    {
      "inputs": [],
      "name": "LengthMismatch",
      "type": "error"
    },
    {
      "inputs": [],
      "name": "TransactionDeadlinePassed",
      "type": "error"
    },
    {
      "inputs": [],
      "name": "PERCENT",
      "outputs": [
        {
          "internalType": "uint16",
          "name": "",
          "type": "uint16"
        }
      ],
      "stateMutability": "view",
      "type": "function"
    },
    {
      "inputs": [],
      "name": "acceptSetter",
      "outputs": [],
      "stateMutability": "nonpayable",
      "type": "function"
    },
    {
      "inputs": [
        {
          "internalType": "uint8",
          "name": "platform",
          "type": "uint8"
        },
        {
          "internalType": "address",
          "name": "router",
          "type": "address"
        }
      ],
      "name": "addRouter",
      "outputs": [],
      "stateMutability": "nonpayable",
      "type": "function"
    },
    {
      "inputs": [
        {
          "internalType": "address[]",
          "name": "tokens",
          "type": "address[]"
        }
      ],
      "name": "approve",
      "outputs": [],
      "stateMutability": "nonpayable",
      "type": "function"
    },
    {
      "inputs": [
        {
          "internalType": "address[]",
          "name": "tokenIns",
          "type": "address[]"
        },
        {
          "internalType": "uint8[]",
          "name": "counts",
          "type": "uint8[]"
        },
        {
          "internalType": "bytes[]",
          "name": "inputs",
          "type": "bytes[]"
        },
        {
          "internalType": "uint256",
          "name": "amountIn",
          "type": "uint256"
        },
        {
          "internalType": "uint256",
          "name": "deadline",
          "type": "uint256"
        }
      ],
      "name": "execute",
      "outputs": [],
      "stateMutability": "nonpayable",
      "type": "function"
    },
    {
      "inputs": [
        {
          "internalType": "address[]",
          "name": "tokenIns",
          "type": "address[]"
        },
        {
          "internalType": "uint8[]",
          "name": "counts",
          "type": "uint8[]"
        },
        {
          "internalType": "bytes[]",
          "name": "inputs",
          "type": "bytes[]"
        },
        {
          "internalType": "uint256",
          "name": "deadline",
          "type": "uint256"
        }
      ],
      "name": "executeEth",
      "outputs": [],
      "stateMutability": "payable",
      "type": "function"
    },
    {
      "inputs": [],
      "name": "owner",
      "outputs": [
        {
          "internalType": "address",
          "name": "",
          "type": "address"
        }
      ],
      "stateMutability": "view",
      "type": "function"
    },
    {
      "inputs": [
        {
          "internalType": "uint8",
          "name": "",
          "type": "uint8"
        }
      ],
      "name": "swapRouters",
      "outputs": [
        {
          "internalType": "address",
          "name": "router",
          "type": "address"
        },
        {
          "internalType": "address",
          "name": "weth",
          "type": "address"
        }
      ],
      "stateMutability": "view",
      "type": "function"
    },
    {
      "inputs": [
        {
          "internalType": "address",
          "name": "_owner",
          "type": "address"
        }
      ],
      "name": "transferOwner",
      "outputs": [],
      "stateMutability": "nonpayable",
      "type": "function"
    },
    {
      "inputs": [
        {
          "internalType": "address",
          "name": "token",
          "type": "address"
        },
        {
          "internalType": "address",
          "name": "to",
          "type": "address"
        },
        {
          "internalType": "uint256",
          "name": "amount",
          "type": "uint256"
        }
      ],
      "name": "withdrawERC20",
      "outputs": [],
      "stateMutability": "nonpayable",
      "type": "function"
    },
    {
      "inputs": [
        {
          "internalType": "address",
          "name": "to",
          "type": "address"
        },
        {
          "internalType": "uint256",
          "name": "amount",
          "type": "uint256"
        }
      ],
      "name": "withdrawETH",
      "outputs": [],
      "stateMutability": "nonpayable",
      "type": "function"
    }
  ],
  "bytecode": "0x608060405234801561001057600080fd5b50600080546001600160a01b03191633179055611a4e806100326000396000f3fe60806040526004361061009c5760003560e01c80638c09fd34116100645780638c09fd34146101385780638da5cb5b1461019e578063984c068a146101d6578063b85a8b20146101f6578063e27506351461021f578063f3b481421461023f57600080fd5b806344004cc1146100a15780634782f779146100c35780634fb2e45d146100e35780635f8e422f1461010357806377a1736b14610118575b600080fd5b3480156100ad57600080fd5b506100c16100bc3660046113df565b610252565b005b3480156100cf57600080fd5b506100c16100de366004611420565b610295565b3480156100ef57600080fd5b506100c16100fe36600461144c565b61034e565b34801561010f57600080fd5b506100c16103b6565b34801561012457600080fd5b506100c16101333660046114bc565b610423565b34801561014457600080fd5b50610179610153366004611514565b600260205260009081526040902080546001909101546001600160a01b03918216911682565b604080516001600160a01b039384168152929091166020830152015b60405180910390f35b3480156101aa57600080fd5b506000546101be906001600160a01b031681565b6040516001600160a01b039091168152602001610195565b3480156101e257600080fd5b506100c16101f136600461152f565b610531565b34801561020257600080fd5b5061020c61271081565b60405161ffff9091168152602001610195565b34801561022b57600080fd5b506100c161023a3660046115d8565b61071d565b6100c161024d36600461160f565b6108bb565b6000546001600160a01b031633146102855760405162461bcd60e51b815260040161027c906116b2565b60405180910390fd5b610290838383610b18565b505050565b6000546001600160a01b031633146102bf5760405162461bcd60e51b815260040161027c906116b2565b6000826001600160a01b03168260405160006040518083038185875af1925050503d806000811461030c576040519150601f19603f3d011682016040523d82523d6000602084013e610311565b606091505b50509050806102905760405162461bcd60e51b815260206004820152600960248201526821776974686472617760b81b604482015260640161027c565b6000546001600160a01b031633146103945760405162461bcd60e51b81526020600482015260096024820152683337b93134b23232b760b91b604482015260640161027c565b600180546001600160a01b0319166001600160a01b0392909216919091179055565b6001546001600160a01b031633146103fc5760405162461bcd60e51b81526020600482015260096024820152683337b93134b23232b760b91b604482015260640161027c565b60018054600080546001600160a01b03199081166001600160a01b03841617909155169055565b600354819060005b8281101561052a5760005b8281101561051757858583818110610450576104506116d4565b9050602002016020810190610465919061144c565b6001600160a01b031663095ea7b360038381548110610486576104866116d4565b60009182526020909120015460405160e083901b6001600160e01b03191681526001600160a01b03909116600482015260001960248201526044016020604051808303816000875af11580156104e0573d6000803e3d6000fd5b505050506040513d601f19601f8201168201806040525081019061050491906116ea565b508061050f81611722565b915050610436565b508061052281611722565b91505061042b565b5050505050565b808042111561055357604051632dfb7c8b60e11b815260040160405180910390fd5b87868114610577576040516001621398b960e31b0319815260040160405180910390fd5b6105aa8a8a600081811061058d5761058d6116d4565b90506020020160208101906105a2919061144c565b333087610c11565b6000805b8281101561070f578b8b828181106105c8576105c86116d4565b90506020020160208101906105dd919061144c565b6040516370a0823160e01b81523060048201526001600160a01b0391909116906370a0823190602401602060405180830381865afa158015610623573d6000803e3d6000fd5b505050506040513d601f19601f82011682018060405250810190610647919061173b565b955060005b8a8a8381811061065e5761065e6116d4565b90506020020160208101906106739190611514565b60ff168110156106fc573660008a8a86818110610692576106926116d4565b90506020028101906106a49190611754565b915091506106da8f8f868181106106bd576106bd6116d4565b90506020020160208101906106d2919061144c565b8a8484610d1b565b846106e481611722565b955050505080806106f490611722565b91505061064c565b508061070781611722565b9150506105ae565b505050505050505050505050565b6000546001600160a01b031633146107475760405162461bcd60e51b815260040161027c906116b2565b6000600f8360ff1611156107be57816001600160a01b0316634aa4a4fc6040518163ffffffff1660e01b8152600401602060405180830381865afa158015610793573d6000803e3d6000fd5b505050506040513d601f19601f820116820180604052508101906107b7919061179b565b9050610823565b816001600160a01b031663ad5c46486040518163ffffffff1660e01b8152600401602060405180830381865afa1580156107fc573d6000803e3d6000fd5b505050506040513d601f19601f82011682018060405250810190610820919061179b565b90505b6040805180820182526001600160a01b03938416808252928416602080830191825260ff90961660009081526002909652918520905181549085166001600160a01b031991821617825591516001918201805491909516908316179093556003805493840181559093527fc2575a0e9e593c00f959f8c92f12db2869c3395a3b0502d05e2516446f71f85b9091018054909216179055565b80804211156108dd57604051632dfb7c8b60e11b815260040160405180910390fd5b86858114610901576040516001621398b960e31b0319815260040160405180910390fd5b3460005b88886000818110610918576109186116d4565b905060200201602081019061092d9190611514565b60ff168110156109845736600088888481811061094c5761094c6116d4565b905060200281019061095e9190611754565b9150915061096f6000858484610d1b565b5050808061097c90611722565b915050610905565b5060008888600081811061099a5761099a6116d4565b90506020020160208101906109af9190611514565b60ff16905060015b8381101561070f578b8b828181106109d1576109d16116d4565b90506020020160208101906109e6919061144c565b6040516370a0823160e01b81523060048201526001600160a01b0391909116906370a0823190602401602060405180830381865afa158015610a2c573d6000803e3d6000fd5b505050506040513d601f19601f82011682018060405250810190610a50919061173b565b925060005b8a8a83818110610a6757610a676116d4565b9050602002016020810190610a7c9190611514565b60ff16811015610b05573660008a8a86818110610a9b57610a9b6116d4565b9050602002810190610aad9190611754565b91509150610ae38f8f86818110610ac657610ac66116d4565b9050602002016020810190610adb919061144c565b878484610d1b565b84610aed81611722565b95505050508080610afd90611722565b915050610a55565b5080610b1081611722565b9150506109b7565b604080516001600160a01b038481166024830152604480830185905283518084039091018152606490920183526020820180516001600160e01b031663a9059cbb60e01b1790529151600092839290871691610b7491906117b8565b6000604051808303816000865af19150503d8060008114610bb1576040519150601f19603f3d011682016040523d82523d6000602084013e610bb6565b606091505b5091509150818015610be0575080511580610be0575080806020019051810190610be091906116ea565b61052a5760405162461bcd60e51b815260206004820152600260248201526114d560f21b604482015260640161027c565b604080516001600160a01b0385811660248301528481166044830152606480830185905283518084039091018152608490920183526020820180516001600160e01b03166323b872dd60e01b1790529151600092839290881691610c7591906117b8565b6000604051808303816000865af19150503d8060008114610cb2576040519150601f19603f3d011682016040523d82523d6000602084013e610cb7565b606091505b5091509150818015610ce1575080511580610ce1575080806020019051810190610ce191906116ea565b610d135760405162461bcd60e51b815260206004820152600360248201526229aa2360e91b604482015260640161027c565b505050505050565b813560ff8116600090815260026020908152604091829020825180840190935280546001600160a01b039081168085526001909201541691830191909152610d955760405162461bcd60e51b815260206004820152600d60248201526c191bdb89dd081cdd5c1c1bdc9d609a1b604482015260640161027c565b600f8260ff1611156110bd576020840135604085013560608601356080870135612710610dc661ffff83168b6117e7565b610dd09190611804565b98506001600160a01b038416610f0857845160408051610100810182526001600160a01b038d811682526020808a015182169083015262ffffff871682840152600060608301819052600019608084015260a083018e905260c0830181905260e08301819052925163414bf38960e01b81529293169163414bf38991610e5891600401611826565b6020604051808303816000875af1158015610e77573d6000803e3d6000fd5b505050506040513d601f19601f82011682018060405250810190610e9b919061173b565b865160405163125012df60e21b8152600481018390526001600160a01b0386811660248301529293509116906349404b7c90604401600060405180830381600087803b158015610eea57600080fd5b505af1158015610efe573d6000803e3d6000fd5b50505050506110b4565b6001600160a01b038a16610ffa5784600001516001600160a01b031663414bf3898a60405180610100016040528089602001516001600160a01b03168152602001886001600160a01b031681526020018762ffffff168152602001866001600160a01b0316815260200160001981526020018d81526020016000815260200160006001600160a01b03168152506040518363ffffffff1660e01b8152600401610fb19190611826565b60206040518083038185885af1158015610fcf573d6000803e3d6000fd5b50505050506040513d601f19601f82011682018060405250810190610ff4919061173b565b506110b4565b845160408051610100810182526001600160a01b038d81168252878116602083015262ffffff8716828401528581166060830152600019608083015260a082018d9052600060c0830181905260e0830152915163414bf38960e01b8152919092169163414bf3899161106f9190600401611826565b6020604051808303816000875af115801561108e573d6000803e3d6000fd5b505050506040513d601f19601f820116820180604052508101906110b2919061173b565b505b50505050610d13565b60408401356020850135606086013560808701356127106110e160ff83168b6117e7565b6110eb9190611804565b604080516002808252606082018352929b5060009290916020830190803683370190505090506001600160a01b038b166111fe57856020015181600081518110611137576111376116d4565b60200260200101906001600160a01b031690816001600160a01b031681525050848160018151811061116b5761116b6116d4565b6001600160a01b0392831660209182029290920101528651604051637ff36ab560e01b8152911690637ff36ab5908c906111b190889086908990600019906004016118e9565b60006040518083038185885af11580156111cf573d6000803e3d6000fd5b50505050506040513d6000823e601f3d908101601f191682016040526111f8919081019061191e565b506113ba565b6001600160a01b0385166112e5578a81600081518110611220576112206116d4565b60200260200101906001600160a01b031690816001600160a01b031681525050856020015181600181518110611258576112586116d4565b6001600160a01b03928316602091820292909201015286516040516318cbafe560e01b81529116906318cbafe59061129e908d90889086908990600019906004016119dc565b6000604051808303816000875af11580156112bd573d6000803e3d6000fd5b505050506040513d6000823e601f3d908101601f191682016040526111f8919081019061191e565b8a816000815181106112f9576112f96116d4565b60200260200101906001600160a01b031690816001600160a01b031681525050848160018151811061132d5761132d6116d4565b6001600160a01b03928316602091820292909201015286516040516338ed173960e01b81529116906338ed173990611373908d90889086908990600019906004016119dc565b6000604051808303816000875af1158015611392573d6000803e3d6000fd5b505050506040513d6000823e601f3d908101601f1916820160405261070f919081019061191e565b5050505050505050505050565b6001600160a01b03811681146113dc57600080fd5b50565b6000806000606084860312156113f457600080fd5b83356113ff816113c7565b9250602084013561140f816113c7565b929592945050506040919091013590565b6000806040838503121561143357600080fd5b823561143e816113c7565b946020939093013593505050565b60006020828403121561145e57600080fd5b8135611469816113c7565b9392505050565b60008083601f84011261148257600080fd5b50813567ffffffffffffffff81111561149a57600080fd5b6020830191508360208260051b85010111156114b557600080fd5b9250929050565b600080602083850312156114cf57600080fd5b823567ffffffffffffffff8111156114e657600080fd5b6114f285828601611470565b90969095509350505050565b803560ff8116811461150f57600080fd5b919050565b60006020828403121561152657600080fd5b611469826114fe565b60008060008060008060008060a0898b03121561154b57600080fd5b883567ffffffffffffffff8082111561156357600080fd5b61156f8c838d01611470565b909a50985060208b013591508082111561158857600080fd5b6115948c838d01611470565b909850965060408b01359150808211156115ad57600080fd5b506115ba8b828c01611470565b999c989b509699959896976060870135966080013595509350505050565b600080604083850312156115eb57600080fd5b6115f4836114fe565b91506020830135611604816113c7565b809150509250929050565b60008060008060008060006080888a03121561162a57600080fd5b873567ffffffffffffffff8082111561164257600080fd5b61164e8b838c01611470565b909950975060208a013591508082111561166757600080fd5b6116738b838c01611470565b909750955060408a013591508082111561168c57600080fd5b506116998a828b01611470565b989b979a50959894979596606090950135949350505050565b6020808252600890820152673337b93134b232b760c11b604082015260600190565b634e487b7160e01b600052603260045260246000fd5b6000602082840312156116fc57600080fd5b8151801515811461146957600080fd5b634e487b7160e01b600052601160045260246000fd5b6000600182016117345761173461170c565b5060010190565b60006020828403121561174d57600080fd5b5051919050565b6000808335601e1984360301811261176b57600080fd5b83018035915067ffffffffffffffff82111561178657600080fd5b6020019150368190038213156114b557600080fd5b6000602082840312156117ad57600080fd5b8151611469816113c7565b6000825160005b818110156117d957602081860181015185830152016117bf565b506000920191825250919050565b80820281158282048414176117fe576117fe61170c565b92915050565b60008261182157634e487b7160e01b600052601260045260246000fd5b500490565b81516001600160a01b03908116825260208084015182169083015260408084015162ffffff16908301526060808401518216908301526080808401519083015260a0838101519083015260c0808401519083015260e09283015116918101919091526101000190565b634e487b7160e01b600052604160045260246000fd5b600081518084526020808501945080840160005b838110156118de5781516001600160a01b0316875295820195908201906001016118b9565b509495945050505050565b84815260806020820152600061190260808301866118a5565b6001600160a01b03949094166040830152506060015292915050565b6000602080838503121561193157600080fd5b825167ffffffffffffffff8082111561194957600080fd5b818501915085601f83011261195d57600080fd5b81518181111561196f5761196f61188f565b8060051b604051601f19603f830116810181811085821117156119945761199461188f565b6040529182528482019250838101850191888311156119b257600080fd5b938501935b828510156119d0578451845293850193928501926119b7565b98975050505050505050565b85815284602082015260a0604082015260006119fb60a08301866118a5565b6001600160a01b039490941660608301525060800152939250505056fea264697066735822122062d1dfe8ab9a3841f19eed546e2cdc838e50a20210cd602f3024fed5b28fa40164736f6c63430008120033",
  "linkReferences": {},
  "deployedLinkReferences": {}
}