{
  "_format": "hh-sol-artifact-1",
  "contractName": "IbAggregatorRouter",
  "sourceName": "contracts/ibaggregator.sol",
  "abi": [
    {
      "inputs": [],
      "stateMutability": "nonpayable",
      "type": "constructor"
    },
    {
      "inputs": [
        {
          "internalType": "uint256",
          "name": "platform",
          "type": "uint256"
        }
      ],
      "name": "ExecutionFailed",
      "type": "error"
    },
    {
      "inputs": [],
      "name": "LengthMismatch",
      "type": "error"
    },
    {
      "inputs": [],
      "name": "TransactionDeadlinePassed",
      "type": "error"
    },
    {
      "inputs": [],
      "name": "PERCENT",
      "outputs": [
        {
          "internalType": "uint16",
          "name": "",
          "type": "uint16"
        }
      ],
      "stateMutability": "view",
      "type": "function"
    },
    {
      "inputs": [],
      "name": "acceptSetter",
      "outputs": [],
      "stateMutability": "nonpayable",
      "type": "function"
    },
    {
      "inputs": [
        {
          "internalType": "uint8",
          "name": "platform",
          "type": "uint8"
        },
        {
          "internalType": "address",
          "name": "router",
          "type": "address"
        }
      ],
      "name": "addRouter",
      "outputs": [],
      "stateMutability": "nonpayable",
      "type": "function"
    },
    {
      "inputs": [
        {
          "internalType": "address[]",
          "name": "tokens",
          "type": "address[]"
        }
      ],
      "name": "approve",
      "outputs": [],
      "stateMutability": "nonpayable",
      "type": "function"
    },
    {
      "inputs": [
        {
          "internalType": "address[]",
          "name": "tokenIns",
          "type": "address[]"
        },
        {
          "internalType": "uint8[]",
          "name": "counts",
          "type": "uint8[]"
        },
        {
          "internalType": "bytes[]",
          "name": "inputs",
          "type": "bytes[]"
        },
        {
          "internalType": "uint256",
          "name": "amountIn",
          "type": "uint256"
        },
        {
          "internalType": "uint256",
          "name": "deadline",
          "type": "uint256"
        }
      ],
      "name": "execute",
      "outputs": [],
      "stateMutability": "nonpayable",
      "type": "function"
    },
    {
      "inputs": [
        {
          "internalType": "address[]",
          "name": "tokenIns",
          "type": "address[]"
        },
        {
          "internalType": "uint8[]",
          "name": "counts",
          "type": "uint8[]"
        },
        {
          "internalType": "bytes[]",
          "name": "inputs",
          "type": "bytes[]"
        },
        {
          "internalType": "uint256",
          "name": "deadline",
          "type": "uint256"
        }
      ],
      "name": "executeEth",
      "outputs": [],
      "stateMutability": "payable",
      "type": "function"
    },
    {
      "inputs": [],
      "name": "owner",
      "outputs": [
        {
          "internalType": "address",
          "name": "",
          "type": "address"
        }
      ],
      "stateMutability": "view",
      "type": "function"
    },
    {
      "inputs": [
        {
          "internalType": "uint8",
          "name": "",
          "type": "uint8"
        }
      ],
      "name": "swapRouters",
      "outputs": [
        {
          "internalType": "address",
          "name": "router",
          "type": "address"
        },
        {
          "internalType": "address",
          "name": "weth",
          "type": "address"
        }
      ],
      "stateMutability": "view",
      "type": "function"
    },
    {
      "inputs": [
        {
          "internalType": "address",
          "name": "_owner",
          "type": "address"
        }
      ],
      "name": "transferOwner",
      "outputs": [],
      "stateMutability": "nonpayable",
      "type": "function"
    },
    {
      "inputs": [
        {
          "internalType": "address",
          "name": "token",
          "type": "address"
        },
        {
          "internalType": "address",
          "name": "to",
          "type": "address"
        },
        {
          "internalType": "uint256",
          "name": "amount",
          "type": "uint256"
        }
      ],
      "name": "withdrawERC20",
      "outputs": [],
      "stateMutability": "nonpayable",
      "type": "function"
    },
    {
      "inputs": [
        {
          "internalType": "address",
          "name": "to",
          "type": "address"
        },
        {
          "internalType": "uint256",
          "name": "amount",
          "type": "uint256"
        }
      ],
      "name": "withdrawETH",
      "outputs": [],
      "stateMutability": "nonpayable",
      "type": "function"
    }
  ],
  "bytecode": "0x608060405234801561001057600080fd5b50600080546001600160a01b031916331790556119a8806100326000396000f3fe60806040526004361061009c5760003560e01c80638c09fd34116100645780638c09fd34146101385780638da5cb5b1461019e578063984c068a146101d6578063b85a8b20146101f6578063e27506351461021f578063f3b481421461023f57600080fd5b806344004cc1146100a15780634782f779146100c35780634fb2e45d146100e35780635f8e422f1461010357806377a1736b14610118575b600080fd5b3480156100ad57600080fd5b506100c16100bc366004611339565b610252565b005b3480156100cf57600080fd5b506100c16100de36600461137a565b610295565b3480156100ef57600080fd5b506100c16100fe3660046113a6565b61034e565b34801561010f57600080fd5b506100c16103b6565b34801561012457600080fd5b506100c1610133366004611416565b610423565b34801561014457600080fd5b5061017961015336600461146e565b600260205260009081526040902080546001909101546001600160a01b03918216911682565b604080516001600160a01b039384168152929091166020830152015b60405180910390f35b3480156101aa57600080fd5b506000546101be906001600160a01b031681565b6040516001600160a01b039091168152602001610195565b3480156101e257600080fd5b506100c16101f1366004611489565b610531565b34801561020257600080fd5b5061020c61271081565b60405161ffff9091168152602001610195565b34801561022b57600080fd5b506100c161023a366004611532565b61071d565b6100c161024d366004611569565b610882565b6000546001600160a01b031633146102855760405162461bcd60e51b815260040161027c9061160c565b60405180910390fd5b610290838383610adf565b505050565b6000546001600160a01b031633146102bf5760405162461bcd60e51b815260040161027c9061160c565b6000826001600160a01b03168260405160006040518083038185875af1925050503d806000811461030c576040519150601f19603f3d011682016040523d82523d6000602084013e610311565b606091505b50509050806102905760405162461bcd60e51b815260206004820152600960248201526821776974686472617760b81b604482015260640161027c565b6000546001600160a01b031633146103945760405162461bcd60e51b81526020600482015260096024820152683337b93134b23232b760b91b604482015260640161027c565b600180546001600160a01b0319166001600160a01b0392909216919091179055565b6001546001600160a01b031633146103fc5760405162461bcd60e51b81526020600482015260096024820152683337b93134b23232b760b91b604482015260640161027c565b60018054600080546001600160a01b03199081166001600160a01b03841617909155169055565b600354819060005b8281101561052a5760005b82811015610517578585838181106104505761045061162e565b905060200201602081019061046591906113a6565b6001600160a01b031663095ea7b3600383815481106104865761048661162e565b60009182526020909120015460405160e083901b6001600160e01b03191681526001600160a01b03909116600482015260001960248201526044016020604051808303816000875af11580156104e0573d6000803e3d6000fd5b505050506040513d601f19601f820116820180604052508101906105049190611644565b508061050f8161167c565b915050610436565b50806105228161167c565b91505061042b565b5050505050565b808042111561055357604051632dfb7c8b60e11b815260040160405180910390fd5b87868114610577576040516001621398b960e31b0319815260040160405180910390fd5b6105aa8a8a600081811061058d5761058d61162e565b90506020020160208101906105a291906113a6565b333087610bd8565b6000805b8281101561070f578b8b828181106105c8576105c861162e565b90506020020160208101906105dd91906113a6565b6040516370a0823160e01b81523060048201526001600160a01b0391909116906370a0823190602401602060405180830381865afa158015610623573d6000803e3d6000fd5b505050506040513d601f19601f820116820180604052508101906106479190611695565b955060005b8a8a8381811061065e5761065e61162e565b9050602002016020810190610673919061146e565b60ff168110156106fc573660008a8a868181106106925761069261162e565b90506020028101906106a491906116ae565b915091506106da8f8f868181106106bd576106bd61162e565b90506020020160208101906106d291906113a6565b8a8484610ce2565b846106e48161167c565b955050505080806106f49061167c565b91505061064c565b50806107078161167c565b9150506105ae565b505050505050505050505050565b6000546001600160a01b031633146107475760405162461bcd60e51b815260040161027c9061160c565b6000600f8360ff1611156107be57816001600160a01b0316634aa4a4fc6040518163ffffffff1660e01b8152600401602060405180830381865afa158015610793573d6000803e3d6000fd5b505050506040513d601f19601f820116820180604052508101906107b791906116f5565b9050610823565b816001600160a01b031663ad5c46486040518163ffffffff1660e01b8152600401602060405180830381865afa1580156107fc573d6000803e3d6000fd5b505050506040513d601f19601f8201168201806040525081019061082091906116f5565b90505b6040805180820182526001600160a01b039384168152918316602080840191825260ff909516600090815260029095529320905181549083166001600160a01b0319918216178255925160019091018054919092169216919091179055565b80804211156108a457604051632dfb7c8b60e11b815260040160405180910390fd5b868581146108c8576040516001621398b960e31b0319815260040160405180910390fd5b3460005b888860008181106108df576108df61162e565b90506020020160208101906108f4919061146e565b60ff1681101561094b573660008888848181106109135761091361162e565b905060200281019061092591906116ae565b915091506109366000858484610ce2565b505080806109439061167c565b9150506108cc565b506000888860008181106109615761096161162e565b9050602002016020810190610976919061146e565b60ff16905060015b8381101561070f578b8b828181106109985761099861162e565b90506020020160208101906109ad91906113a6565b6040516370a0823160e01b81523060048201526001600160a01b0391909116906370a0823190602401602060405180830381865afa1580156109f3573d6000803e3d6000fd5b505050506040513d601f19601f82011682018060405250810190610a179190611695565b925060005b8a8a83818110610a2e57610a2e61162e565b9050602002016020810190610a43919061146e565b60ff16811015610acc573660008a8a86818110610a6257610a6261162e565b9050602002810190610a7491906116ae565b91509150610aaa8f8f86818110610a8d57610a8d61162e565b9050602002016020810190610aa291906113a6565b878484610ce2565b84610ab48161167c565b95505050508080610ac49061167c565b915050610a1c565b5080610ad78161167c565b91505061097e565b604080516001600160a01b038481166024830152604480830185905283518084039091018152606490920183526020820180516001600160e01b031663a9059cbb60e01b1790529151600092839290871691610b3b9190611712565b6000604051808303816000865af19150503d8060008114610b78576040519150601f19603f3d011682016040523d82523d6000602084013e610b7d565b606091505b5091509150818015610ba7575080511580610ba7575080806020019051810190610ba79190611644565b61052a5760405162461bcd60e51b815260206004820152600260248201526114d560f21b604482015260640161027c565b604080516001600160a01b0385811660248301528481166044830152606480830185905283518084039091018152608490920183526020820180516001600160e01b03166323b872dd60e01b1790529151600092839290881691610c3c9190611712565b6000604051808303816000865af19150503d8060008114610c79576040519150601f19603f3d011682016040523d82523d6000602084013e610c7e565b606091505b5091509150818015610ca8575080511580610ca8575080806020019051810190610ca89190611644565b610cda5760405162461bcd60e51b815260206004820152600360248201526229aa2360e91b604482015260640161027c565b505050505050565b813560ff8116600090815260026020908152604091829020825180840190935280546001600160a01b039081168085526001909201541691830191909152610d5c5760405162461bcd60e51b815260206004820152600d60248201526c191bdb89dd081cdd5c1c1bdc9d609a1b604482015260640161027c565b600f8260ff161115610fe95760208401356040850135606086013560808701356001600160a01b038a16610d9257846020015199505b6001600160a01b038416610f0657600085600001516001600160a01b031663414bf3896040518061010001604052808e6001600160a01b0316815260200189602001516001600160a01b031681526020018762ffffff16815260200160006001600160a01b03168152602001600019815260200161271061ffff168660ff168f610e1c9190611741565b610e26919061175e565b8152600060208201819052604091820152516001600160e01b031960e084901b168152610e569190600401611780565b6020604051808303816000875af1158015610e75573d6000803e3d6000fd5b505050506040513d601f19601f82011682018060405250810190610e999190611695565b865160405163125012df60e21b8152600481018390526001600160a01b0386811660248301529293509116906349404b7c90604401600060405180830381600087803b158015610ee857600080fd5b505af1158015610efc573d6000803e3d6000fd5b5050505050610fe0565b845160408051610100810182526001600160a01b038d81168252878116602083015262ffffff87169282019290925260006060820152600019608082015291169063414bf3899060a08101612710610f6160ff87168f611741565b610f6b919061175e565b8152600060208201819052604091820152516001600160e01b031960e084901b168152610f9b9190600401611780565b6020604051808303816000875af1158015610fba573d6000803e3d6000fd5b505050506040513d601f19601f82011682018060405250810190610fde9190611695565b505b50505050610cda565b60408051600280825260608281018452928701359260208801359290880135916080890135916000918160200160208202803683370190505090506001600160a01b038b166111285785602001518160008151811061104a5761104a61162e565b60200260200101906001600160a01b031690816001600160a01b031681525050848160018151811061107e5761107e61162e565b6001600160a01b039283166020918202929092010152865116637ff36ab56127106110ac60ff86168e611741565b6110b6919061175e565b8684876000196040518663ffffffff1660e01b81526004016110db9493929190611843565b60006040518083038185885af11580156110f9573d6000803e3d6000fd5b50505050506040513d6000823e601f3d908101601f191682016040526111229190810190611878565b50611314565b6001600160a01b038516611227578a8160008151811061114a5761114a61162e565b60200260200101906001600160a01b031690816001600160a01b0316815250508560200151816001815181106111825761118261162e565b6001600160a01b0392831660209182029290920101528651166318cbafe56127106111b060ff86168e611741565b6111ba919061175e565b8684876000196040518663ffffffff1660e01b81526004016111e0959493929190611936565b6000604051808303816000875af11580156111ff573d6000803e3d6000fd5b505050506040513d6000823e601f3d908101601f191682016040526111229190810190611878565b8a8160008151811061123b5761123b61162e565b60200260200101906001600160a01b031690816001600160a01b031681525050848160018151811061126f5761126f61162e565b6001600160a01b0392831660209182029290920101528651166338ed173961271061129d60ff86168e611741565b6112a7919061175e565b8684876000196040518663ffffffff1660e01b81526004016112cd959493929190611936565b6000604051808303816000875af11580156112ec573d6000803e3d6000fd5b505050506040513d6000823e601f3d908101601f1916820160405261070f9190810190611878565b5050505050505050505050565b6001600160a01b038116811461133657600080fd5b50565b60008060006060848603121561134e57600080fd5b833561135981611321565b9250602084013561136981611321565b929592945050506040919091013590565b6000806040838503121561138d57600080fd5b823561139881611321565b946020939093013593505050565b6000602082840312156113b857600080fd5b81356113c381611321565b9392505050565b60008083601f8401126113dc57600080fd5b50813567ffffffffffffffff8111156113f457600080fd5b6020830191508360208260051b850101111561140f57600080fd5b9250929050565b6000806020838503121561142957600080fd5b823567ffffffffffffffff81111561144057600080fd5b61144c858286016113ca565b90969095509350505050565b803560ff8116811461146957600080fd5b919050565b60006020828403121561148057600080fd5b6113c382611458565b60008060008060008060008060a0898b0312156114a557600080fd5b883567ffffffffffffffff808211156114bd57600080fd5b6114c98c838d016113ca565b909a50985060208b01359150808211156114e257600080fd5b6114ee8c838d016113ca565b909850965060408b013591508082111561150757600080fd5b506115148b828c016113ca565b999c989b509699959896976060870135966080013595509350505050565b6000806040838503121561154557600080fd5b61154e83611458565b9150602083013561155e81611321565b809150509250929050565b60008060008060008060006080888a03121561158457600080fd5b873567ffffffffffffffff8082111561159c57600080fd5b6115a88b838c016113ca565b909950975060208a01359150808211156115c157600080fd5b6115cd8b838c016113ca565b909750955060408a01359150808211156115e657600080fd5b506115f38a828b016113ca565b989b979a50959894979596606090950135949350505050565b6020808252600890820152673337b93134b232b760c11b604082015260600190565b634e487b7160e01b600052603260045260246000fd5b60006020828403121561165657600080fd5b815180151581146113c357600080fd5b634e487b7160e01b600052601160045260246000fd5b60006001820161168e5761168e611666565b5060010190565b6000602082840312156116a757600080fd5b5051919050565b6000808335601e198436030181126116c557600080fd5b83018035915067ffffffffffffffff8211156116e057600080fd5b60200191503681900382131561140f57600080fd5b60006020828403121561170757600080fd5b81516113c381611321565b6000825160005b818110156117335760208186018101518583015201611719565b506000920191825250919050565b808202811582820484141761175857611758611666565b92915050565b60008261177b57634e487b7160e01b600052601260045260246000fd5b500490565b81516001600160a01b03908116825260208084015182169083015260408084015162ffffff16908301526060808401518216908301526080808401519083015260a0838101519083015260c0808401519083015260e09283015116918101919091526101000190565b634e487b7160e01b600052604160045260246000fd5b600081518084526020808501945080840160005b838110156118385781516001600160a01b031687529582019590820190600101611813565b509495945050505050565b84815260806020820152600061185c60808301866117ff565b6001600160a01b03949094166040830152506060015292915050565b6000602080838503121561188b57600080fd5b825167ffffffffffffffff808211156118a357600080fd5b818501915085601f8301126118b757600080fd5b8151818111156118c9576118c96117e9565b8060051b604051601f19603f830116810181811085821117156118ee576118ee6117e9565b60405291825284820192508381018501918883111561190c57600080fd5b938501935b8285101561192a57845184529385019392850192611911565b98975050505050505050565b85815284602082015260a06040820152600061195560a08301866117ff565b6001600160a01b039490941660608301525060800152939250505056fea2646970667358221220887484051b378830ed65beda0655394282821233feae108d5705dbcbf638ccbc64736f6c63430008120033",
  "linkReferences": {},
  "deployedLinkReferences": {}
}