{
  "_format": "hh-sol-artifact-1",
  "contractName": "IbAggregatorRouter",
  "sourceName": "contracts/ibaggregator.sol",
  "abi": [
    {
      "inputs": [
        {
          "internalType": "address",
          "name": "receipt",
          "type": "address"
        }
      ],
      "stateMutability": "nonpayable",
      "type": "constructor"
    },
    {
      "anonymous": false,
      "inputs": [
        {
          "indexed": true,
          "internalType": "address",
          "name": "sender",
          "type": "address"
        },
        {
          "indexed": false,
          "internalType": "address",
          "name": "tokenIn",
          "type": "address"
        },
        {
          "indexed": false,
          "internalType": "address",
          "name": "tokenOut",
          "type": "address"
        },
        {
          "indexed": false,
          "internalType": "uint256",
          "name": "amountIn",
          "type": "uint256"
        },
        {
          "indexed": false,
          "internalType": "uint256",
          "name": "amountOut",
          "type": "uint256"
        }
      ],
      "name": "AggregatorSwap",
      "type": "event"
    },
    {
      "inputs": [],
      "name": "FEERATE",
      "outputs": [
        {
          "internalType": "uint16",
          "name": "",
          "type": "uint16"
        }
      ],
      "stateMutability": "view",
      "type": "function"
    },
    {
      "inputs": [],
      "name": "PERCENT",
      "outputs": [
        {
          "internalType": "uint16",
          "name": "",
          "type": "uint16"
        }
      ],
      "stateMutability": "view",
      "type": "function"
    },
    {
      "inputs": [],
      "name": "acceptSetter",
      "outputs": [],
      "stateMutability": "nonpayable",
      "type": "function"
    },
    {
      "inputs": [
        {
          "internalType": "uint8",
          "name": "platform",
          "type": "uint8"
        },
        {
          "internalType": "address",
          "name": "router",
          "type": "address"
        }
      ],
      "name": "addRouter",
      "outputs": [],
      "stateMutability": "nonpayable",
      "type": "function"
    },
    {
      "inputs": [
        {
          "internalType": "address[]",
          "name": "tokens",
          "type": "address[]"
        }
      ],
      "name": "approve",
      "outputs": [],
      "stateMutability": "nonpayable",
      "type": "function"
    },
    {
      "inputs": [
        {
          "internalType": "address[]",
          "name": "tokenIns",
          "type": "address[]"
        },
        {
          "internalType": "uint8[]",
          "name": "counts",
          "type": "uint8[]"
        },
        {
          "internalType": "bytes[]",
          "name": "inputs",
          "type": "bytes[]"
        },
        {
          "internalType": "address",
          "name": "tokenOut",
          "type": "address"
        },
        {
          "internalType": "uint256",
          "name": "amountOutMin",
          "type": "uint256"
        },
        {
          "internalType": "uint256",
          "name": "deadline",
          "type": "uint256"
        }
      ],
      "name": "executeFromEth",
      "outputs": [],
      "stateMutability": "payable",
      "type": "function"
    },
    {
      "inputs": [
        {
          "internalType": "address[]",
          "name": "tokenIns",
          "type": "address[]"
        },
        {
          "internalType": "uint8[]",
          "name": "counts",
          "type": "uint8[]"
        },
        {
          "internalType": "bytes[]",
          "name": "inputs",
          "type": "bytes[]"
        },
        {
          "internalType": "address",
          "name": "tokenOut",
          "type": "address"
        },
        {
          "internalType": "uint256",
          "name": "amountIn",
          "type": "uint256"
        },
        {
          "internalType": "uint256",
          "name": "amountOutMin",
          "type": "uint256"
        },
        {
          "internalType": "uint256",
          "name": "deadline",
          "type": "uint256"
        }
      ],
      "name": "executeFromToken",
      "outputs": [],
      "stateMutability": "payable",
      "type": "function"
    },
    {
      "inputs": [],
      "name": "feeReceipt",
      "outputs": [
        {
          "internalType": "address",
          "name": "",
          "type": "address"
        }
      ],
      "stateMutability": "view",
      "type": "function"
    },
    {
      "inputs": [],
      "name": "owner",
      "outputs": [
        {
          "internalType": "address",
          "name": "",
          "type": "address"
        }
      ],
      "stateMutability": "view",
      "type": "function"
    },
    {
      "inputs": [
        {
          "internalType": "uint8",
          "name": "",
          "type": "uint8"
        }
      ],
      "name": "swapRouters",
      "outputs": [
        {
          "internalType": "address",
          "name": "router",
          "type": "address"
        },
        {
          "internalType": "address",
          "name": "weth",
          "type": "address"
        }
      ],
      "stateMutability": "view",
      "type": "function"
    },
    {
      "inputs": [
        {
          "internalType": "address",
          "name": "_owner",
          "type": "address"
        }
      ],
      "name": "transferOwner",
      "outputs": [],
      "stateMutability": "nonpayable",
      "type": "function"
    },
    {
      "stateMutability": "payable",
      "type": "receive"
    }
  ],
  "bytecode": "0x60a06040523480156200001157600080fd5b5060405162001e6438038062001e64833981016040819052620000349162000260565b600080546001600160a01b031916331781556001600160a01b038216608052604080516312a9293f60e21b8152905173b783f05f28dfabd0d09ccb524e6c6289cb0e7c1f92918391634aa4a4fc916004808201926020929091908290030181865afa158015620000a8573d6000803e3d6000fd5b505050506040513d601f19601f82011682018060405250810190620000ce919062000260565b6040805180820182526001600160a01b03948516808252928516602080830191825260106000908152600280835293517f328b8e687a0a963892a735f0237cb763bbbbf8ba0c1dfe2c221debb32c4bbd898054918a166001600160a01b031992831617905592517f328b8e687a0a963892a735f0237cb763bbbbf8ba0c1dfe2c221debb32c4bbd8a8054918a1691851691909117905560038054600181810183557fc2575a0e9e593c00f959f8c92f12db2869c3395a3b0502d05e2516446f71f85b918201805487169099179098558651808801909752731372c03b0c542017a256473706ba6121f826398080885273beb654a116aeef764988df0c6b4bf67cc869d01b888601908152601185529690945295517fa4e0f4432e44d027a7b3f953940f096bca7a9bd910297cad2ba7c703c2b799d38054918b1691861691909117905593517fa4e0f4432e44d027a7b3f953940f096bca7a9bd910297cad2ba7c703c2b799d4805491909916908416179097558254948501835591909552910180549093161790915550620002929050565b6000602082840312156200027357600080fd5b81516001600160a01b03811681146200028b57600080fd5b9392505050565b608051611ba8620002bc6000396000818161012b0152818161031e015261048e0152611ba86000f3fe6080604052600436106100905760003560e01c80630a13ac3a1461009c5780634fb2e45d146100b1578063520615ee146100d15780635f8e422f146100e457806377a1736b146100f95780637ff593b6146101195780638c09fd34146101635780638da5cb5b146101c4578063b85a8b20146101e4578063e27506351461020d578063fcc07a8c1461022d57600080fd5b3661009757005b600080fd5b6100af6100aa3660046114dd565b610242565b005b3480156100bd57600080fd5b506100af6100cc3660046115a6565b6103ca565b6100af6100df3660046115ca565b610416565b3480156100f057600080fd5b506100af610539565b34801561010557600080fd5b506100af610114366004611689565b61058a565b34801561012557600080fd5b5061014d7f000000000000000000000000000000000000000000000000000000000000000081565b60405161015a91906116ca565b60405180910390f35b34801561016f57600080fd5b506101a461017e3660046116f4565b600260205260009081526040902080546001909101546001600160a01b03918216911682565b604080516001600160a01b0393841681529290911660208301520161015a565b3480156101d057600080fd5b5060005461014d906001600160a01b031681565b3480156101f057600080fd5b506101fa61271081565b60405161ffff909116815260200161015a565b34801561021957600080fd5b506100af61022836600461170f565b610697565b34801561023957600080fd5b506101fa600a81565b808042111561026c5760405162461bcd60e51b815260040161026390611746565b60405180910390fd5b878a1461028b5760405162461bcd60e51b815260040161026390611768565b6102be8b8b60008181106102a1576102a1611798565b90506020020160208101906102b691906115a6565b33308761085c565b6001898960008181106102d3576102d3611798565b90506020020160208101906102e891906116f4565b60ff16111561035a5761035a8b8b600081811061030757610307611798565b905060200201602081019061031c91906115a6565b7f000000000000000000000000000000000000000000000000000000000000000061271061034b600a896117c4565b61035591906117e1565b610966565b61036a8b8b8b8b8b8b8b8a610a69565b925033600080516020611b538339815191528c8c60008161038d5761038d611798565b90506020020160208101906103a291906115a6565b8787876040516103b59493929190611803565b60405180910390a25050505050505050505050565b6000546001600160a01b031633146103f45760405162461bcd60e51b81526004016102639061182c565b600180546001600160a01b0319166001600160a01b0392909216919091179055565b80804211156104375760405162461bcd60e51b815260040161026390611746565b8689146104565760405162461bcd60e51b815260040161026390611768565b60018888600081811061046b5761046b611798565b905060200201602081019061048091906116f4565b60ff1611156104ca576104ca7f00000000000000000000000000000000000000000000000000000000000000006127106104bb600a346117c4565b6104c591906117e1565b610ccb565b6104da8a8a8a8a8a8a8a8a610a69565b925033600080516020611b538339815191528b8b6000816104fd576104fd611798565b905060200201602081019061051291906115a6565b8634876040516105259493929190611803565b60405180910390a250505050505050505050565b6001546001600160a01b031633146105635760405162461bcd60e51b81526004016102639061182c565b60018054600080546001600160a01b03199081166001600160a01b03841617909155169055565b600354819060005b828110156106905760005b8281101561067d578585838181106105b7576105b7611798565b90506020020160208101906105cc91906115a6565b6001600160a01b031663095ea7b3600383815481106105ed576105ed611798565b6000918252602090912001546040516001600160e01b031960e084901b168152610627916001600160a01b0316906000199060040161184f565b6020604051808303816000875af1158015610646573d6000803e3d6000fd5b505050506040513d601f19601f8201168201806040525081019061066a9190611868565b50806106758161188a565b91505061059d565b50806106888161188a565b915050610592565b5050505050565b6000546001600160a01b031633146106dc5760405162461bcd60e51b81526020600482015260086024820152673337b93134b232b760c11b6044820152606401610263565b6000600f8360ff16111561075357816001600160a01b0316634aa4a4fc6040518163ffffffff1660e01b8152600401602060405180830381865afa158015610728573d6000803e3d6000fd5b505050506040513d601f19601f8201168201806040525081019061074c91906118a3565b90506107c4565b60018360ff1611156107c457816001600160a01b031663ad5c46486040518163ffffffff1660e01b8152600401602060405180830381865afa15801561079d573d6000803e3d6000fd5b505050506040513d601f19601f820116820180604052508101906107c191906118a3565b90505b6040805180820182526001600160a01b03938416808252928416602080830191825260ff90961660009081526002909652918520905181549085166001600160a01b031991821617825591516001918201805491909516908316179093556003805493840181559093527fc2575a0e9e593c00f959f8c92f12db2869c3395a3b0502d05e2516446f71f85b9091018054909216179055565b604080516001600160a01b0385811660248301528481166044830152606480830185905283518084039091018152608490920183526020820180516001600160e01b03166323b872dd60e01b17905291516000928392908816916108c091906118c0565b6000604051808303816000865af19150503d80600081146108fd576040519150601f19603f3d011682016040523d82523d6000602084013e610902565b606091505b509150915081801561092c57508051158061092c57508080602001905181019061092c9190611868565b61095e5760405162461bcd60e51b815260206004820152600360248201526229aa2360e91b6044820152606401610263565b505050505050565b600080846001600160a01b031663a9059cbb60e01b858560405160240161098e92919061184f565b60408051601f198184030181529181526020820180516001600160e01b03166001600160e01b03199094169390931790925290516109cc91906118c0565b6000604051808303816000865af19150503d8060008114610a09576040519150601f19603f3d011682016040523d82523d6000602084013e610a0e565b606091505b5091509150818015610a38575080511580610a38575080806020019051810190610a389190611868565b6106905760405162461bcd60e51b815260206004820152600260248201526114d560f21b6044820152606401610263565b600080805b89811015610c73576000808c8c84818110610a8b57610a8b611798565b9050602002016020810190610aa091906115a6565b6001600160a01b031603610ab5575047610b4b565b8b8b83818110610ac757610ac7611798565b9050602002016020810190610adc91906115a6565b6001600160a01b03166370a08231306040518263ffffffff1660e01b8152600401610b0791906116ca565b602060405180830381865afa158015610b24573d6000803e3d6000fd5b505050506040513d601f19601f82011682018060405250810190610b4891906118ef565b90505b60005b8a8a84818110610b6057610b60611798565b9050602002016020810190610b7591906116f4565b60ff16811015610c5e57600080610bd68f8f87818110610b9757610b97611798565b9050602002016020810190610bac91906115a6565b858d8d8a818110610bbf57610bbf611798565b9050602002810190610bd19190611908565b610d73565b90925090506210740160881b6001600160a01b038216148015610c0057506001600160a01b038916155b15610c1657610c0f828861194e565b9650610c3c565b806001600160a01b0316896001600160a01b031603610c3c57610c39828861194e565b96505b85610c468161188a565b96505050508080610c569061188a565b915050610b4e565b50508080610c6b9061188a565b915050610a6e565b5082821015610cbe5760405162461bcd60e51b8152602060048201526017602482015276185b5bdd5b9d081bdd5d081b5a5b881c995c5d5a5c9959604a1b6044820152606401610263565b5098975050505050505050565b604080516000808252602082019092526001600160a01b038416908390604051610cf591906118c0565b60006040518083038185875af1925050503d8060008114610d32576040519150601f19603f3d011682016040523d82523d6000602084013e610d37565b606091505b5050905080610d6e5760405162461bcd60e51b815260206004820152600360248201526253544560e81b6044820152606401610263565b505050565b813560ff81166000908152600260209081526040808320815180830190925280546001600160a01b039081168084526001909201541692820192909252919283929091610df25760405162461bcd60e51b815260206004820152600d60248201526c191bdb89dd081cdd5c1c1bdc9d609a1b6044820152606401610263565b600f8260ff16111561111c5760208601359250604086013560608701356080880135612710610e2561ffff83168c6117c4565b610e2f91906117e1565b99506001600160a01b038616610f6657835160408051610100810182526001600160a01b038e8116825260208089015182169083015262ffffff871682840152600060608301819052600019608084015260a083018f905260c0830181905260e0830152915163414bf38960e01b8152919092169163414bf38991610eb79190600401611977565b6020604051808303816000875af1158015610ed6573d6000803e3d6000fd5b505050506040513d601f19601f82011682018060405250810190610efa91906118ef565b845160405163125012df60e21b8152600060048201526001600160a01b0385811660248301529299509116906349404b7c90604401600060405180830381600087803b158015610f4957600080fd5b505af1158015610f5d573d6000803e3d6000fd5b50505050611114565b6001600160a01b038b166110595783600001516001600160a01b031663414bf3898b60405180610100016040528088602001516001600160a01b031681526020018a6001600160a01b031681526020018762ffffff168152602001866001600160a01b0316815260200160001981526020018e81526020016000815260200160006001600160a01b03168152506040518363ffffffff1660e01b815260040161100f9190611977565b60206040518083038185885af115801561102d573d6000803e3d6000fd5b50505050506040513d601f19601f8201168201806040525081019061105291906118ef565b9650611114565b835160408051610100810182526001600160a01b038e81168252898116602083015262ffffff8716828401528581166060830152600019608083015260a082018e9052600060c0830181905260e0830152915163414bf38960e01b8152919092169163414bf389916110ce9190600401611977565b6020604051808303816000875af11580156110ed573d6000803e3d6000fd5b505050506040513d601f19601f8201168201806040525081019061111191906118ef565b96505b50505061146f565b6040860135925060208601356060870135608088013561271061114260ff83168c6117c4565b61114c91906117e1565b604080516002808252606082018352929c5060009290916020830190803683370190505090506001600160a01b038c166112835784602001518160008151811061119857611198611798565b60200260200101906001600160a01b031690816001600160a01b03168152505086816001815181106111cc576111cc611798565b6001600160a01b0392831660209182029290920101528551604051637ff36ab560e01b81526000929190911690637ff36ab5908e9061121790899087908a9060001990600401611a24565b60006040518083038185885af1158015611235573d6000803e3d6000fd5b50505050506040513d6000823e601f3d908101601f1916820160405261125e9190810190611a59565b90508060008151811061127357611273611798565b602002602001015198505061146a565b6001600160a01b03871661136f578b816000815181106112a5576112a5611798565b60200260200101906001600160a01b031690816001600160a01b0316815250508460200151816001815181106112dd576112dd611798565b6001600160a01b03928316602091820292909201015285516040516318cbafe560e01b815260009291909116906318cbafe590611328908f90899087908a9060001990600401611b16565b6000604051808303816000875af1158015611347573d6000803e3d6000fd5b505050506040513d6000823e601f3d908101601f1916820160405261125e9190810190611a59565b8b8160008151811061138357611383611798565b60200260200101906001600160a01b031690816001600160a01b03168152505086816001815181106113b7576113b7611798565b6001600160a01b03928316602091820292909201015285516040516338ed173960e01b815260009291909116906338ed173990611402908f90899087908a9060001990600401611b16565b6000604051808303816000875af1158015611421573d6000803e3d6000fd5b505050506040513d6000823e601f3d908101601f191682016040526114499190810190611a59565b90508060008151811061145e5761145e611798565b60200260200101519850505b505050505b505094509492505050565b60008083601f84011261148c57600080fd5b5081356001600160401b038111156114a357600080fd5b6020830191508360208260051b85010111156114be57600080fd5b9250929050565b6001600160a01b03811681146114da57600080fd5b50565b60008060008060008060008060008060e08b8d0312156114fc57600080fd5b8a356001600160401b038082111561151357600080fd5b61151f8e838f0161147a565b909c509a5060208d013591508082111561153857600080fd5b6115448e838f0161147a565b909a50985060408d013591508082111561155d57600080fd5b5061156a8d828e0161147a565b90975095505060608b013561157e816114c5565b8094505060808b0135925060a08b0135915060c08b013590509295989b9194979a5092959850565b6000602082840312156115b857600080fd5b81356115c3816114c5565b9392505050565b600080600080600080600080600060c08a8c0312156115e857600080fd5b89356001600160401b03808211156115ff57600080fd5b61160b8d838e0161147a565b909b50995060208c013591508082111561162457600080fd5b6116308d838e0161147a565b909950975060408c013591508082111561164957600080fd5b506116568c828d0161147a565b90965094505060608a013561166a816114c5565b8093505060808a0135915060a08a013590509295985092959850929598565b6000806020838503121561169c57600080fd5b82356001600160401b038111156116b257600080fd5b6116be8582860161147a565b90969095509350505050565b6001600160a01b0391909116815260200190565b803560ff811681146116ef57600080fd5b919050565b60006020828403121561170657600080fd5b6115c3826116de565b6000806040838503121561172257600080fd5b61172b836116de565b9150602083013561173b816114c5565b809150509250929050565b602080825260089082015267646561646c696e6560c01b604082015260600190565b6020808252601690820152753632b733ba341037b31031b7bab73a399032b93937b960511b604082015260600190565b634e487b7160e01b600052603260045260246000fd5b634e487b7160e01b600052601160045260246000fd5b80820281158282048414176117db576117db6117ae565b92915050565b6000826117fe57634e487b7160e01b600052601260045260246000fd5b500490565b6001600160a01b0394851681529290931660208301526040820152606081019190915260800190565b6020808252600990820152683337b93134b23232b760b91b604082015260600190565b6001600160a01b03929092168252602082015260400190565b60006020828403121561187a57600080fd5b815180151581146115c357600080fd5b60006001820161189c5761189c6117ae565b5060010190565b6000602082840312156118b557600080fd5b81516115c3816114c5565b6000825160005b818110156118e157602081860181015185830152016118c7565b506000920191825250919050565b60006020828403121561190157600080fd5b5051919050565b6000808335601e1984360301811261191f57600080fd5b8301803591506001600160401b0382111561193957600080fd5b6020019150368190038213156114be57600080fd5b808201808211156117db576117db6117ae565b634e487b7160e01b600052604160045260246000fd5b81516001600160a01b03908116825260208084015182169083015260408084015162ffffff16908301526060808401518216908301526080808401519083015260a0838101519083015260c0808401519083015260e09283015116918101919091526101000190565b600081518084526020808501945080840160005b83811015611a195781516001600160a01b0316875295820195908201906001016119f4565b509495945050505050565b848152608060208201526000611a3d60808301866119e0565b6001600160a01b03949094166040830152506060015292915050565b60006020808385031215611a6c57600080fd5b82516001600160401b0380821115611a8357600080fd5b818501915085601f830112611a9757600080fd5b815181811115611aa957611aa9611961565b8060051b604051601f19603f83011681018181108582111715611ace57611ace611961565b604052918252848201925083810185019188831115611aec57600080fd5b938501935b82851015611b0a57845184529385019392850192611af1565b98975050505050505050565b85815284602082015260a060408201526000611b3560a08301866119e0565b6001600160a01b039490941660608301525060800152939250505056fe9f70203000dc5ad49aeaa844d92d2a87451c6cf2d727afb7acce473707615624a264697066735822122046dbd34d5ffdc30ba3648e67cbb998bddf8ffb937d084ace1c534ac0afb91fa864736f6c63430008120033",
  "linkReferences": {},
  "deployedLinkReferences": {}
}