{
  "_format": "hh-sol-artifact-1",
  "contractName": "IbAggregatorRouter",
  "sourceName": "contracts/ibaggregator.sol",
  "abi": [
    {
      "inputs": [
        {
          "internalType": "address",
          "name": "receipt",
          "type": "address"
        }
      ],
      "stateMutability": "nonpayable",
      "type": "constructor"
    },
    {
      "anonymous": false,
      "inputs": [
        {
          "indexed": true,
          "internalType": "address",
          "name": "sender",
          "type": "address"
        },
        {
          "indexed": false,
          "internalType": "address",
          "name": "tokenIn",
          "type": "address"
        },
        {
          "indexed": false,
          "internalType": "address",
          "name": "tokenOut",
          "type": "address"
        },
        {
          "indexed": false,
          "internalType": "uint256",
          "name": "amountIn",
          "type": "uint256"
        },
        {
          "indexed": false,
          "internalType": "uint256",
          "name": "amountOut",
          "type": "uint256"
        }
      ],
      "name": "AggregatorSwap",
      "type": "event"
    },
    {
      "inputs": [],
      "name": "FEERATE",
      "outputs": [
        {
          "internalType": "uint16",
          "name": "",
          "type": "uint16"
        }
      ],
      "stateMutability": "view",
      "type": "function"
    },
    {
      "inputs": [],
      "name": "PERCENT",
      "outputs": [
        {
          "internalType": "uint16",
          "name": "",
          "type": "uint16"
        }
      ],
      "stateMutability": "view",
      "type": "function"
    },
    {
      "inputs": [],
      "name": "acceptOwner",
      "outputs": [],
      "stateMutability": "nonpayable",
      "type": "function"
    },
    {
      "inputs": [
        {
          "internalType": "uint8",
          "name": "platform",
          "type": "uint8"
        },
        {
          "internalType": "address",
          "name": "router",
          "type": "address"
        }
      ],
      "name": "addRouter",
      "outputs": [],
      "stateMutability": "nonpayable",
      "type": "function"
    },
    {
      "inputs": [
        {
          "internalType": "address[]",
          "name": "tokens",
          "type": "address[]"
        }
      ],
      "name": "approve",
      "outputs": [],
      "stateMutability": "nonpayable",
      "type": "function"
    },
    {
      "inputs": [
        {
          "internalType": "address[]",
          "name": "tokenIns",
          "type": "address[]"
        },
        {
          "internalType": "uint8[]",
          "name": "counts",
          "type": "uint8[]"
        },
        {
          "internalType": "bytes[]",
          "name": "inputs",
          "type": "bytes[]"
        },
        {
          "internalType": "address",
          "name": "tokenOut",
          "type": "address"
        },
        {
          "internalType": "uint256",
          "name": "amountOutMin",
          "type": "uint256"
        },
        {
          "internalType": "uint256",
          "name": "deadline",
          "type": "uint256"
        }
      ],
      "name": "executeFromEth",
      "outputs": [],
      "stateMutability": "payable",
      "type": "function"
    },
    {
      "inputs": [
        {
          "internalType": "address[]",
          "name": "tokenIns",
          "type": "address[]"
        },
        {
          "internalType": "uint8[]",
          "name": "counts",
          "type": "uint8[]"
        },
        {
          "internalType": "bytes[]",
          "name": "inputs",
          "type": "bytes[]"
        },
        {
          "internalType": "address",
          "name": "tokenOut",
          "type": "address"
        },
        {
          "internalType": "uint256",
          "name": "amountIn",
          "type": "uint256"
        },
        {
          "internalType": "uint256",
          "name": "amountOutMin",
          "type": "uint256"
        },
        {
          "internalType": "uint256",
          "name": "deadline",
          "type": "uint256"
        }
      ],
      "name": "executeFromToken",
      "outputs": [],
      "stateMutability": "nonpayable",
      "type": "function"
    },
    {
      "inputs": [],
      "name": "feeReceipt",
      "outputs": [
        {
          "internalType": "address",
          "name": "",
          "type": "address"
        }
      ],
      "stateMutability": "view",
      "type": "function"
    },
    {
      "inputs": [],
      "name": "owner",
      "outputs": [
        {
          "internalType": "address",
          "name": "",
          "type": "address"
        }
      ],
      "stateMutability": "view",
      "type": "function"
    },
    {
      "inputs": [
        {
          "internalType": "uint8",
          "name": "",
          "type": "uint8"
        }
      ],
      "name": "swapRouters",
      "outputs": [
        {
          "internalType": "address",
          "name": "router",
          "type": "address"
        },
        {
          "internalType": "address",
          "name": "weth",
          "type": "address"
        }
      ],
      "stateMutability": "view",
      "type": "function"
    },
    {
      "inputs": [
        {
          "internalType": "address",
          "name": "_owner",
          "type": "address"
        }
      ],
      "name": "transferOwner",
      "outputs": [],
      "stateMutability": "nonpayable",
      "type": "function"
    },
    {
      "stateMutability": "payable",
      "type": "receive"
    }
  ],
  "bytecode": "0x60a06040523480156200001157600080fd5b5060405162002580380380620025808339810160408190526200003491620002fc565b600080546001600160a01b031916331781556001600160a01b038216608052604080516312a9293f60e21b8152905173b783f05f28dfabd0d09ccb524e6c6289cb0e7c1f92918391634aa4a4fc916004808201926020929091908290030181865afa158015620000a8573d6000803e3d6000fd5b505050506040513d601f19601f82011682018060405250810190620000ce9190620002fc565b6040805180820182526001600160a01b03948516808252928516602080830191825260106000908152600280835293517f328b8e687a0a963892a735f0237cb763bbbbf8ba0c1dfe2c221debb32c4bbd8980546001600160a01b0319908116928b1692909217905592517f328b8e687a0a963892a735f0237cb763bbbbf8ba0c1dfe2c221debb32c4bbd8a80548516918a1691909117905560038054600181810183557fc2575a0e9e593c00f959f8c92f12db2869c3395a3b0502d05e2516446f71f85b9182018054871690991790985586518088018852731372c03b0c542017a256473706ba6121f826398080825273beb654a116aeef764988df0c6b4bf67cc869d01b8287018181526011875289885292517fa4e0f4432e44d027a7b3f953940f096bca7a9bd910297cad2ba7c703c2b799d380548a16918f1691909117905591517fa4e0f4432e44d027a7b3f953940f096bca7a9bd910297cad2ba7c703c2b799d480548916918e169190911790558354808b01855583018054881690911790558751808901909852731dbcc54d42503da1455a38ab74b0e6b780d65bc08089528886019182528985529690945295517fe90b7bceb6e7df5418fb78d8ee546e97c83a08bbccc01a0644d599ccd2a7c2e080548616918b1691909117905591517fe90b7bceb6e7df5418fb78d8ee546e97c83a08bbccc01a0644d599ccd2a7c2e1805485169190991617909755805494850181559095529101805490931617909155506200032e9050565b6000602082840312156200030f57600080fd5b81516001600160a01b03811681146200032757600080fd5b9392505050565b608051612228620003586000396000818161013301528181610382015261057901526122286000f3fe6080604052600436106100a05760003560e01c80638c09fd34116100645780638c09fd34146101725780638da5cb5b146101d3578063b85a8b20146101f3578063e27506351461021c578063ebbc49651461023c578063fcc07a8c1461025157600080fd5b80630a13ac3a146100ac5780634fb2e45d146100ce578063520615ee146100ee57806377a1736b146101015780637ff593b61461012157600080fd5b366100a757005b600080fd5b3480156100b857600080fd5b506100cc6100c7366004611b44565b610266565b005b3480156100da57600080fd5b506100cc6100e9366004611c0e565b610455565b6100cc6100fc366004611c32565b6104bd565b34801561010d57600080fd5b506100cc61011c366004611cf2565b61064b565b34801561012d57600080fd5b506101557f000000000000000000000000000000000000000000000000000000000000000081565b6040516001600160a01b0390911681526020015b60405180910390f35b34801561017e57600080fd5b506101b361018d366004611d4a565b600260205260009081526040902080546001909101546001600160a01b03918216911682565b604080516001600160a01b03938416815292909116602083015201610169565b3480156101df57600080fd5b50600054610155906001600160a01b031681565b3480156101ff57600080fd5b5061020961271081565b60405161ffff9091168152602001610169565b34801561022857600080fd5b506100cc610237366004611d65565b610759565b34801561024857600080fd5b506100cc61091e565b34801561025d57600080fd5b50610209600a81565b80804211156102a75760405162461bcd60e51b8152602060048201526008602482015267646561646c696e6560c01b60448201526064015b60405180910390fd5b878a146102ef5760405162461bcd60e51b81526020600482015260166024820152753632b733ba341037b31031b7bab73a399032b93937b960511b604482015260640161029e565b6103228b8b600081811061030557610305611d9c565b905060200201602081019061031a9190611c0e565b33308761098b565b60018989600081811061033757610337611d9c565b905060200201602081019061034c9190611d4a565b60ff1611156103be576103be8b8b600081811061036b5761036b611d9c565b90506020020160208101906103809190611c0e565b7f00000000000000000000000000000000000000000000000000000000000000006127106103af600a89611dc8565b6103b99190611de5565b610a95565b6103ce8b8b8b8b8b8b8b8a610b8e565b9250337f9f70203000dc5ad49aeaa844d92d2a87451c6cf2d727afb7acce4737076156248c8c60008161040357610403611d9c565b90506020020160208101906104189190611c0e565b604080516001600160a01b039283168152918916602083015281018790526060810186905260800160405180910390a25050505050505050505050565b6000546001600160a01b0316331461049b5760405162461bcd60e51b81526020600482015260096024820152683337b93134b23232b760b91b604482015260640161029e565b600180546001600160a01b0319166001600160a01b0392909216919091179055565b80804211156104f95760405162461bcd60e51b8152602060048201526008602482015267646561646c696e6560c01b604482015260640161029e565b8689146105415760405162461bcd60e51b81526020600482015260166024820152753632b733ba341037b31031b7bab73a399032b93937b960511b604482015260640161029e565b60018888600081811061055657610556611d9c565b905060200201602081019061056b9190611d4a565b60ff1611156105b5576105b57f00000000000000000000000000000000000000000000000000000000000000006127106105a6600a34611dc8565b6105b09190611de5565b610f3b565b6105c58a8a8a8a8a8a8a8a610b8e565b9250337f9f70203000dc5ad49aeaa844d92d2a87451c6cf2d727afb7acce4737076156248b8b6000816105fa576105fa611d9c565b905060200201602081019061060f9190611c0e565b604080516001600160a01b039283168152918816602083015234908201526060810186905260800160405180910390a250505050505050505050565b600354819060005b828110156107525760005b8281101561073f5785858381811061067857610678611d9c565b905060200201602081019061068d9190611c0e565b6001600160a01b031663095ea7b3600383815481106106ae576106ae611d9c565b60009182526020909120015460405160e083901b6001600160e01b03191681526001600160a01b03909116600482015260001960248201526044016020604051808303816000875af1158015610708573d6000803e3d6000fd5b505050506040513d601f19601f8201168201806040525081019061072c9190611e07565b508061073781611e29565b91505061065e565b508061074a81611e29565b915050610653565b5050505050565b6000546001600160a01b0316331461079e5760405162461bcd60e51b81526020600482015260086024820152673337b93134b232b760c11b604482015260640161029e565b6000600f8360ff16111561081557816001600160a01b0316634aa4a4fc6040518163ffffffff1660e01b8152600401602060405180830381865afa1580156107ea573d6000803e3d6000fd5b505050506040513d601f19601f8201168201806040525081019061080e9190611e42565b9050610886565b60018360ff16111561088657816001600160a01b031663ad5c46486040518163ffffffff1660e01b8152600401602060405180830381865afa15801561085f573d6000803e3d6000fd5b505050506040513d601f19601f820116820180604052508101906108839190611e42565b90505b6040805180820182526001600160a01b03938416808252928416602080830191825260ff90961660009081526002909652918520905181549085166001600160a01b031991821617825591516001918201805491909516908316179093556003805493840181559093527fc2575a0e9e593c00f959f8c92f12db2869c3395a3b0502d05e2516446f71f85b9091018054909216179055565b6001546001600160a01b031633146109645760405162461bcd60e51b81526020600482015260096024820152683337b93134b23232b760b91b604482015260640161029e565b60018054600080546001600160a01b03199081166001600160a01b03841617909155169055565b604080516001600160a01b0385811660248301528481166044830152606480830185905283518084039091018152608490920183526020820180516001600160e01b03166323b872dd60e01b17905291516000928392908816916109ef9190611e5f565b6000604051808303816000865af19150503d8060008114610a2c576040519150601f19603f3d011682016040523d82523d6000602084013e610a31565b606091505b5091509150818015610a5b575080511580610a5b575080806020019051810190610a5b9190611e07565b610a8d5760405162461bcd60e51b815260206004820152600360248201526229aa2360e91b604482015260640161029e565b505050505050565b604080516001600160a01b038481166024830152604480830185905283518084039091018152606490920183526020820180516001600160e01b031663a9059cbb60e01b1790529151600092839290871691610af19190611e5f565b6000604051808303816000865af19150503d8060008114610b2e576040519150601f19603f3d011682016040523d82523d6000602084013e610b33565b606091505b5091509150818015610b5d575080511580610b5d575080806020019051810190610b5d9190611e07565b6107525760405162461bcd60e51b815260206004820152600260248201526114d560f21b604482015260640161029e565b600080805b89811015610da5576000808c8c84818110610bb057610bb0611d9c565b9050602002016020810190610bc59190611c0e565b6001600160a01b031603610bda575047610c6e565b8b8b83818110610bec57610bec611d9c565b9050602002016020810190610c019190611c0e565b6040516370a0823160e01b81523060048201526001600160a01b0391909116906370a0823190602401602060405180830381865afa158015610c47573d6000803e3d6000fd5b505050506040513d601f19601f82011682018060405250810190610c6b9190611e8e565b90505b60005b8a8a84818110610c8357610c83611d9c565b9050602002016020810190610c989190611d4a565b60ff16811015610d9057600080610cf98f8f87818110610cba57610cba611d9c565b9050602002016020810190610ccf9190611c0e565b858d8d8a818110610ce257610ce2611d9c565b9050602002810190610cf49190611ea7565b610fe3565b90925090506210740160881b6001600160a01b038216148015610d2357506001600160a01b038916155b15610d4857610d378264e8d4a51000611dc8565b610d419088611eee565b9650610d6e565b806001600160a01b0316896001600160a01b031603610d6e57610d6b8288611eee565b96505b85610d7881611e29565b96505050508080610d8890611e29565b915050610c71565b50508080610d9d90611e29565b915050610b93565b5082821015610df65760405162461bcd60e51b815260206004820152601760248201527f616d6f756e74206f7574206d696e207265717569726564000000000000000000604482015260640161029e565b60005b89811015610f2d5760008b8b83818110610e1557610e15611d9c565b9050602002016020810190610e2a9190611c0e565b6001600160a01b031603610e4d574715610e4857610e483347610f3b565b610f1b565b60008b8b83818110610e6157610e61611d9c565b9050602002016020810190610e769190611c0e565b6040516370a0823160e01b81523060048201526001600160a01b0391909116906370a0823190602401602060405180830381865afa158015610ebc573d6000803e3d6000fd5b505050506040513d601f19601f82011682018060405250810190610ee09190611e8e565b90508015610f1957610f198c8c84818110610efd57610efd611d9c565b9050602002016020810190610f129190611c0e565b3383610a95565b505b80610f2581611e29565b915050610df9565b505098975050505050505050565b604080516000808252602082019092526001600160a01b038416908390604051610f659190611e5f565b60006040518083038185875af1925050503d8060008114610fa2576040519150601f19603f3d011682016040523d82523d6000602084013e610fa7565b606091505b5050905080610fde5760405162461bcd60e51b815260206004820152600360248201526253544560e81b604482015260640161029e565b505050565b813560ff81166000908152600260209081526040808320815180830190925280546001600160a01b0390811680845260019092015416928201929092529192839290916110625760405162461bcd60e51b815260206004820152600d60248201526c191bdb89dd081cdd5c1c1bdc9d609a1b604482015260640161029e565b600f8260ff1611156110b9576020860135925060408601356060870135608088013561271061109561ffff83168c611dc8565b61109f9190611de5565b99506110af84838d89878f61112b565b9650505050611120565b602086013592506040860135606087013560808801356127106110e061ffff83168c611dc8565b6110ea9190611de5565b99508460ff1660010361110c5761110584838d89878f61141a565b965061111c565b61111984838d898e6115f5565b96505b5050505b505094509492505050565b60006001600160a01b03841661126257865160408051610100810182526001600160a01b0388811682526020808c015182169083015262ffffff871682840152600060608301819052600019608084015260a0830187905260c0830181905260e0830152915163414bf38960e01b8152919092169163414bf389916111b39190600401611f17565b6020604051808303816000875af11580156111d2573d6000803e3d6000fd5b505050506040513d601f19601f820116820180604052508101906111f69190611e8e565b875160405163125012df60e21b8152600060048201526001600160a01b0389811660248301529293509116906349404b7c90604401600060405180830381600087803b15801561124557600080fd5b505af1158015611259573d6000803e3d6000fd5b50505050611410565b6001600160a01b0385166113555786600001516001600160a01b031663414bf389836040518061010001604052808b602001516001600160a01b03168152602001886001600160a01b031681526020018762ffffff1681526020018a6001600160a01b0316815260200160001981526020018681526020016000815260200160006001600160a01b03168152506040518363ffffffff1660e01b815260040161130b9190611f17565b60206040518083038185885af1158015611329573d6000803e3d6000fd5b50505050506040513d601f19601f8201168201806040525081019061134e9190611e8e565b9050611410565b865160408051610100810182526001600160a01b038881168252878116602083015262ffffff8716828401528981166060830152600019608083015260a08201869052600060c0830181905260e0830152915163414bf38960e01b8152919092169163414bf389916113ca9190600401611f17565b6020604051808303816000875af11580156113e9573d6000803e3d6000fd5b505050506040513d601f19601f8201168201806040525081019061140d9190611e8e565b90505b9695505050505050565b60006001600160a01b0385166114c157600061143b8860200151868661191c565b8851604051632c19ba9f60e21b81529192506001600160a01b03169063b066ea7c9085906114769060009086908d9060001990600401612097565b60206040518083038185885af1158015611494573d6000803e3d6000fd5b50505050506040513d601f19601f820116820180604052508101906114b99190611e8e565b915050611410565b6001600160a01b03841661155e5760006114e08689602001518661191c565b8851604051639ab6156b60e01b81529192506001600160a01b031690639ab6156b9061151b90869060009086908d90600019906004016120cc565b6020604051808303816000875af115801561153a573d6000803e3d6000fd5b505050506040513d601f19601f820116820180604052508101906114b99190611e8e565b600061156b86868661191c565b88516040516315221fd760e11b81529192506001600160a01b031690632a443fae906115a690869060009086908d90600019906004016120cc565b6020604051808303816000875af11580156115c5573d6000803e3d6000fd5b505050506040513d601f19601f820116820180604052508101906115e99190611e8e565b98975050505050505050565b604080516002808252606082018352600092839291906020830190803683370190505090506001600160a01b03851661172b5786602001518160008151811061164057611640611d9c565b60200260200101906001600160a01b031690816001600160a01b031681525050838160018151811061167457611674611d9c565b6001600160a01b0392831660209182029290920101528751604051637ff36ab560e01b81526000929190911690637ff36ab59086906116bf90859087908d9060001990600401612108565b60006040518083038185885af11580156116dd573d6000803e3d6000fd5b50505050506040513d6000823e601f3d908101601f191682016040526117069190810190612121565b90508060008151811061171b5761171b611d9c565b6020026020010151925050611912565b6001600160a01b03841661181757848160008151811061174d5761174d611d9c565b60200260200101906001600160a01b031690816001600160a01b03168152505086602001518160018151811061178557611785611d9c565b6001600160a01b03928316602091820292909201015287516040516318cbafe560e01b815260009291909116906318cbafe5906117d0908790859087908d90600019906004016121d3565b6000604051808303816000875af11580156117ef573d6000803e3d6000fd5b505050506040513d6000823e601f3d908101601f191682016040526117069190810190612121565b848160008151811061182b5761182b611d9c565b60200260200101906001600160a01b031690816001600160a01b031681525050838160018151811061185f5761185f611d9c565b6001600160a01b03928316602091820292909201015287516040516338ed173960e01b815260009291909116906338ed1739906118aa908790859087908d90600019906004016121d3565b6000604051808303816000875af11580156118c9573d6000803e3d6000fd5b505050506040513d6000823e601f3d908101601f191682016040526118f19190810190612121565b90508060008151811061190657611906611d9c565b60200260200101519250505b5095945050505050565b61194060405180606001604052806060815260200160608152602001606081525090565b604080516002808252606082018352600092602083019080368337019050509050848160008151811061197557611975611d9c565b60200260200101906001600160a01b031690816001600160a01b03168152505083816001815181106119a9576119a9611d9c565b6001600160a01b03929092166020928302919091019091015260408051600180825281830190925260009181602001602082028036833701905050905083816000815181106119fa576119fa611d9c565b60209081029190910101526040805160018082528183019092526000918160200160208202803683370190505090508415611a7857600281600081518110611a4457611a44611d9c565b60200260200101906002811115611a5d57611a5d611f80565b90816002811115611a7057611a70611f80565b905250611abd565b600081600081518110611a8d57611a8d611d9c565b60200260200101906002811115611aa657611aa6611f80565b90816002811115611ab957611ab9611f80565b9052505b604080516060810182529283526020830191909152810191909152949350505050565b60008083601f840112611af257600080fd5b50813567ffffffffffffffff811115611b0a57600080fd5b6020830191508360208260051b8501011115611b2557600080fd5b9250929050565b6001600160a01b0381168114611b4157600080fd5b50565b60008060008060008060008060008060e08b8d031215611b6357600080fd5b8a3567ffffffffffffffff80821115611b7b57600080fd5b611b878e838f01611ae0565b909c509a5060208d0135915080821115611ba057600080fd5b611bac8e838f01611ae0565b909a50985060408d0135915080821115611bc557600080fd5b50611bd28d828e01611ae0565b90975095505060608b0135611be681611b2c565b8094505060808b0135925060a08b0135915060c08b013590509295989b9194979a5092959850565b600060208284031215611c2057600080fd5b8135611c2b81611b2c565b9392505050565b600080600080600080600080600060c08a8c031215611c5057600080fd5b893567ffffffffffffffff80821115611c6857600080fd5b611c748d838e01611ae0565b909b50995060208c0135915080821115611c8d57600080fd5b611c998d838e01611ae0565b909950975060408c0135915080821115611cb257600080fd5b50611cbf8c828d01611ae0565b90965094505060608a0135611cd381611b2c565b8093505060808a0135915060a08a013590509295985092959850929598565b60008060208385031215611d0557600080fd5b823567ffffffffffffffff811115611d1c57600080fd5b611d2885828601611ae0565b90969095509350505050565b803560ff81168114611d4557600080fd5b919050565b600060208284031215611d5c57600080fd5b611c2b82611d34565b60008060408385031215611d7857600080fd5b611d8183611d34565b91506020830135611d9181611b2c565b809150509250929050565b634e487b7160e01b600052603260045260246000fd5b634e487b7160e01b600052601160045260246000fd5b8082028115828204841417611ddf57611ddf611db2565b92915050565b600082611e0257634e487b7160e01b600052601260045260246000fd5b500490565b600060208284031215611e1957600080fd5b81518015158114611c2b57600080fd5b600060018201611e3b57611e3b611db2565b5060010190565b600060208284031215611e5457600080fd5b8151611c2b81611b2c565b6000825160005b81811015611e805760208186018101518583015201611e66565b506000920191825250919050565b600060208284031215611ea057600080fd5b5051919050565b6000808335601e19843603018112611ebe57600080fd5b83018035915067ffffffffffffffff821115611ed957600080fd5b602001915036819003821315611b2557600080fd5b80820180821115611ddf57611ddf611db2565b634e487b7160e01b600052604160045260246000fd5b81516001600160a01b03908116825260208084015182169083015260408084015162ffffff16908301526060808401518216908301526080808401519083015260a0838101519083015260c0808401519083015260e09283015116918101919091526101000190565b634e487b7160e01b600052602160045260246000fd5b600081518084526020808501945080840160005b83811015611fcf5781516001600160a01b031687529582019590820190600101611faa565b509495945050505050565b805160608084528151908401819052600091602091908201906080860190845b8181101561201657835183529284019291840191600101611ffa565b50508483015186820387850152805180835290840192506000918401905b808310156120725783516003811061205c57634e487b7160e01b600052602160045260246000fd5b8252928401926001929092019190840190612034565b5060408601519350868103604088015261208c8185611f96565b979650505050505050565b8481526080602082015260006120b06080830186611fda565b6001600160a01b03949094166040830152506060015292915050565b85815284602082015260a0604082015260006120eb60a0830186611fda565b6001600160a01b0394909416606083015250608001529392505050565b8481526080602082015260006120b06080830186611f96565b6000602080838503121561213457600080fd5b825167ffffffffffffffff8082111561214c57600080fd5b818501915085601f83011261216057600080fd5b81518181111561217257612172611f01565b8060051b604051601f19603f8301168101818110858211171561219757612197611f01565b6040529182528482019250838101850191888311156121b557600080fd5b938501935b828510156115e9578451845293850193928501926121ba565b85815284602082015260a0604082015260006120eb60a0830186611f9656fea26469706673582212205ef8cc7a38b1854297c42bd4ba243d52b2d4c5857e92743d31e77929c1e9c1b864736f6c63430008120033",
  "linkReferences": {},
  "deployedLinkReferences": {}
}