{
  "_format": "hh-sol-artifact-1",
  "contractName": "IbAggregatorRouter",
  "sourceName": "contracts/ibaggregator.sol",
  "abi": [
    {
      "inputs": [
        {
          "internalType": "address",
          "name": "receipt",
          "type": "address"
        }
      ],
      "stateMutability": "nonpayable",
      "type": "constructor"
    },
    {
      "anonymous": false,
      "inputs": [
        {
          "indexed": true,
          "internalType": "address",
          "name": "sender",
          "type": "address"
        },
        {
          "indexed": false,
          "internalType": "address",
          "name": "tokenIn",
          "type": "address"
        },
        {
          "indexed": false,
          "internalType": "address",
          "name": "tokenOut",
          "type": "address"
        },
        {
          "indexed": false,
          "internalType": "uint256",
          "name": "amountIn",
          "type": "uint256"
        },
        {
          "indexed": false,
          "internalType": "uint256",
          "name": "amountOut",
          "type": "uint256"
        }
      ],
      "name": "AggregatorSwap",
      "type": "event"
    },
    {
      "inputs": [],
      "name": "FEERATE",
      "outputs": [
        {
          "internalType": "uint16",
          "name": "",
          "type": "uint16"
        }
      ],
      "stateMutability": "view",
      "type": "function"
    },
    {
      "inputs": [],
      "name": "PERCENT",
      "outputs": [
        {
          "internalType": "uint16",
          "name": "",
          "type": "uint16"
        }
      ],
      "stateMutability": "view",
      "type": "function"
    },
    {
      "inputs": [],
      "name": "acceptOwner",
      "outputs": [],
      "stateMutability": "nonpayable",
      "type": "function"
    },
    {
      "inputs": [
        {
          "internalType": "uint8",
          "name": "platform",
          "type": "uint8"
        },
        {
          "internalType": "address",
          "name": "router",
          "type": "address"
        }
      ],
      "name": "addRouter",
      "outputs": [],
      "stateMutability": "nonpayable",
      "type": "function"
    },
    {
      "inputs": [
        {
          "internalType": "address[]",
          "name": "tokens",
          "type": "address[]"
        }
      ],
      "name": "approve",
      "outputs": [],
      "stateMutability": "nonpayable",
      "type": "function"
    },
    {
      "inputs": [
        {
          "internalType": "address[]",
          "name": "tokenIns",
          "type": "address[]"
        },
        {
          "internalType": "uint8[]",
          "name": "counts",
          "type": "uint8[]"
        },
        {
          "internalType": "bytes[]",
          "name": "inputs",
          "type": "bytes[]"
        },
        {
          "internalType": "address",
          "name": "tokenOut",
          "type": "address"
        },
        {
          "internalType": "uint256",
          "name": "amountOutMin",
          "type": "uint256"
        },
        {
          "internalType": "uint256",
          "name": "deadline",
          "type": "uint256"
        }
      ],
      "name": "executeFromEth",
      "outputs": [],
      "stateMutability": "payable",
      "type": "function"
    },
    {
      "inputs": [
        {
          "internalType": "address[]",
          "name": "tokenIns",
          "type": "address[]"
        },
        {
          "internalType": "uint8[]",
          "name": "counts",
          "type": "uint8[]"
        },
        {
          "internalType": "bytes[]",
          "name": "inputs",
          "type": "bytes[]"
        },
        {
          "internalType": "address",
          "name": "tokenOut",
          "type": "address"
        },
        {
          "internalType": "uint256",
          "name": "amountIn",
          "type": "uint256"
        },
        {
          "internalType": "uint256",
          "name": "amountOutMin",
          "type": "uint256"
        },
        {
          "internalType": "uint256",
          "name": "deadline",
          "type": "uint256"
        }
      ],
      "name": "executeFromToken",
      "outputs": [],
      "stateMutability": "nonpayable",
      "type": "function"
    },
    {
      "inputs": [],
      "name": "feeReceipt",
      "outputs": [
        {
          "internalType": "address",
          "name": "",
          "type": "address"
        }
      ],
      "stateMutability": "view",
      "type": "function"
    },
    {
      "inputs": [],
      "name": "owner",
      "outputs": [
        {
          "internalType": "address",
          "name": "",
          "type": "address"
        }
      ],
      "stateMutability": "view",
      "type": "function"
    },
    {
      "inputs": [
        {
          "internalType": "address",
          "name": "",
          "type": "address"
        },
        {
          "internalType": "address",
          "name": "",
          "type": "address"
        },
        {
          "internalType": "uint256",
          "name": "",
          "type": "uint256"
        }
      ],
      "name": "pairBinSteps",
      "outputs": [
        {
          "internalType": "uint256",
          "name": "",
          "type": "uint256"
        }
      ],
      "stateMutability": "view",
      "type": "function"
    },
    {
      "inputs": [
        {
          "internalType": "address[]",
          "name": "tokens0",
          "type": "address[]"
        },
        {
          "internalType": "address[]",
          "name": "tokens1",
          "type": "address[]"
        },
        {
          "internalType": "uint256[]",
          "name": "_binSteps",
          "type": "uint256[]"
        },
        {
          "internalType": "uint8[]",
          "name": "_versions",
          "type": "uint8[]"
        }
      ],
      "name": "setShimmerSeaPath",
      "outputs": [],
      "stateMutability": "nonpayable",
      "type": "function"
    },
    {
      "inputs": [
        {
          "internalType": "uint8",
          "name": "",
          "type": "uint8"
        }
      ],
      "name": "swapRouters",
      "outputs": [
        {
          "internalType": "address",
          "name": "router",
          "type": "address"
        },
        {
          "internalType": "address",
          "name": "weth",
          "type": "address"
        }
      ],
      "stateMutability": "view",
      "type": "function"
    },
    {
      "inputs": [
        {
          "internalType": "address",
          "name": "_owner",
          "type": "address"
        }
      ],
      "name": "transferOwner",
      "outputs": [],
      "stateMutability": "nonpayable",
      "type": "function"
    },
    {
      "inputs": [
        {
          "internalType": "address",
          "name": "",
          "type": "address"
        },
        {
          "internalType": "address",
          "name": "",
          "type": "address"
        },
        {
          "internalType": "uint256",
          "name": "",
          "type": "uint256"
        }
      ],
      "name": "versions",
      "outputs": [
        {
          "internalType": "enum ILBRouter.Version",
          "name": "",
          "type": "uint8"
        }
      ],
      "stateMutability": "view",
      "type": "function"
    },
    {
      "stateMutability": "payable",
      "type": "receive"
    }
  ],
  "bytecode": "0x60a06040523480156200001157600080fd5b5060405162002c7638038062002c768339810160408190526200003491620002fc565b600080546001600160a01b031916331781556001600160a01b038216608052604080516312a9293f60e21b8152905173b783f05f28dfabd0d09ccb524e6c6289cb0e7c1f92918391634aa4a4fc916004808201926020929091908290030181865afa158015620000a8573d6000803e3d6000fd5b505050506040513d601f19601f82011682018060405250810190620000ce9190620002fc565b6040805180820182526001600160a01b03948516808252928516602080830191825260106000908152600280835293517f328b8e687a0a963892a735f0237cb763bbbbf8ba0c1dfe2c221debb32c4bbd8980546001600160a01b0319908116928b1692909217905592517f328b8e687a0a963892a735f0237cb763bbbbf8ba0c1dfe2c221debb32c4bbd8a80548516918a1691909117905560038054600181810183557fc2575a0e9e593c00f959f8c92f12db2869c3395a3b0502d05e2516446f71f85b9182018054871690991790985586518088018852731372c03b0c542017a256473706ba6121f826398080825273beb654a116aeef764988df0c6b4bf67cc869d01b8287018181526011875289885292517fa4e0f4432e44d027a7b3f953940f096bca7a9bd910297cad2ba7c703c2b799d380548a16918f1691909117905591517fa4e0f4432e44d027a7b3f953940f096bca7a9bd910297cad2ba7c703c2b799d480548916918e169190911790558354808b01855583018054881690911790558751808901909852731dbcc54d42503da1455a38ab74b0e6b780d65bc08089528886019182528985529690945295517fe90b7bceb6e7df5418fb78d8ee546e97c83a08bbccc01a0644d599ccd2a7c2e080548616918b1691909117905591517fe90b7bceb6e7df5418fb78d8ee546e97c83a08bbccc01a0644d599ccd2a7c2e1805485169190991617909755805494850181559095529101805490931617909155506200032e9050565b6000602082840312156200030f57600080fd5b81516001600160a01b03811681146200032757600080fd5b9392505050565b60805161291e62000358600039600081816101740152818161043e0152610635015261291e6000f3fe6080604052600436106100e15760003560e01c8063b85a8b201161007f578063e275063511610059578063e2750635146102b8578063e37a1877146102d8578063ebbc4965146102f8578063fcc07a8c1461030d57600080fd5b8063b85a8b2014610234578063ccfed3ac1461025d578063deef2e8c1461028b57600080fd5b806377a1736b116100bb57806377a1736b146101425780637ff593b6146101625780638c09fd34146101b35780638da5cb5b1461021457600080fd5b80630a13ac3a146100ed5780634fb2e45d1461010f578063520615ee1461012f57600080fd5b366100e857005b600080fd5b3480156100f957600080fd5b5061010d610108366004611fe1565b610322565b005b34801561011b57600080fd5b5061010d61012a3660046120ab565b610511565b61010d61013d3660046120cf565b610579565b34801561014e57600080fd5b5061010d61015d36600461218f565b610707565b34801561016e57600080fd5b506101967f000000000000000000000000000000000000000000000000000000000000000081565b6040516001600160a01b0390911681526020015b60405180910390f35b3480156101bf57600080fd5b506101f46101ce3660046121e7565b600260205260009081526040902080546001909101546001600160a01b03918216911682565b604080516001600160a01b039384168152929091166020830152016101aa565b34801561022057600080fd5b50600054610196906001600160a01b031681565b34801561024057600080fd5b5061024a61271081565b60405161ffff90911681526020016101aa565b34801561026957600080fd5b5061027d610278366004612202565b610815565b6040519081526020016101aa565b34801561029757600080fd5b506102ab6102a6366004612202565b610853565b6040516101aa919061227b565b3480156102c457600080fd5b5061010d6102d336600461228f565b6108a3565b3480156102e457600080fd5b5061010d6102f3366004612407565b610a68565b34801561030457600080fd5b5061010d610df9565b34801561031957600080fd5b5061024a600a81565b80804211156103635760405162461bcd60e51b8152602060048201526008602482015267646561646c696e6560c01b60448201526064015b60405180910390fd5b878a146103ab5760405162461bcd60e51b81526020600482015260166024820152753632b733ba341037b31031b7bab73a399032b93937b960511b604482015260640161035a565b6103de8b8b60008181106103c1576103c1612507565b90506020020160208101906103d691906120ab565b333087610e66565b6001898960008181106103f3576103f3612507565b905060200201602081019061040891906121e7565b60ff16111561047a5761047a8b8b600081811061042757610427612507565b905060200201602081019061043c91906120ab565b7f000000000000000000000000000000000000000000000000000000000000000061271061046b600a89612533565b610475919061254a565b610f70565b61048a8b8b8b8b8b8b8b8a611069565b9250337f9f70203000dc5ad49aeaa844d92d2a87451c6cf2d727afb7acce4737076156248c8c6000816104bf576104bf612507565b90506020020160208101906104d491906120ab565b604080516001600160a01b039283168152918916602083015281018790526060810186905260800160405180910390a25050505050505050505050565b6000546001600160a01b031633146105575760405162461bcd60e51b81526020600482015260096024820152683337b93134b23232b760b91b604482015260640161035a565b600180546001600160a01b0319166001600160a01b0392909216919091179055565b80804211156105b55760405162461bcd60e51b8152602060048201526008602482015267646561646c696e6560c01b604482015260640161035a565b8689146105fd5760405162461bcd60e51b81526020600482015260166024820152753632b733ba341037b31031b7bab73a399032b93937b960511b604482015260640161035a565b60018888600081811061061257610612612507565b905060200201602081019061062791906121e7565b60ff161115610671576106717f0000000000000000000000000000000000000000000000000000000000000000612710610662600a34612533565b61066c919061254a565b6112cf565b6106818a8a8a8a8a8a8a8a611069565b9250337f9f70203000dc5ad49aeaa844d92d2a87451c6cf2d727afb7acce4737076156248b8b6000816106b6576106b6612507565b90506020020160208101906106cb91906120ab565b604080516001600160a01b039283168152918816602083015234908201526060810186905260800160405180910390a250505050505050505050565b600354819060005b8281101561080e5760005b828110156107fb5785858381811061073457610734612507565b905060200201602081019061074991906120ab565b6001600160a01b031663095ea7b36003838154811061076a5761076a612507565b60009182526020909120015460405160e083901b6001600160e01b03191681526001600160a01b03909116600482015260001960248201526044016020604051808303816000875af11580156107c4573d6000803e3d6000fd5b505050506040513d601f19601f820116820180604052508101906107e8919061256c565b50806107f38161258e565b91505061071a565b50806108068161258e565b91505061070f565b5050505050565b6004602052826000526040600020602052816000526040600020818154811061083d57600080fd5b9060005260206000200160009250925050505481565b6005602052826000526040600020602052816000526040600020818154811061087b57600080fd5b906000526020600020906020918282040191900692509250509054906101000a900460ff1681565b6000546001600160a01b031633146108e85760405162461bcd60e51b81526020600482015260086024820152673337b93134b232b760c11b604482015260640161035a565b6000600f8360ff16111561095f57816001600160a01b0316634aa4a4fc6040518163ffffffff1660e01b8152600401602060405180830381865afa158015610934573d6000803e3d6000fd5b505050506040513d601f19601f8201168201806040525081019061095891906125a7565b90506109d0565b60018360ff1611156109d057816001600160a01b031663ad5c46486040518163ffffffff1660e01b8152600401602060405180830381865afa1580156109a9573d6000803e3d6000fd5b505050506040513d601f19601f820116820180604052508101906109cd91906125a7565b90505b6040805180820182526001600160a01b03938416808252928416602080830191825260ff90961660009081526002909652918520905181549085166001600160a01b031991821617825591516001918201805491909516908316179093556003805493840181559093527fc2575a0e9e593c00f959f8c92f12db2869c3395a3b0502d05e2516446f71f85b9091018054909216179055565b6000546001600160a01b03163314610aad5760405162461bcd60e51b81526020600482015260086024820152673337b93134b232b760c11b604482015260640161035a565b60005b845181101561080e5760408051600180825281830190925260009160208083019080368337019050509050838281518110610aed57610aed612507565b602002602001015181600081518110610b0857610b08612507565b6020908102919091010152604080516001808252818301909252600091816020016020820280368337019050509050838381518110610b4957610b49612507565b602002602001015160ff166002811115610b6557610b65612243565b81600081518110610b7857610b78612507565b60200260200101906002811115610b9157610b91612243565b90816002811115610ba457610ba4612243565b815250508160046000898681518110610bbf57610bbf612507565b60200260200101516001600160a01b03166001600160a01b031681526020019081526020016000206000888681518110610bfb57610bfb612507565b60200260200101516001600160a01b03166001600160a01b031681526020019081526020016000209080519060200190610c36929190611e72565b508160046000888681518110610c4e57610c4e612507565b60200260200101516001600160a01b03166001600160a01b031681526020019081526020016000206000898681518110610c8a57610c8a612507565b60200260200101516001600160a01b03166001600160a01b031681526020019081526020016000209080519060200190610cc5929190611e72565b508060056000898681518110610cdd57610cdd612507565b60200260200101516001600160a01b03166001600160a01b031681526020019081526020016000206000888681518110610d1957610d19612507565b60200260200101516001600160a01b03166001600160a01b031681526020019081526020016000209080519060200190610d54929190611ebd565b508060056000888681518110610d6c57610d6c612507565b60200260200101516001600160a01b03166001600160a01b031681526020019081526020016000206000898681518110610da857610da8612507565b60200260200101516001600160a01b03166001600160a01b031681526020019081526020016000209080519060200190610de3929190611ebd565b5050508080610df19061258e565b915050610ab0565b6001546001600160a01b03163314610e3f5760405162461bcd60e51b81526020600482015260096024820152683337b93134b23232b760b91b604482015260640161035a565b60018054600080546001600160a01b03199081166001600160a01b03841617909155169055565b604080516001600160a01b0385811660248301528481166044830152606480830185905283518084039091018152608490920183526020820180516001600160e01b03166323b872dd60e01b1790529151600092839290881691610eca91906125c4565b6000604051808303816000865af19150503d8060008114610f07576040519150601f19603f3d011682016040523d82523d6000602084013e610f0c565b606091505b5091509150818015610f36575080511580610f36575080806020019051810190610f36919061256c565b610f685760405162461bcd60e51b815260206004820152600360248201526229aa2360e91b604482015260640161035a565b505050505050565b604080516001600160a01b038481166024830152604480830185905283518084039091018152606490920183526020820180516001600160e01b031663a9059cbb60e01b1790529151600092839290871691610fcc91906125c4565b6000604051808303816000865af19150503d8060008114611009576040519150601f19603f3d011682016040523d82523d6000602084013e61100e565b606091505b5091509150818015611038575080511580611038575080806020019051810190611038919061256c565b61080e5760405162461bcd60e51b815260206004820152600260248201526114d560f21b604482015260640161035a565b600080805b89811015611271576000808c8c8481811061108b5761108b612507565b90506020020160208101906110a091906120ab565b6001600160a01b0316036110b5575047611149565b8b8b838181106110c7576110c7612507565b90506020020160208101906110dc91906120ab565b6040516370a0823160e01b81523060048201526001600160a01b0391909116906370a0823190602401602060405180830381865afa158015611122573d6000803e3d6000fd5b505050506040513d601f19601f8201168201806040525081019061114691906125f3565b90505b60005b8a8a8481811061115e5761115e612507565b905060200201602081019061117391906121e7565b60ff1681101561125c576000806111d48f8f8781811061119557611195612507565b90506020020160208101906111aa91906120ab565b858d8d8a8181106111bd576111bd612507565b90506020028101906111cf919061260c565b611377565b90925090506210740160881b6001600160a01b0382161480156111fe57506001600160a01b038916155b156112145761120d8288612653565b965061123a565b806001600160a01b0316896001600160a01b03160361123a576112378288612653565b96505b856112448161258e565b965050505080806112549061258e565b91505061114c565b505080806112699061258e565b91505061106e565b50828210156112c25760405162461bcd60e51b815260206004820152601760248201527f616d6f756e74206f7574206d696e207265717569726564000000000000000000604482015260640161035a565b5098975050505050505050565b604080516000808252602082019092526001600160a01b0384169083906040516112f991906125c4565b60006040518083038185875af1925050503d8060008114611336576040519150601f19603f3d011682016040523d82523d6000602084013e61133b565b606091505b50509050806113725760405162461bcd60e51b815260206004820152600360248201526253544560e81b604482015260640161035a565b505050565b813560ff81166000908152600260209081526040808320815180830190925280546001600160a01b0390811680845260019092015416928201929092529192839290916113f65760405162461bcd60e51b815260206004820152600d60248201526c191bdb89dd081cdd5c1c1bdc9d609a1b604482015260640161035a565b600f8260ff16111561144d576020860135925060408601356060870135608088013561271061142961ffff83168c612533565b611433919061254a565b995061144384838d89878f6114b8565b96505050506114ad565b602086013592506040860135606087013561271061146f61ffff83168b612533565b611479919061254a565b98508360ff1660010361149a5761149383838c888d6117a7565b95506114aa565b6114a783838c888d611980565b95505b50505b505094509492505050565b60006001600160a01b0384166115ef57865160408051610100810182526001600160a01b0388811682526020808c015182169083015262ffffff871682840152600060608301819052600019608084015260a0830187905260c0830181905260e0830152915163414bf38960e01b8152919092169163414bf389916115409190600401612666565b6020604051808303816000875af115801561155f573d6000803e3d6000fd5b505050506040513d601f19601f8201168201806040525081019061158391906125f3565b875160405163125012df60e21b8152600060048201526001600160a01b0389811660248301529293509116906349404b7c90604401600060405180830381600087803b1580156115d257600080fd5b505af11580156115e6573d6000803e3d6000fd5b5050505061179d565b6001600160a01b0385166116e25786600001516001600160a01b031663414bf389836040518061010001604052808b602001516001600160a01b03168152602001886001600160a01b031681526020018762ffffff1681526020018a6001600160a01b0316815260200160001981526020018681526020016000815260200160006001600160a01b03168152506040518363ffffffff1660e01b81526004016116989190612666565b60206040518083038185885af11580156116b6573d6000803e3d6000fd5b50505050506040513d601f19601f820116820180604052508101906116db91906125f3565b905061179d565b865160408051610100810182526001600160a01b038881168252878116602083015262ffffff8716828401528981166060830152600019608083015260a08201869052600060c0830181905260e0830152915163414bf38960e01b8152919092169163414bf389916117579190600401612666565b6020604051808303816000875af1158015611776573d6000803e3d6000fd5b505050506040513d601f19601f8201168201806040525081019061179a91906125f3565b90505b9695505050505050565b60006001600160a01b03841661184d5760006117c7876020015185611ca7565b8751604051632c19ba9f60e21b81529192506001600160a01b03169063b066ea7c9085906118029060009086908c90600019906004016127b9565b60206040518083038185885af1158015611820573d6000803e3d6000fd5b50505050506040513d601f19601f8201168201806040525081019061184591906125f3565b915050611977565b6001600160a01b0383166118e957600061186b858860200151611ca7565b8751604051639ab6156b60e01b81529192506001600160a01b031690639ab6156b906118a690869060009086908c90600019906004016127ee565b6020604051808303816000875af11580156118c5573d6000803e3d6000fd5b505050506040513d601f19601f8201168201806040525081019061184591906125f3565b60006118f58585611ca7565b87516040516315221fd760e11b81529192506001600160a01b031690632a443fae9061193090869060009086908c90600019906004016127ee565b6020604051808303816000875af115801561194f573d6000803e3d6000fd5b505050506040513d601f19601f8201168201806040525081019061197391906125f3565b9150505b95945050505050565b604080516002808252606082018352600092839291906020830190803683370190505090506001600160a01b038516611ab6578660200151816000815181106119cb576119cb612507565b60200260200101906001600160a01b031690816001600160a01b03168152505083816001815181106119ff576119ff612507565b6001600160a01b0392831660209182029290920101528751604051637ff36ab560e01b81526000929190911690637ff36ab5908690611a4a90859087908d906000199060040161282a565b60006040518083038185885af1158015611a68573d6000803e3d6000fd5b50505050506040513d6000823e601f3d908101601f19168201604052611a919190810190612843565b905080600081518110611aa657611aa6612507565b6020026020010151925050611c9d565b6001600160a01b038416611ba2578481600081518110611ad857611ad8612507565b60200260200101906001600160a01b031690816001600160a01b031681525050866020015181600181518110611b1057611b10612507565b6001600160a01b03928316602091820292909201015287516040516318cbafe560e01b815260009291909116906318cbafe590611b5b908790859087908d90600019906004016128c9565b6000604051808303816000875af1158015611b7a573d6000803e3d6000fd5b505050506040513d6000823e601f3d908101601f19168201604052611a919190810190612843565b8481600081518110611bb657611bb6612507565b60200260200101906001600160a01b031690816001600160a01b0316815250508381600181518110611bea57611bea612507565b6001600160a01b03928316602091820292909201015287516040516338ed173960e01b815260009291909116906338ed173990611c35908790859087908d90600019906004016128c9565b6000604051808303816000875af1158015611c54573d6000803e3d6000fd5b505050506040513d6000823e601f3d908101601f19168201604052611c7c9190810190612843565b905080600081518110611c9157611c91612507565b60200260200101519250505b5095945050505050565b611ccb60405180606001604052806060815260200160608152602001606081525090565b6040805160028082526060820183526000926020830190803683370190505090508381600081518110611d0057611d00612507565b60200260200101906001600160a01b031690816001600160a01b0316815250508281600181518110611d3457611d34612507565b6001600160a01b03928316602091820292909201810191909152604080518784166000908152600484528281209488168152938352928190208054608093810285018401909252606084018281528493909290840182828015611db657602002820191906000526020600020905b815481526020019060010190808311611da2575b50505091835250506001600160a01b0380871660009081526005602090815260408083209389168352928152908290208054835181840281018401909452808452938201939091830182828015611e5c57602002820191906000526020600020906000905b82829054906101000a900460ff166002811115611e3a57611e3a612243565b815260206001928301818104948501949093039092029101808411611e1b5790505b5050509183525050602001919091529392505050565b828054828255906000526020600020908101928215611ead579160200282015b82811115611ead578251825591602001919060010190611e92565b50611eb9929150611f68565b5090565b82805482825590600052602060002090601f01602090048101928215611ead5791602002820160005b83821115611f3257835183826101000a81548160ff02191690836002811115611f1157611f11612243565b02179055509260200192600101602081600001049283019260010302611ee6565b8015611f5f5782816101000a81549060ff0219169055600101602081600001049283019260010302611f32565b5050611eb99291505b5b80821115611eb95760008155600101611f69565b60008083601f840112611f8f57600080fd5b50813567ffffffffffffffff811115611fa757600080fd5b6020830191508360208260051b8501011115611fc257600080fd5b9250929050565b6001600160a01b0381168114611fde57600080fd5b50565b60008060008060008060008060008060e08b8d03121561200057600080fd5b8a3567ffffffffffffffff8082111561201857600080fd5b6120248e838f01611f7d565b909c509a5060208d013591508082111561203d57600080fd5b6120498e838f01611f7d565b909a50985060408d013591508082111561206257600080fd5b5061206f8d828e01611f7d565b90975095505060608b013561208381611fc9565b8094505060808b0135925060a08b0135915060c08b013590509295989b9194979a5092959850565b6000602082840312156120bd57600080fd5b81356120c881611fc9565b9392505050565b600080600080600080600080600060c08a8c0312156120ed57600080fd5b893567ffffffffffffffff8082111561210557600080fd5b6121118d838e01611f7d565b909b50995060208c013591508082111561212a57600080fd5b6121368d838e01611f7d565b909950975060408c013591508082111561214f57600080fd5b5061215c8c828d01611f7d565b90965094505060608a013561217081611fc9565b8093505060808a0135915060a08a013590509295985092959850929598565b600080602083850312156121a257600080fd5b823567ffffffffffffffff8111156121b957600080fd5b6121c585828601611f7d565b90969095509350505050565b803560ff811681146121e257600080fd5b919050565b6000602082840312156121f957600080fd5b6120c8826121d1565b60008060006060848603121561221757600080fd5b833561222281611fc9565b9250602084013561223281611fc9565b929592945050506040919091013590565b634e487b7160e01b600052602160045260246000fd5b6003811061227757634e487b7160e01b600052602160045260246000fd5b9052565b602081016122898284612259565b92915050565b600080604083850312156122a257600080fd5b6122ab836121d1565b915060208301356122bb81611fc9565b809150509250929050565b634e487b7160e01b600052604160045260246000fd5b604051601f8201601f1916810167ffffffffffffffff81118282101715612305576123056122c6565b604052919050565b600067ffffffffffffffff821115612327576123276122c6565b5060051b60200190565b600082601f83011261234257600080fd5b813560206123576123528361230d565b6122dc565b82815260059290921b8401810191818101908684111561237657600080fd5b8286015b8481101561239a57803561238d81611fc9565b835291830191830161237a565b509695505050505050565b600082601f8301126123b657600080fd5b813560206123c66123528361230d565b82815260059290921b840181019181810190868411156123e557600080fd5b8286015b8481101561239a576123fa816121d1565b83529183019183016123e9565b6000806000806080858703121561241d57600080fd5b843567ffffffffffffffff8082111561243557600080fd5b61244188838901612331565b955060209150818701358181111561245857600080fd5b61246489828a01612331565b95505060408701358181111561247957600080fd5b8701601f8101891361248a57600080fd5b80356124986123528261230d565b81815260059190911b8201840190848101908b8311156124b757600080fd5b928501925b828410156124d5578335825292850192908501906124bc565b965050505060608701359150808211156124ee57600080fd5b506124fb878288016123a5565b91505092959194509250565b634e487b7160e01b600052603260045260246000fd5b634e487b7160e01b600052601160045260246000fd5b80820281158282048414176122895761228961251d565b60008261256757634e487b7160e01b600052601260045260246000fd5b500490565b60006020828403121561257e57600080fd5b815180151581146120c857600080fd5b6000600182016125a0576125a061251d565b5060010190565b6000602082840312156125b957600080fd5b81516120c881611fc9565b6000825160005b818110156125e557602081860181015185830152016125cb565b506000920191825250919050565b60006020828403121561260557600080fd5b5051919050565b6000808335601e1984360301811261262357600080fd5b83018035915067ffffffffffffffff82111561263e57600080fd5b602001915036819003821315611fc257600080fd5b808201808211156122895761228961251d565b81516001600160a01b03908116825260208084015182169083015260408084015162ffffff16908301526060808401518216908301526080808401519083015260a0838101519083015260c0808401519083015260e09283015116918101919091526101000190565b600081518084526020808501945080840160005b838110156127085781516001600160a01b0316875295820195908201906001016126e3565b509495945050505050565b805160608084528151908401819052600091602091908201906080860190845b8181101561274f57835183529284019291840191600101612733565b50508483015186820387850152805180835290840192506000918401905b8083101561279457612780828551612259565b92840192600192909201919084019061276d565b506040860151935086810360408801526127ae81856126cf565b979650505050505050565b8481526080602082015260006127d26080830186612713565b6001600160a01b03949094166040830152506060015292915050565b85815284602082015260a06040820152600061280d60a0830186612713565b6001600160a01b0394909416606083015250608001529392505050565b8481526080602082015260006127d260808301866126cf565b6000602080838503121561285657600080fd5b825167ffffffffffffffff81111561286d57600080fd5b8301601f8101851361287e57600080fd5b805161288c6123528261230d565b81815260059190911b820183019083810190878311156128ab57600080fd5b928401925b828410156127ae578351825292840192908401906128b0565b85815284602082015260a06040820152600061280d60a08301866126cf56fea2646970667358221220f6070401f4c5d506b281199243031f0573d0b6da56384e258fb090e41f20f11b64736f6c63430008120033",
  "linkReferences": {},
  "deployedLinkReferences": {}
}