{
  "_format": "hh-sol-artifact-1",
  "contractName": "IbAggregatorRouter",
  "sourceName": "contracts/ibaggregator.sol",
  "abi": [
    {
      "inputs": [
        {
          "internalType": "address",
          "name": "receipt",
          "type": "address"
        }
      ],
      "stateMutability": "nonpayable",
      "type": "constructor"
    },
    {
      "inputs": [
        {
          "internalType": "uint256",
          "name": "platform",
          "type": "uint256"
        }
      ],
      "name": "ExecutionFailed",
      "type": "error"
    },
    {
      "inputs": [],
      "name": "LengthMismatch",
      "type": "error"
    },
    {
      "inputs": [],
      "name": "TransactionDeadlinePassed",
      "type": "error"
    },
    {
      "inputs": [],
      "name": "FEERATE",
      "outputs": [
        {
          "internalType": "uint16",
          "name": "",
          "type": "uint16"
        }
      ],
      "stateMutability": "view",
      "type": "function"
    },
    {
      "inputs": [],
      "name": "PERCENT",
      "outputs": [
        {
          "internalType": "uint16",
          "name": "",
          "type": "uint16"
        }
      ],
      "stateMutability": "view",
      "type": "function"
    },
    {
      "inputs": [],
      "name": "acceptSetter",
      "outputs": [],
      "stateMutability": "nonpayable",
      "type": "function"
    },
    {
      "inputs": [
        {
          "internalType": "uint8",
          "name": "platform",
          "type": "uint8"
        },
        {
          "internalType": "address",
          "name": "router",
          "type": "address"
        }
      ],
      "name": "addRouter",
      "outputs": [],
      "stateMutability": "nonpayable",
      "type": "function"
    },
    {
      "inputs": [
        {
          "internalType": "address[]",
          "name": "tokens",
          "type": "address[]"
        }
      ],
      "name": "approve",
      "outputs": [],
      "stateMutability": "nonpayable",
      "type": "function"
    },
    {
      "inputs": [
        {
          "internalType": "address[]",
          "name": "tokenIns",
          "type": "address[]"
        },
        {
          "internalType": "uint8[]",
          "name": "counts",
          "type": "uint8[]"
        },
        {
          "internalType": "bytes[]",
          "name": "inputs",
          "type": "bytes[]"
        },
        {
          "internalType": "uint256",
          "name": "amountIn",
          "type": "uint256"
        },
        {
          "internalType": "uint256",
          "name": "deadline",
          "type": "uint256"
        }
      ],
      "name": "execute",
      "outputs": [],
      "stateMutability": "nonpayable",
      "type": "function"
    },
    {
      "inputs": [
        {
          "internalType": "address[]",
          "name": "tokenIns",
          "type": "address[]"
        },
        {
          "internalType": "uint8[]",
          "name": "counts",
          "type": "uint8[]"
        },
        {
          "internalType": "bytes[]",
          "name": "inputs",
          "type": "bytes[]"
        },
        {
          "internalType": "uint256",
          "name": "deadline",
          "type": "uint256"
        }
      ],
      "name": "executeEth",
      "outputs": [],
      "stateMutability": "payable",
      "type": "function"
    },
    {
      "inputs": [],
      "name": "feeReceipt",
      "outputs": [
        {
          "internalType": "address",
          "name": "",
          "type": "address"
        }
      ],
      "stateMutability": "view",
      "type": "function"
    },
    {
      "inputs": [],
      "name": "owner",
      "outputs": [
        {
          "internalType": "address",
          "name": "",
          "type": "address"
        }
      ],
      "stateMutability": "view",
      "type": "function"
    },
    {
      "inputs": [
        {
          "internalType": "uint8",
          "name": "",
          "type": "uint8"
        }
      ],
      "name": "swapRouters",
      "outputs": [
        {
          "internalType": "address",
          "name": "router",
          "type": "address"
        },
        {
          "internalType": "address",
          "name": "weth",
          "type": "address"
        }
      ],
      "stateMutability": "view",
      "type": "function"
    },
    {
      "inputs": [
        {
          "internalType": "address",
          "name": "_owner",
          "type": "address"
        }
      ],
      "name": "transferOwner",
      "outputs": [],
      "stateMutability": "nonpayable",
      "type": "function"
    }
  ],
  "bytecode": "0x60a060405234801561001057600080fd5b50604051611b7a380380611b7a83398101604081905261002f91610052565b600080546001600160a01b031916331790556001600160a01b0316608052610082565b60006020828403121561006457600080fd5b81516001600160a01b038116811461007b57600080fd5b9392505050565b608051611acf6100ab6000396000818161010a0152818161053801526109240152611acf6000f3fe60806040526004361061009c5760003560e01c80638da5cb5b116100645780638da5cb5b146101aa578063984c068a146101ca578063b85a8b20146101ea578063e275063514610213578063f3b4814214610233578063fcc07a8c1461024657600080fd5b80634fb2e45d146100a15780635f8e422f146100c357806377a1736b146100d85780637ff593b6146100f85780638c09fd3414610149575b600080fd5b3480156100ad57600080fd5b506100c16100bc3660046114dc565b61025b565b005b3480156100cf57600080fd5b506100c16102c8565b3480156100e457600080fd5b506100c16100f336600461154c565b610335565b34801561010457600080fd5b5061012c7f000000000000000000000000000000000000000000000000000000000000000081565b6040516001600160a01b0390911681526020015b60405180910390f35b34801561015557600080fd5b5061018a6101643660046115a4565b600260205260009081526040902080546001909101546001600160a01b03918216911682565b604080516001600160a01b03938416815292909116602083015201610140565b3480156101b657600080fd5b5060005461012c906001600160a01b031681565b3480156101d657600080fd5b506100c16101e53660046115bf565b610443565b3480156101f657600080fd5b5061020061271081565b60405161ffff9091168152602001610140565b34801561021f57600080fd5b506100c161022e366004611668565b6106d2565b6100c161024136600461169f565b61088b565b34801561025257600080fd5b50610200600a81565b6000546001600160a01b031633146102a65760405162461bcd60e51b81526020600482015260096024820152683337b93134b23232b760b91b60448201526064015b60405180910390fd5b600180546001600160a01b0319166001600160a01b0392909216919091179055565b6001546001600160a01b0316331461030e5760405162461bcd60e51b81526020600482015260096024820152683337b93134b23232b760b91b604482015260640161029d565b60018054600080546001600160a01b03199081166001600160a01b03841617909155169055565b600354819060005b8281101561043c5760005b828110156104295785858381811061036257610362611742565b905060200201602081019061037791906114dc565b6001600160a01b031663095ea7b36003838154811061039857610398611742565b60009182526020909120015460405160e083901b6001600160e01b03191681526001600160a01b03909116600482015260001960248201526044016020604051808303816000875af11580156103f2573d6000803e3d6000fd5b505050506040513d601f19601f820116820180604052508101906104169190611758565b508061042181611790565b915050610348565b508061043481611790565b91505061033d565b5050505050565b808042111561046557604051632dfb7c8b60e11b815260040160405180910390fd5b87868114610489576040516001621398b960e31b0319815260040160405180910390fd5b6104bc8a8a600081811061049f5761049f611742565b90506020020160208101906104b491906114dc565b333087610b6d565b6001888860008181106104d1576104d1611742565b90506020020160208101906104e691906115a4565b60ff16111561055f5760006127106104ff600a876117a9565b61050991906117c6565b905061055d8b8b600081811061052157610521611742565b905060200201602081019061053691906114dc565b7f000000000000000000000000000000000000000000000000000000000000000083610c77565b505b6000805b828110156106c4578b8b8281811061057d5761057d611742565b905060200201602081019061059291906114dc565b6040516370a0823160e01b81523060048201526001600160a01b0391909116906370a0823190602401602060405180830381865afa1580156105d8573d6000803e3d6000fd5b505050506040513d601f19601f820116820180604052508101906105fc91906117e8565b955060005b8a8a8381811061061357610613611742565b905060200201602081019061062891906115a4565b60ff168110156106b1573660008a8a8681811061064757610647611742565b90506020028101906106599190611801565b9150915061068f8f8f8681811061067257610672611742565b905060200201602081019061068791906114dc565b8a8484610d70565b8461069981611790565b955050505080806106a990611790565b915050610601565b50806106bc81611790565b915050610563565b505050505050505050505050565b6000546001600160a01b031633146107175760405162461bcd60e51b81526020600482015260086024820152673337b93134b232b760c11b604482015260640161029d565b6000600f8360ff16111561078e57816001600160a01b0316634aa4a4fc6040518163ffffffff1660e01b8152600401602060405180830381865afa158015610763573d6000803e3d6000fd5b505050506040513d601f19601f820116820180604052508101906107879190611848565b90506107f3565b816001600160a01b031663ad5c46486040518163ffffffff1660e01b8152600401602060405180830381865afa1580156107cc573d6000803e3d6000fd5b505050506040513d601f19601f820116820180604052508101906107f09190611848565b90505b6040805180820182526001600160a01b03938416808252928416602080830191825260ff90961660009081526002909652918520905181549085166001600160a01b031991821617825591516001918201805491909516908316179093556003805493840181559093527fc2575a0e9e593c00f959f8c92f12db2869c3395a3b0502d05e2516446f71f85b9091018054909216179055565b80804211156108ad57604051632dfb7c8b60e11b815260040160405180910390fd5b868581146108d1576040516001621398b960e31b0319815260040160405180910390fd5b34600188886000816108e5576108e5611742565b90506020020160208101906108fa91906115a4565b60ff161115610957576000612710610913600a846117a9565b61091d91906117c6565b90506109497f00000000000000000000000000000000000000000000000000000000000000008261141c565b6109538183611865565b9150505b60005b8888600081811061096d5761096d611742565b905060200201602081019061098291906115a4565b60ff168110156109d9573660008888848181106109a1576109a1611742565b90506020028101906109b39190611801565b915091506109c46000858484610d70565b505080806109d190611790565b91505061095a565b506000888860008181106109ef576109ef611742565b9050602002016020810190610a0491906115a4565b60ff16905060015b838110156106c4578b8b82818110610a2657610a26611742565b9050602002016020810190610a3b91906114dc565b6040516370a0823160e01b81523060048201526001600160a01b0391909116906370a0823190602401602060405180830381865afa158015610a81573d6000803e3d6000fd5b505050506040513d601f19601f82011682018060405250810190610aa591906117e8565b925060005b8a8a83818110610abc57610abc611742565b9050602002016020810190610ad191906115a4565b60ff16811015610b5a573660008a8a86818110610af057610af0611742565b9050602002810190610b029190611801565b91509150610b388f8f86818110610b1b57610b1b611742565b9050602002016020810190610b3091906114dc565b878484610d70565b84610b4281611790565b95505050508080610b5290611790565b915050610aaa565b5080610b6581611790565b915050610a0c565b604080516001600160a01b0385811660248301528481166044830152606480830185905283518084039091018152608490920183526020820180516001600160e01b03166323b872dd60e01b1790529151600092839290881691610bd19190611878565b6000604051808303816000865af19150503d8060008114610c0e576040519150601f19603f3d011682016040523d82523d6000602084013e610c13565b606091505b5091509150818015610c3d575080511580610c3d575080806020019051810190610c3d9190611758565b610c6f5760405162461bcd60e51b815260206004820152600360248201526229aa2360e91b604482015260640161029d565b505050505050565b604080516001600160a01b038481166024830152604480830185905283518084039091018152606490920183526020820180516001600160e01b031663a9059cbb60e01b1790529151600092839290871691610cd39190611878565b6000604051808303816000865af19150503d8060008114610d10576040519150601f19603f3d011682016040523d82523d6000602084013e610d15565b606091505b5091509150818015610d3f575080511580610d3f575080806020019051810190610d3f9190611758565b61043c5760405162461bcd60e51b815260206004820152600260248201526114d560f21b604482015260640161029d565b813560ff8116600090815260026020908152604091829020825180840190935280546001600160a01b039081168085526001909201541691830191909152610dea5760405162461bcd60e51b815260206004820152600d60248201526c191bdb89dd081cdd5c1c1bdc9d609a1b604482015260640161029d565b600f8260ff161115611112576020840135604085013560608601356080870135612710610e1b61ffff83168b6117a9565b610e2591906117c6565b98506001600160a01b038416610f5d57845160408051610100810182526001600160a01b038d811682526020808a015182169083015262ffffff871682840152600060608301819052600019608084015260a083018e905260c0830181905260e08301819052925163414bf38960e01b81529293169163414bf38991610ead916004016118a7565b6020604051808303816000875af1158015610ecc573d6000803e3d6000fd5b505050506040513d601f19601f82011682018060405250810190610ef091906117e8565b865160405163125012df60e21b8152600481018390526001600160a01b0386811660248301529293509116906349404b7c90604401600060405180830381600087803b158015610f3f57600080fd5b505af1158015610f53573d6000803e3d6000fd5b5050505050611109565b6001600160a01b038a1661104f5784600001516001600160a01b031663414bf3898a60405180610100016040528089602001516001600160a01b03168152602001886001600160a01b031681526020018762ffffff168152602001866001600160a01b0316815260200160001981526020018d81526020016000815260200160006001600160a01b03168152506040518363ffffffff1660e01b815260040161100691906118a7565b60206040518083038185885af1158015611024573d6000803e3d6000fd5b50505050506040513d601f19601f8201168201806040525081019061104991906117e8565b50611109565b845160408051610100810182526001600160a01b038d81168252878116602083015262ffffff8716828401528581166060830152600019608083015260a082018d9052600060c0830181905260e0830152915163414bf38960e01b8152919092169163414bf389916110c491906004016118a7565b6020604051808303816000875af11580156110e3573d6000803e3d6000fd5b505050506040513d601f19601f8201168201806040525081019061110791906117e8565b505b50505050610c6f565b604084013560208501356060860135608087013561271061113660ff83168b6117a9565b61114091906117c6565b604080516002808252606082018352929b5060009290916020830190803683370190505090506001600160a01b038b166112535785602001518160008151811061118c5761118c611742565b60200260200101906001600160a01b031690816001600160a01b03168152505084816001815181106111c0576111c0611742565b6001600160a01b0392831660209182029290920101528651604051637ff36ab560e01b8152911690637ff36ab5908c90611206908890869089906000199060040161196a565b60006040518083038185885af1158015611224573d6000803e3d6000fd5b50505050506040513d6000823e601f3d908101601f1916820160405261124d919081019061199f565b5061140f565b6001600160a01b03851661133a578a8160008151811061127557611275611742565b60200260200101906001600160a01b031690816001600160a01b0316815250508560200151816001815181106112ad576112ad611742565b6001600160a01b03928316602091820292909201015286516040516318cbafe560e01b81529116906318cbafe5906112f3908d9088908690899060001990600401611a5d565b6000604051808303816000875af1158015611312573d6000803e3d6000fd5b505050506040513d6000823e601f3d908101601f1916820160405261124d919081019061199f565b8a8160008151811061134e5761134e611742565b60200260200101906001600160a01b031690816001600160a01b031681525050848160018151811061138257611382611742565b6001600160a01b03928316602091820292909201015286516040516338ed173960e01b81529116906338ed1739906113c8908d9088908690899060001990600401611a5d565b6000604051808303816000875af11580156113e7573d6000803e3d6000fd5b505050506040513d6000823e601f3d908101601f191682016040526106c4919081019061199f565b5050505050505050505050565b604080516000808252602082019092526001600160a01b0384169083906040516114469190611878565b60006040518083038185875af1925050503d8060008114611483576040519150601f19603f3d011682016040523d82523d6000602084013e611488565b606091505b50509050806114bf5760405162461bcd60e51b815260206004820152600360248201526253544560e81b604482015260640161029d565b505050565b6001600160a01b03811681146114d957600080fd5b50565b6000602082840312156114ee57600080fd5b81356114f9816114c4565b9392505050565b60008083601f84011261151257600080fd5b50813567ffffffffffffffff81111561152a57600080fd5b6020830191508360208260051b850101111561154557600080fd5b9250929050565b6000806020838503121561155f57600080fd5b823567ffffffffffffffff81111561157657600080fd5b61158285828601611500565b90969095509350505050565b803560ff8116811461159f57600080fd5b919050565b6000602082840312156115b657600080fd5b6114f98261158e565b60008060008060008060008060a0898b0312156115db57600080fd5b883567ffffffffffffffff808211156115f357600080fd5b6115ff8c838d01611500565b909a50985060208b013591508082111561161857600080fd5b6116248c838d01611500565b909850965060408b013591508082111561163d57600080fd5b5061164a8b828c01611500565b999c989b509699959896976060870135966080013595509350505050565b6000806040838503121561167b57600080fd5b6116848361158e565b91506020830135611694816114c4565b809150509250929050565b60008060008060008060006080888a0312156116ba57600080fd5b873567ffffffffffffffff808211156116d257600080fd5b6116de8b838c01611500565b909950975060208a01359150808211156116f757600080fd5b6117038b838c01611500565b909750955060408a013591508082111561171c57600080fd5b506117298a828b01611500565b989b979a50959894979596606090950135949350505050565b634e487b7160e01b600052603260045260246000fd5b60006020828403121561176a57600080fd5b815180151581146114f957600080fd5b634e487b7160e01b600052601160045260246000fd5b6000600182016117a2576117a261177a565b5060010190565b80820281158282048414176117c0576117c061177a565b92915050565b6000826117e357634e487b7160e01b600052601260045260246000fd5b500490565b6000602082840312156117fa57600080fd5b5051919050565b6000808335601e1984360301811261181857600080fd5b83018035915067ffffffffffffffff82111561183357600080fd5b60200191503681900382131561154557600080fd5b60006020828403121561185a57600080fd5b81516114f9816114c4565b818103818111156117c0576117c061177a565b6000825160005b81811015611899576020818601810151858301520161187f565b506000920191825250919050565b81516001600160a01b03908116825260208084015182169083015260408084015162ffffff16908301526060808401518216908301526080808401519083015260a0838101519083015260c0808401519083015260e09283015116918101919091526101000190565b634e487b7160e01b600052604160045260246000fd5b600081518084526020808501945080840160005b8381101561195f5781516001600160a01b03168752958201959082019060010161193a565b509495945050505050565b8481526080602082015260006119836080830186611926565b6001600160a01b03949094166040830152506060015292915050565b600060208083850312156119b257600080fd5b825167ffffffffffffffff808211156119ca57600080fd5b818501915085601f8301126119de57600080fd5b8151818111156119f0576119f0611910565b8060051b604051601f19603f83011681018181108582111715611a1557611a15611910565b604052918252848201925083810185019188831115611a3357600080fd5b938501935b82851015611a5157845184529385019392850192611a38565b98975050505050505050565b85815284602082015260a060408201526000611a7c60a0830186611926565b6001600160a01b039490941660608301525060800152939250505056fea2646970667358221220b7d3f4581b91e838c535d71a8bb4811de3d765e53cb8334d0b3dea144bee89b264736f6c63430008120033",
  "linkReferences": {},
  "deployedLinkReferences": {}
}