{
  "_format": "hh-sol-artifact-1",
  "contractName": "IbAggregatorRouter",
  "sourceName": "contracts/ibaggregator.sol",
  "abi": [
    {
      "inputs": [
        {
          "internalType": "address",
          "name": "receipt",
          "type": "address"
        }
      ],
      "stateMutability": "nonpayable",
      "type": "constructor"
    },
    {
      "inputs": [],
      "name": "FEERATE",
      "outputs": [
        {
          "internalType": "uint16",
          "name": "",
          "type": "uint16"
        }
      ],
      "stateMutability": "view",
      "type": "function"
    },
    {
      "inputs": [],
      "name": "PERCENT",
      "outputs": [
        {
          "internalType": "uint16",
          "name": "",
          "type": "uint16"
        }
      ],
      "stateMutability": "view",
      "type": "function"
    },
    {
      "inputs": [],
      "name": "acceptSetter",
      "outputs": [],
      "stateMutability": "nonpayable",
      "type": "function"
    },
    {
      "inputs": [
        {
          "internalType": "uint8",
          "name": "platform",
          "type": "uint8"
        },
        {
          "internalType": "address",
          "name": "router",
          "type": "address"
        }
      ],
      "name": "addRouter",
      "outputs": [],
      "stateMutability": "nonpayable",
      "type": "function"
    },
    {
      "inputs": [
        {
          "internalType": "address[]",
          "name": "tokens",
          "type": "address[]"
        }
      ],
      "name": "approve",
      "outputs": [],
      "stateMutability": "nonpayable",
      "type": "function"
    },
    {
      "inputs": [
        {
          "internalType": "address[]",
          "name": "tokenIns",
          "type": "address[]"
        },
        {
          "internalType": "uint8[]",
          "name": "counts",
          "type": "uint8[]"
        },
        {
          "internalType": "bytes[]",
          "name": "inputs",
          "type": "bytes[]"
        },
        {
          "internalType": "address",
          "name": "tokenOut",
          "type": "address"
        },
        {
          "internalType": "uint256",
          "name": "amountOutMin",
          "type": "uint256"
        },
        {
          "internalType": "uint256",
          "name": "deadline",
          "type": "uint256"
        }
      ],
      "name": "executeFromEth",
      "outputs": [],
      "stateMutability": "payable",
      "type": "function"
    },
    {
      "inputs": [
        {
          "internalType": "address[]",
          "name": "tokenIns",
          "type": "address[]"
        },
        {
          "internalType": "uint8[]",
          "name": "counts",
          "type": "uint8[]"
        },
        {
          "internalType": "bytes[]",
          "name": "inputs",
          "type": "bytes[]"
        },
        {
          "internalType": "address",
          "name": "tokenOut",
          "type": "address"
        },
        {
          "internalType": "uint256",
          "name": "amountIn",
          "type": "uint256"
        },
        {
          "internalType": "uint256",
          "name": "amountOutMin",
          "type": "uint256"
        },
        {
          "internalType": "uint256",
          "name": "deadline",
          "type": "uint256"
        }
      ],
      "name": "executeFromToken",
      "outputs": [],
      "stateMutability": "payable",
      "type": "function"
    },
    {
      "inputs": [],
      "name": "feeReceipt",
      "outputs": [
        {
          "internalType": "address",
          "name": "",
          "type": "address"
        }
      ],
      "stateMutability": "view",
      "type": "function"
    },
    {
      "inputs": [],
      "name": "owner",
      "outputs": [
        {
          "internalType": "address",
          "name": "",
          "type": "address"
        }
      ],
      "stateMutability": "view",
      "type": "function"
    },
    {
      "inputs": [
        {
          "internalType": "uint8",
          "name": "",
          "type": "uint8"
        }
      ],
      "name": "swapRouters",
      "outputs": [
        {
          "internalType": "address",
          "name": "router",
          "type": "address"
        },
        {
          "internalType": "address",
          "name": "weth",
          "type": "address"
        }
      ],
      "stateMutability": "view",
      "type": "function"
    },
    {
      "inputs": [
        {
          "internalType": "address",
          "name": "_owner",
          "type": "address"
        }
      ],
      "name": "transferOwner",
      "outputs": [],
      "stateMutability": "nonpayable",
      "type": "function"
    },
    {
      "stateMutability": "payable",
      "type": "receive"
    }
  ],
  "bytecode": "0x60a06040523480156200001157600080fd5b5060405162001da938038062001da9833981016040819052620000349162000260565b600080546001600160a01b031916331781556001600160a01b038216608052604080516312a9293f60e21b8152905173b783f05f28dfabd0d09ccb524e6c6289cb0e7c1f92918391634aa4a4fc916004808201926020929091908290030181865afa158015620000a8573d6000803e3d6000fd5b505050506040513d601f19601f82011682018060405250810190620000ce919062000260565b6040805180820182526001600160a01b03948516808252928516602080830191825260106000908152600280835293517f328b8e687a0a963892a735f0237cb763bbbbf8ba0c1dfe2c221debb32c4bbd898054918a166001600160a01b031992831617905592517f328b8e687a0a963892a735f0237cb763bbbbf8ba0c1dfe2c221debb32c4bbd8a8054918a1691851691909117905560038054600181810183557fc2575a0e9e593c00f959f8c92f12db2869c3395a3b0502d05e2516446f71f85b918201805487169099179098558651808801909752731372c03b0c542017a256473706ba6121f826398080885273beb654a116aeef764988df0c6b4bf67cc869d01b888601908152601185529690945295517fa4e0f4432e44d027a7b3f953940f096bca7a9bd910297cad2ba7c703c2b799d38054918b1691861691909117905593517fa4e0f4432e44d027a7b3f953940f096bca7a9bd910297cad2ba7c703c2b799d4805491909916908416179097558254948501835591909552910180549093161790915550620002929050565b6000602082840312156200027357600080fd5b81516001600160a01b03811681146200028b57600080fd5b9392505050565b608051611aed620002bc6000396000818161013b0152818161037501526104f30152611aed6000f3fe6080604052600436106100a05760003560e01c80637ff593b6116100645780637ff593b6146101295780638c09fd341461017a5780638da5cb5b146101db578063b85a8b20146101fb578063e275063514610224578063fcc07a8c1461024457600080fd5b80630a13ac3a146100ac5780634fb2e45d146100c1578063520615ee146100e15780635f8e422f146100f457806377a1736b1461010957600080fd5b366100a757005b600080fd5b6100bf6100ba366004611508565b610259565b005b3480156100cd57600080fd5b506100bf6100dc3660046115d2565b6103cf565b6100bf6100ef3660046115f6565b610437565b34801561010057600080fd5b506100bf61054c565b34801561011557600080fd5b506100bf6101243660046116b6565b6105b9565b34801561013557600080fd5b5061015d7f000000000000000000000000000000000000000000000000000000000000000081565b6040516001600160a01b0390911681526020015b60405180910390f35b34801561018657600080fd5b506101bb61019536600461170e565b600260205260009081526040902080546001909101546001600160a01b03918216911682565b604080516001600160a01b03938416815292909116602083015201610171565b3480156101e757600080fd5b5060005461015d906001600160a01b031681565b34801561020757600080fd5b5061021161271081565b60405161ffff9091168152602001610171565b34801561023057600080fd5b506100bf61023f366004611729565b6106c7565b34801561025057600080fd5b50610211600a81565b808042111561029a5760405162461bcd60e51b8152602060048201526008602482015267646561646c696e6560c01b60448201526064015b60405180910390fd5b878a146102e25760405162461bcd60e51b81526020600482015260166024820152753632b733ba341037b31031b7bab73a399032b93937b960511b6044820152606401610291565b6103158b8b60008181106102f8576102f8611760565b905060200201602081019061030d91906115d2565b33308761088c565b60018989600081811061032a5761032a611760565b905060200201602081019061033f919061170e565b60ff1611156103b1576103b18b8b600081811061035e5761035e611760565b905060200201602081019061037391906115d2565b7f00000000000000000000000000000000000000000000000000000000000000006127106103a2600a8961178c565b6103ac91906117a9565b610996565b6103c18b8b8b8b8b8b8b8a610a8f565b505050505050505050505050565b6000546001600160a01b031633146104155760405162461bcd60e51b81526020600482015260096024820152683337b93134b23232b760b91b6044820152606401610291565b600180546001600160a01b0319166001600160a01b0392909216919091179055565b80804211156104735760405162461bcd60e51b8152602060048201526008602482015267646561646c696e6560c01b6044820152606401610291565b8689146104bb5760405162461bcd60e51b81526020600482015260166024820152753632b733ba341037b31031b7bab73a399032b93937b960511b6044820152606401610291565b6001888860008181106104d0576104d0611760565b90506020020160208101906104e5919061170e565b60ff16111561052f5761052f7f0000000000000000000000000000000000000000000000000000000000000000612710610520600a3461178c565b61052a91906117a9565b610cf5565b61053f8a8a8a8a8a8a8a8a610a8f565b5050505050505050505050565b6001546001600160a01b031633146105925760405162461bcd60e51b81526020600482015260096024820152683337b93134b23232b760b91b6044820152606401610291565b60018054600080546001600160a01b03199081166001600160a01b03841617909155169055565b600354819060005b828110156106c05760005b828110156106ad578585838181106105e6576105e6611760565b90506020020160208101906105fb91906115d2565b6001600160a01b031663095ea7b36003838154811061061c5761061c611760565b60009182526020909120015460405160e083901b6001600160e01b03191681526001600160a01b03909116600482015260001960248201526044016020604051808303816000875af1158015610676573d6000803e3d6000fd5b505050506040513d601f19601f8201168201806040525081019061069a91906117cb565b50806106a5816117ed565b9150506105cc565b50806106b8816117ed565b9150506105c1565b5050505050565b6000546001600160a01b0316331461070c5760405162461bcd60e51b81526020600482015260086024820152673337b93134b232b760c11b6044820152606401610291565b6000600f8360ff16111561078357816001600160a01b0316634aa4a4fc6040518163ffffffff1660e01b8152600401602060405180830381865afa158015610758573d6000803e3d6000fd5b505050506040513d601f19601f8201168201806040525081019061077c9190611806565b90506107f4565b60018360ff1611156107f457816001600160a01b031663ad5c46486040518163ffffffff1660e01b8152600401602060405180830381865afa1580156107cd573d6000803e3d6000fd5b505050506040513d601f19601f820116820180604052508101906107f19190611806565b90505b6040805180820182526001600160a01b03938416808252928416602080830191825260ff90961660009081526002909652918520905181549085166001600160a01b031991821617825591516001918201805491909516908316179093556003805493840181559093527fc2575a0e9e593c00f959f8c92f12db2869c3395a3b0502d05e2516446f71f85b9091018054909216179055565b604080516001600160a01b0385811660248301528481166044830152606480830185905283518084039091018152608490920183526020820180516001600160e01b03166323b872dd60e01b17905291516000928392908816916108f09190611823565b6000604051808303816000865af19150503d806000811461092d576040519150601f19603f3d011682016040523d82523d6000602084013e610932565b606091505b509150915081801561095c57508051158061095c57508080602001905181019061095c91906117cb565b61098e5760405162461bcd60e51b815260206004820152600360248201526229aa2360e91b6044820152606401610291565b505050505050565b604080516001600160a01b038481166024830152604480830185905283518084039091018152606490920183526020820180516001600160e01b031663a9059cbb60e01b17905291516000928392908716916109f29190611823565b6000604051808303816000865af19150503d8060008114610a2f576040519150601f19603f3d011682016040523d82523d6000602084013e610a34565b606091505b5091509150818015610a5e575080511580610a5e575080806020019051810190610a5e91906117cb565b6106c05760405162461bcd60e51b815260206004820152600260248201526114d560f21b6044820152606401610291565b600080805b89811015610c97576000808c8c84818110610ab157610ab1611760565b9050602002016020810190610ac691906115d2565b6001600160a01b031603610adb575047610b6f565b8b8b83818110610aed57610aed611760565b9050602002016020810190610b0291906115d2565b6040516370a0823160e01b81523060048201526001600160a01b0391909116906370a0823190602401602060405180830381865afa158015610b48573d6000803e3d6000fd5b505050506040513d601f19601f82011682018060405250810190610b6c9190611852565b90505b60005b8a8a84818110610b8457610b84611760565b9050602002016020810190610b99919061170e565b60ff16811015610c8257600080610bfa8f8f87818110610bbb57610bbb611760565b9050602002016020810190610bd091906115d2565b858d8d8a818110610be357610be3611760565b9050602002810190610bf5919061186b565b610d9d565b90925090506210740160881b6001600160a01b038216148015610c2457506001600160a01b038916155b15610c3a57610c3382886118b2565b9650610c60565b806001600160a01b0316896001600160a01b031603610c6057610c5d82886118b2565b96505b85610c6a816117ed565b96505050508080610c7a906117ed565b915050610b72565b50508080610c8f906117ed565b915050610a94565b5082821015610ce85760405162461bcd60e51b815260206004820152601760248201527f616d6f756e74206f7574206d696e2072657175697265640000000000000000006044820152606401610291565b5098975050505050505050565b604080516000808252602082019092526001600160a01b038416908390604051610d1f9190611823565b60006040518083038185875af1925050503d8060008114610d5c576040519150601f19603f3d011682016040523d82523d6000602084013e610d61565b606091505b5050905080610d985760405162461bcd60e51b815260206004820152600360248201526253544560e81b6044820152606401610291565b505050565b813560ff81166000908152600260209081526040808320815180830190925280546001600160a01b039081168084526001909201541692820192909252919283929091610e1c5760405162461bcd60e51b815260206004820152600d60248201526c191bdb89dd081cdd5c1c1bdc9d609a1b6044820152606401610291565b600f8260ff1611156111465760208601359250604086013560608701356080880135612710610e4f61ffff83168c61178c565b610e5991906117a9565b99506001600160a01b038616610f9057835160408051610100810182526001600160a01b038e8116825260208089015182169083015262ffffff871682840152600060608301819052600019608084015260a083018f905260c0830181905260e0830152915163414bf38960e01b8152919092169163414bf38991610ee191906004016118db565b6020604051808303816000875af1158015610f00573d6000803e3d6000fd5b505050506040513d601f19601f82011682018060405250810190610f249190611852565b845160405163125012df60e21b8152600060048201526001600160a01b0385811660248301529299509116906349404b7c90604401600060405180830381600087803b158015610f7357600080fd5b505af1158015610f87573d6000803e3d6000fd5b5050505061113e565b6001600160a01b038b166110835783600001516001600160a01b031663414bf3898b60405180610100016040528088602001516001600160a01b031681526020018a6001600160a01b031681526020018762ffffff168152602001866001600160a01b0316815260200160001981526020018e81526020016000815260200160006001600160a01b03168152506040518363ffffffff1660e01b815260040161103991906118db565b60206040518083038185885af1158015611057573d6000803e3d6000fd5b50505050506040513d601f19601f8201168201806040525081019061107c9190611852565b965061113e565b835160408051610100810182526001600160a01b038e81168252898116602083015262ffffff8716828401528581166060830152600019608083015260a082018e9052600060c0830181905260e0830152915163414bf38960e01b8152919092169163414bf389916110f891906004016118db565b6020604051808303816000875af1158015611117573d6000803e3d6000fd5b505050506040513d601f19601f8201168201806040525081019061113b9190611852565b96505b505050611499565b6040860135925060208601356060870135608088013561271061116c60ff83168c61178c565b61117691906117a9565b604080516002808252606082018352929c5060009290916020830190803683370190505090506001600160a01b038c166112ad578460200151816000815181106111c2576111c2611760565b60200260200101906001600160a01b031690816001600160a01b03168152505086816001815181106111f6576111f6611760565b6001600160a01b0392831660209182029290920101528551604051637ff36ab560e01b81526000929190911690637ff36ab5908e9061124190899087908a9060001990600401611988565b60006040518083038185885af115801561125f573d6000803e3d6000fd5b50505050506040513d6000823e601f3d908101601f1916820160405261128891908101906119bd565b90508060008151811061129d5761129d611760565b6020026020010151985050611494565b6001600160a01b038716611399578b816000815181106112cf576112cf611760565b60200260200101906001600160a01b031690816001600160a01b03168152505084602001518160018151811061130757611307611760565b6001600160a01b03928316602091820292909201015285516040516318cbafe560e01b815260009291909116906318cbafe590611352908f90899087908a9060001990600401611a7b565b6000604051808303816000875af1158015611371573d6000803e3d6000fd5b505050506040513d6000823e601f3d908101601f1916820160405261128891908101906119bd565b8b816000815181106113ad576113ad611760565b60200260200101906001600160a01b031690816001600160a01b03168152505086816001815181106113e1576113e1611760565b6001600160a01b03928316602091820292909201015285516040516338ed173960e01b815260009291909116906338ed17399061142c908f90899087908a9060001990600401611a7b565b6000604051808303816000875af115801561144b573d6000803e3d6000fd5b505050506040513d6000823e601f3d908101601f1916820160405261147391908101906119bd565b90508060008151811061148857611488611760565b60200260200101519850505b505050505b505094509492505050565b60008083601f8401126114b657600080fd5b50813567ffffffffffffffff8111156114ce57600080fd5b6020830191508360208260051b85010111156114e957600080fd5b9250929050565b6001600160a01b038116811461150557600080fd5b50565b60008060008060008060008060008060e08b8d03121561152757600080fd5b8a3567ffffffffffffffff8082111561153f57600080fd5b61154b8e838f016114a4565b909c509a5060208d013591508082111561156457600080fd5b6115708e838f016114a4565b909a50985060408d013591508082111561158957600080fd5b506115968d828e016114a4565b90975095505060608b01356115aa816114f0565b8094505060808b0135925060a08b0135915060c08b013590509295989b9194979a5092959850565b6000602082840312156115e457600080fd5b81356115ef816114f0565b9392505050565b600080600080600080600080600060c08a8c03121561161457600080fd5b893567ffffffffffffffff8082111561162c57600080fd5b6116388d838e016114a4565b909b50995060208c013591508082111561165157600080fd5b61165d8d838e016114a4565b909950975060408c013591508082111561167657600080fd5b506116838c828d016114a4565b90965094505060608a0135611697816114f0565b8093505060808a0135915060a08a013590509295985092959850929598565b600080602083850312156116c957600080fd5b823567ffffffffffffffff8111156116e057600080fd5b6116ec858286016114a4565b90969095509350505050565b803560ff8116811461170957600080fd5b919050565b60006020828403121561172057600080fd5b6115ef826116f8565b6000806040838503121561173c57600080fd5b611745836116f8565b91506020830135611755816114f0565b809150509250929050565b634e487b7160e01b600052603260045260246000fd5b634e487b7160e01b600052601160045260246000fd5b80820281158282048414176117a3576117a3611776565b92915050565b6000826117c657634e487b7160e01b600052601260045260246000fd5b500490565b6000602082840312156117dd57600080fd5b815180151581146115ef57600080fd5b6000600182016117ff576117ff611776565b5060010190565b60006020828403121561181857600080fd5b81516115ef816114f0565b6000825160005b81811015611844576020818601810151858301520161182a565b506000920191825250919050565b60006020828403121561186457600080fd5b5051919050565b6000808335601e1984360301811261188257600080fd5b83018035915067ffffffffffffffff82111561189d57600080fd5b6020019150368190038213156114e957600080fd5b808201808211156117a3576117a3611776565b634e487b7160e01b600052604160045260246000fd5b81516001600160a01b03908116825260208084015182169083015260408084015162ffffff16908301526060808401518216908301526080808401519083015260a0838101519083015260c0808401519083015260e09283015116918101919091526101000190565b600081518084526020808501945080840160005b8381101561197d5781516001600160a01b031687529582019590820190600101611958565b509495945050505050565b8481526080602082015260006119a16080830186611944565b6001600160a01b03949094166040830152506060015292915050565b600060208083850312156119d057600080fd5b825167ffffffffffffffff808211156119e857600080fd5b818501915085601f8301126119fc57600080fd5b815181811115611a0e57611a0e6118c5565b8060051b604051601f19603f83011681018181108582111715611a3357611a336118c5565b604052918252848201925083810185019188831115611a5157600080fd5b938501935b82851015611a6f57845184529385019392850192611a56565b98975050505050505050565b85815284602082015260a060408201526000611a9a60a0830186611944565b6001600160a01b039490941660608301525060800152939250505056fea2646970667358221220abb4a09a2aced72c86686457c8b575daf5a360f668217d70ff6c11802ec23e1064736f6c63430008120033",
  "linkReferences": {},
  "deployedLinkReferences": {}
}