{
  "_format": "hh-sol-artifact-1",
  "contractName": "Ownable",
  "sourceName": "contracts/ownable.sol",
  "abi": [
    {
      "inputs": [],
      "name": "acceptSetter",
      "outputs": [],
      "stateMutability": "nonpayable",
      "type": "function"
    },
    {
      "inputs": [],
      "name": "owner",
      "outputs": [
        {
          "internalType": "address",
          "name": "",
          "type": "address"
        }
      ],
      "stateMutability": "view",
      "type": "function"
    },
    {
      "inputs": [
        {
          "internalType": "address",
          "name": "_owner",
          "type": "address"
        }
      ],
      "name": "transferOwner",
      "outputs": [],
      "stateMutability": "nonpayable",
      "type": "function"
    }
  ],
  "bytecode": "0x608060405234801561001057600080fd5b506101c1806100206000396000f3fe608060405234801561001057600080fd5b50600436106100415760003560e01c80634fb2e45d146100465780635f8e422f1461005b5780638da5cb5b14610063575b600080fd5b610059610054366004610138565b610092565b005b6100596100e7565b600054610076906001600160a01b031681565b6040516001600160a01b03909116815260200160405180910390f35b6000546001600160a01b031633146100c55760405162461bcd60e51b81526004016100bc90610168565b60405180910390fd5b600180546001600160a01b0319166001600160a01b0392909216919091179055565b6001546001600160a01b031633146101115760405162461bcd60e51b81526004016100bc90610168565b60018054600080546001600160a01b03199081166001600160a01b03841617909155169055565b60006020828403121561014a57600080fd5b81356001600160a01b038116811461016157600080fd5b9392505050565b6020808252600990820152683337b93134b23232b760b91b60408201526060019056fea2646970667358221220981c5a8662734e9da18a5c20a81b73d63a2b07654257b92adb47d9a948e1045264736f6c63430008120033",
  "linkReferences": {},
  "deployedLinkReferences": {}
}